:100000000C94DC0B0C940D0C0C940D0C0C940D0C3E
:100010000C940D0C0C940D0C0C940D0C0C940D0CFC
:100020000C940D0C0C940D0C0C940D0C0C940D0CEC
:100030000C940D0C0C940D0C0C940D0C0C940D0CDC
:100040000C940D0C0C940D0C0C940D0C0C940D0CCC
:100050000C940D0C0C940D0C0C940D0C0D9496211D
:100060000C940D0C0D9420250D9456250C940D0C1C
:100070000C940D0C0C940D0C0C940D0C0C940D0C9C
:100080000C940D0C0C940D0C0C940D0C0C940D0C8C
:100090000C940D0C0C940D0C0C940D0C0C940D0C7C
:1000A0000C940D0C0C940D0C0C940D0C0C940D0C6C
:1000B0000C940D0C0C940D0C0C940D0C0C940D0C5C
:1000C0000C940D0C0C940D0C0C940D0C0C940D0C4C
:1000D0000C940D0C0C940D0C0C940D0C0C940D0C3C
:1000E0000C940D0CB400CE00DA00C800B800C600B5
:1000F0009000A0009C008C00A400C4009200D400DA
:10010000C600D200D8008A000D947F110D94640BB4
:100110000D94CA230D9413230D94F3220D94830C94
:100120000D94E5220D9401230D94BC230D946B10C6
:100130000D94C10F0D944D0D0D94EF220D941903E4
:100140000D94E9220D9488250D94F7220D944E14F8
:100150000D943C010D947F250D94B6090D94111555
:100160000D9494060D945C240D94DE220D949A0A4D
:100170000D94DA220D94DE230D94B1230D94AE1369
:100180000D9471070D943A000D94FD220D941823DF
:100190000D94D4220D9404020D9494120D94E12236
:1001A0000D9426040D940B230D9405230D94130F29
:1001B0000D940F230D94D0220D94AF230D94AC0811
:1001C0000D942A050D94BE140D94250E0D943B2418
:1001D0000D94D8253B416E736C7574612044454283
:1001E00055473B004F4E3B005345545F4C455645E9
:1001F0004C3D383B004F46463B00434D443D003BA1
:100200005357495443483D303B003B414E534C55B6
:1002100054413B49443D0042797465733D003B4184
:100220006E736C7574612044454255473B003B4CEE
:100230006976436F6C2044454255473B004F4E3B27
:10024000004F46463B00434D443D003B4C4956431E
:100250004F4C3B49443D0042797465733D003B4C33
:100260006976436F6C2044454255473B00444953EF
:10027000434F2D3B00444953434F2B3B004D4F44CC
:100280004500434F4C4F523B004252494748543B74
:10029000004F46463B004F4E3B00414C4C00434D07
:1002A000443D003B4D694C6967687476313B494475
:1002B0003D0042797465733D003B4D694C69676848
:1002C000742044454255473B00434D443D4F4E004A
:1002D000434D443D4F4646005357495443483D30F3
:1002E0003B0049443D333B003B4750494F736574E5
:1002F0003B00434D443D4F4E00434D443D4F464629
:10030000005357495443483D303B0049443D323B3C
:10031000003B4750494F7365743B00434D443D4F8C
:100320004E00434D443D4F464600535749544348C1
:100330003D303B0049443D313B003B4750494F7302
:1003400065743B00434D443D4F4E00434D443D4F8B
:100350004646005357495443483D303B0049443DCD
:10036000303B003B4750494F7365743B003B507531
:100370006C7365732875536563293D003B444542A2
:1003800055473B50756C7365733D0032303B003B05
:1003900050756C7365732875536563293D003B4444
:1003A000454255473B50756C7365733D0032303B99
:1003B000003B536C6176653B44656275673D003276
:1003C000303B003B536C6176653B0032303B003B79
:1003D000536C6176653B44656275673D0032303B26
:1003E000003B536C6176653B0032303B0032303B62
:1003F00000534D4F4B45414C4552543D4F4E3B00F1
:100400005357495443483D30313B434D443D4F4E93
:100410003B003B416C6563746F53413B0032303BA2
:1004200000474F444F574E3B00474F55503B0053FA
:10043000544F503B004F4E3B004F46463B00444F0D
:10044000574E3B0055503B00434D443D00535749E8
:100450005443483D30313B003B4D657274696B3B02
:100460000032303B00474F444F574E3B00474F55FB
:10047000503B0053544F503B004F4E3B004F4646BD
:100480003B00444F574E3B0055503B00434D443DCD
:10049000005357495443483D303B004D65727469E1
:1004A0006B5F475636303B00534D4F4B45414C45F3
:1004B00052543D4F4E3B005357495443483D303111
:1004C0003B434D443D4F4E3B003B4641323052464C
:1004D0003B0032303B004348494D453D30313B0005
:1004E0005357495443483D313B434D443D4F4E3BA8
:1004F000003B446F6F7262656C6C3B0032303B00B6
:100500004348494D453D30313B00535749544348DA
:100510003D313B434D443D4F4E3B003B4672696588
:10052000646C616E643B0032303B004348494D458A
:100530003D30313B005357495443483D313B434DD7
:10054000443D4F4E3B003B446F6F7262656C6C3BA9
:100550000032303B004348494D453D30313B00536C
:1005600057495443483D313B434D443D4F4E3B007A
:100570003B456C726F44423B0032303B004348497C
:100580004D453D30313B005357495443483D313B85
:10059000434D443D4F4E3B003B446F6F7262656C70
:1005A0006C3B0032303B004348494D453D30313BC8
:1005B000005357495443483D313B434D443D4F4E12
:1005C0003B003B53696C7665726372657374444299
:1005D0003B0032303B004348494D453D30313B0004
:1005E0005357495443483D313B434D443D4F4E3BA7
:1005F000003B4279726F6E204D503B0032303B0021
:100600004348494D453D30313B00535749544348D9
:100610003D313B434D443D4F4E3B003B44656C7484
:10062000726F6E69633B0032303B003B4279726F00
:100630006E3B0032303B005357495443483D313BF9
:10064000434D443D4F4E3B003B506C6965676572BE
:100650003B0032303B00434D443D4F4E3B43484905
:100660004D453D30313B003B53656C656374506CC8
:1006700075733B0032303B00434D443D4F4E3B00D1
:10068000434D443D4F46463B005357495443483D34
:1006900030313B003B44697465633B0032303B00C2
:1006A00044454255473D003B434D443D4F4E3B0082
:1006B0005357495443483D003B46726965646C6139
:1006C0006E643B0032303B004F46463B004F4E3B92
:1006D00000434D443D005357495443483D30313B5E
:1006E000003B4C6F6265636F3B0032303B00434D13
:1006F000443D4F4E3B005357495443483D30313BF6
:10070000003B4D433134353032363B0032303B0014
:100710004F4E004F4E004F4E004F4E004F4E004F79
:100720004646004F4646004F4E004F4646004F4E4D
:10073000004F4646004F4E003B5357495443483DF7
:1007400030313B434D443D003B41746C616E7469F4
:10075000633B49443D0032303B004241543D4C4FE5
:10076000573B004241543D4F4B3B00434D443D4FAE
:100770004E3B00434D443D4F46463B003B4B656579
:100780006C6F713B49443D0032303B00434D443D6A
:100790004F4E3B003B5831303B0032303B00434D25
:1007A000443D4F4E3B00434D443D4F46463B005376
:1007B00057495443483D30323B003B436875616EB6
:1007C000676F3B0032303B00434D443D4F4E3B0092
:1007D0003B4556313532373B0032303B00434D44C8
:1007E0003D4F4E3B005357495443483D30313B0049
:1007F0003B48543132453B0032303B003B42616C58
:1008000064723B003B4C6163726F73736556343B9B
:100810000032303B003B4163757269746556333B6F
:100820000032303B003B496E6F56616C6C65795FFE
:10083000534D3230303B0032303B003B416C6563FE
:10084000746F5F313330305F536F696C3B0032300F
:100850003B003B416C6563746F5F313330305F4107
:1008600069723B0032303B003B5748333B0032302B
:100870003B004241543D4C4F573B004241543D4F99
:100880004B3B003B4163757269746556323B0032E5
:10089000303B004241543D4C4F573B004241543D98
:1008A0004F4B3B003B416375726974653B003230CE
:1008B0003B003B46696E654F6666736574323B006C
:1008C00032303B004241543D4C4F573B0042415473
:1008D0003D4F4B3B003B5748353032393B003230BF
:1008E0003B003B436F6E7261643B0032303B003B28
:1008F00042696C74656D613B49443D3030003B5248
:10090000465831304D455445523B0032303B003B58
:100910004F7265676F6E205747523830303B444501
:100920004255473D003B4F7265676F6E20434D3126
:1009300038303B49443D3030003B4F7265676F6E45
:1009400020434D3131393B49443D3030003B4F72FB
:1009500065676F6E20434D3136303B49443D303042
:10096000003B4F7265676F6E20434D3133303B491A
:10097000443D3030003B4F7265676F6E20434D3110
:1009800031333B49443D004241543D4F4B3B0042D3
:1009900041543D4C4F573B003B4F7265676F6E2093
:1009A00055564E3830303B49443D004241543D4F4E
:1009B0004B3B004241543D4C4F573B003B4F72650F
:1009C000676F6E2055564E3178383B49443D0042A2
:1009D00041543D4F4B3B004241543D4C4F573B002F
:1009E0003B4F7265676F6E2057696E64323B4944B6
:1009F0003D004241543D4F4B3B004241543D4C4F22
:100A0000573B003B4F7265676F6E2057696E643BC2
:100A100049443D004241543D4C4F573B00424154F4
:100A20003D4F4B3B003B4F7265676F6E20526169D3
:100A30006E323B49443D004241543D4F4B3B0042E6
:100A400041543D4C4F573B003B4F7265676F6E20E2
:100A50005261696E3B49443D004241543D4C4F5701
:100A60003B004241543D4F4B3B003B4F7265676F2B
:100A70006E204254483B49443D004241543D4C4F56
:100A8000573B004241543D4F4B3B003B4F72656723
:100A90006F6E2054656D70487967726F3B49443DB5
:100AA000004241543D4C4F573B004241543D4F4B57
:100AB0003B003B4F7265676F6E2054656D703B491C
:100AC000443D004241543D4F4B3B004241543D4C5C
:100AD0004F573B003B4F7265676F6E56313B494441
:100AE0003D3030003B42696F77696E3B0032303BEE
:100AF000004241543D4F4B3B004241543D4C4F5707
:100B00003B003B54756E65783B49443D003B58695A
:100B1000726F6E3B49443D003B417572696F6C20BA
:100B200056323B49443D004241543D4F4B3B00420D
:100B300041543D4C4F573B003B417572696F6C3BD4
:100B400049443D3030003B417572696F6C2056332B
:100B50003B49443D003B4C6143726F7373653B49B5
:100B6000443D0032303B003B4C6143726F73736510
:100B70003B49443D0032303B003B55504D5F45738F
:100B800069632046323B49443D004241543D4F4B4E
:100B90003B004241543D4C4F573B003B55504D5F4D
:100BA000457369633B49443D003B4C6143726F733D
:100BB000736556333B49443D0032303B003B4C614A
:100BC00043726F73736556333B49443D0032303B8B
:100BD000003B4C6143726F73736556333B49443D30
:100BE0000032303B003B4C6143726F737365563388
:100BF0003B49443D0032303B003B4C6143726F73D4
:100C0000736556333B49443D0032303B003B4C61F9
:100C100043726F73736556333B49443D0032303B3A
:100C2000003B4D656275733B0032303B00424154DE
:100C30003D4F4B3B004241543D4C4F573B003B49DD
:100C40006E6F56616C6C65793B0032303B003B4BFC
:100C5000726970706C3B0032303B004241543D4F32
:100C60004B3B004241543D4C4F573B003B50726F51
:100C70006C6F6775653B0032303B003B4575726FAA
:100C80006368726F6E3B0032303B003B575430312B
:100C900032323B0032303B003B003B4372657374A1
:100CA000613B44454255473B49443D004241543D28
:100CB0004C4F573B004241543D4F4B3B003B43722E
:100CC000657374613B49443D004241543D4C4F576C
:100CD0003B004241543D4F4B3B003B4372657374B4
:100CE000613B49443D004241543D4C4F573B00421B
:100CF00041543D4F4B3B003B4372657374613B492C
:100D0000443D004241543D4C4F573B004241543D0D
:100D10004F4B3B003B4372657374613B49443D005C
:100D20004241543D4C4F573B004241543D4F4B3B99
:100D3000003B4372657374613B49443D003B416C29
:100D40006563746F2056353B0032303B004241549E
:100D50003D4C4F573B004241543D4F4B3B003B50B5
:100D60006F6C6C696E3B003B476C6F62616C5472D8
:100D70006F6E6963733B003B416C6563746F205613
:100D8000343B0032303B003B416C6563746F56333B
:100D90003B003B58543230303B003B46696E654F58
:100DA00066667365743B003B496D6167696E74727A
:100DB0006F6E69783B0032303B00416C6563746F45
:100DC0002056313B00416C6563746F2056313B0007
:100DD000416C6563746F2056313B004241543D4C79
:100DE0004F573B004241543D4F4B3B003B416C65EC
:100DF00063746F2056313B0032303B004241543D1A
:100E00004C4F573B004241543D4F4B3B003B46301B
:100E100030375F783B003B463030375F545F504699
:100E20003B003B463030375F54483B0032303B009C
:100E300044454255473D004F4E3B004F46463B0020
:100E4000414C4C00434D443D003B53746566666520
:100E50006E3B0032303B004F46463B004F4E3B005E
:100E6000414C4C00434D443D003B4E696E67626F00
:100E70003B0032303B0032303B4E696E67626F3B65
:100E800044656275673D003B004F46463B004F4E50
:100E90003B004F4E3B00444F574E3B0055503B00EC
:100EA000434D443D005357495443483D323B005362
:100EB00057495443483D313B005357495443483DFB
:100EC000303B003B424F5343483B0032303B0043F2
:100ED0004D443D4F46463B00434D443D53544F50D7
:100EE0003B00434D443D444F574E3B00434D443D32
:100EF00055503B005357495443483D00434D443DF2
:100F00004F4E3B005357495443483D003B485436ED
:100F10005032303B0032303B004F46463B004F4E94
:100F20003B00434D443D003B54523030393B00328E
:100F3000303B0053544F503B00444F574E3B0055FD
:100F4000503B00434D443D003B4761706F73613B34
:100F50000032303B003B4741504F53413B444542F8
:100F600055473D0032303B003B5265766F6C743B19
:100F70000032303B004F46463B004F4E3B00434D56
:100F8000443D003B48616C656D656965723B0032AC
:100F9000303B0032303B004F4E3B004F46463B005B
:100FA000434D443D003B4E6F76617479733B003294
:100FB000303B004F46463B0053544F503B004F4E92
:100FC0003B00414C4C00434D443D003B466F726535
:100FD00073743B49443D0032303B004F4E3B00436D
:100FE0004D443D003B4C69766F6C6F3B0032303BAB
:100FF0000053544F503B00504149523B0053544F13
:10100000503B0055503B00444F574E3B00434D442E
:101010003D003B4B696E6770696E3B0032303B00B0
:101020004F46463B004F4E3B00414C4C00434D4425
:101030003D003B4B6F63683B0032303B0053544FE5
:10104000503B004F4E3B0053544F503B00444F57D2
:101050004E3B0055503B0053544F503B00444F57BC
:101060004E3B0055503B00434D443D0053574954BF
:1010700043483D30313B003B5254533B0032303B00
:101080000032303B0053544F503B004F4E3B005317
:10109000544F503B00444F574E3B0055503B00537C
:1010A000544F503B00444F574E3B0055503B00437C
:1010B0004D443D005357495443483D30313B003B7C
:1010C0005254533B0032303B0032303B0053544FBC
:1010D000503B004F4E3B0053544F503B00444F5742
:1010E0004E3B0055503B0053544F503B00444F572C
:1010F0004E3B0055503B00434D443D00535749542F
:1011000043483D30313B003B5254533B0032303B6F
:101110000032303B004C4F573B004F4B3B004241AD
:10112000543D004F4E3B004F46463B00414C4C0067
:10113000434D443D003B46756E6B6275733B003218
:10114000303B0053544F503B00444F574E3B0055EB
:10115000503B00434D443D003B446F6F79613B0081
:1011600032303B0053544F503B004C4F434B3B00FD
:1011700053544F503B00444F574E3B0055503B009B
:10118000434D443D003B4272656C4D6F746F723B42
:101190000032303B004C494D49543B00434F4E46D2
:1011A00049524D3B0053544F503B00444F574E3B28
:1011B0000055503B00434D443D003B426F66754D2A
:1011C0006F746F723B0032303B004F46463B004F1E
:1011D0004E3B00414C4C00434D443D003B53696C39
:1011E00076657243726573743B0032303B0053572F
:1011F000495443483D30303B0032303B004F464677
:101200003B004F4E3B00434D443D003B523534368E
:101210003B0032303B004F4E3B004F46463B0043C5
:101220004D443D003B5831305365637572653B005A
:1012300032303B004F46463B00414C4C4F46463B0C
:10124000004F46463B004F4E3B0053544F503B002F
:101250004F4E3B004F46463B00414C4C4F46463BB1
:10126000004F4E3B004F46463B00434D443D003B44
:101270004C69676874776176653B0032303B004F9C
:101280004E3B004F46463B004F4E3B004F46463BD1
:1012900000414C4C00434D443D003B556E69746524
:1012A000633B49443D3030313233343B0032303BD4
:1012B000004F46463B004F4E3B00414C4C00434DD7
:1012C000443D003B4575726F70653B0032303B001A
:1012D0004252494748543B0044494D3B004F4E3B26
:1012E000004F46463B00434D443D0053574954434D
:1012F000483D30313B003B41737465723B003230F6
:101300003B004F4E3B004F46463B00414C4C004398
:101310004D443D003B4D61636C65616E3B00323076
:101320003B004F4E3B004F46463B00414C4C004378
:101330004D443D0032303B004F4E3B004F46463B54
:1013400000434D443D003B496B6561204B6F70701D
:101350006C613B0032303B00414C4C4F4E3B0041F6
:101360004C4C4F46463B0044494D3B004252494796
:1013700048543B004F4E3B004F46463B00434D44D4
:101380003D003B506F7765726669783B0032303BB9
:10139000004F46463B004F4E3B00434D443D003B13
:1013A00046413530303B0032303B003B486F6D6585
:1013B000436F6E666F72743B0032303B004F4E3BA2
:1013C000004F46463B00414C4C00434D443D003BE2
:1013D000486F6D65436F6E666F72743B0032303BD1
:1013E00000434F4C4F5220475245454E3B00434F20
:1013F0004C4F522059454C4C4F573B00434F4C4F9C
:101400005220424C55453B00434F4C4F52205245D1
:10141000443B00434F4C4F524D495820444F574E88
:101420003B00434F4C4F524D49582055503B0044D0
:10143000494D2055503B0044494D20444F574E3BA9
:10144000004F46463B00434D443D003B5452433021
:10145000325247423B0032303B00414C4C4F4E3BF6
:1014600000414C4C4F46463B0044494D3B004252E4
:10147000494748543B004F4E3B004F46463B0043D4
:101480004D443D003B5831303B0032303B004F4E25
:101490003B004F46463B00434D443D003B4B616D96
:1014A00062726F6F6B3B0032303B004F46463B0031
:1014B0004F4E3B00414C4C00434D443D003B436F7D
:1014C0006E7261643B0032303B00414C4C4F4646EB
:1014D0003B00414C4C4F4E3B004F46463B004F4E6D
:1014E0003B00434D443D003B4176696473656E3B70
:1014F000003B426C7973733B0032303B004F4E3BF4
:10150000004F46463B004F46463B004F4E3B004F88
:101510004E3B004F46463B00414C4C00434D443D42
:10152000003B4575726F646F6D6573743B003230BC
:101530003B00414C4C4F4E3B00414C4C4F46463BD0
:10154000004F4E3B004F46463B00434D443D003B61
:101550004E65774B616B753B0032303B004F464622
:101560003B004F4E3B004F4E3B004F46463B004139
:101570004C4C00434D443D003B54726953746174BC
:10158000653B003B5054323236323B003B50686979
:101590006C6970733B003B496D70756C733B003B2D
:1015A00053617274616E6F3B003B496D70756C7373
:1015B0003B003B4142343030443B003B4B616B7558
:1015C0003B0032303B003B4C6143726F7373655696
:1015D000323B49443D003B4C6143726F7373655627
:1015E000323B49443D003B4C6143726F7373655617
:1015F000323B49443D003B4C6143726F7373655607
:10160000323B49443D003B50756C736573287553FC
:101610006563293D003B44454255473B50756C731B
:1016200065733D0032303B003B4C4541524E3B0020
:1016300032303B00536C6176653B44656275673DB3
:1016400000536C6176653B0032303B30303B4E6F6F
:10165000646F20526164696F4672657175656E636F
:10166000794C696E6B202D2052464C696E6B204779
:101670006174657761792056312E31202D2000115B
:1016800012131415160A0B0C0D0E0F0001020304A1
:101690000500000A0B02090C0D0E080703040100E7
:1016A000000000000000000000000000000000003A
:1016B00000000000000000000000000000121110F7
:1016C000000000000000000000000000000000001A
:1016D0000000000000000001021020200808102077
:1016E00040102040800201020108040201010204AE
:1016F000081020408080402010080402018004026D
:1017000001804020100804020108040201010204C3
:1017100008102040800102040810204080050505C3
:1017200005070508080808020202020A0A08080458
:101730000404040101010101010101030303030386
:10174000030303040707070C0C0C0C0C0C0C0C0215
:1017500002020206060606060606060B0B0B0B0B1C
:101760000B0B0B000020002300260029002C002F6B
:1017700000320000010000030106010901000022FF
:1017800000250028002B002E00310034000201004B
:1017900000050108010B0100002100240027002A98
:1017A000002D003000330001010000040107010A90
:1017B0000100E200A200AE0011241FBECFEFD1E273
:1017C000DEBFCDBF00E00CBF1DE0A0E0B2E0E0E571
:1017D000FEE502E00BBF02C007900D92A83FB107E3
:1017E000D9F725E1A8EFBDE001C01D92AC3EB207DC
:1017F000E1F717E1C6EBD7E100E006C02297010947
:10180000FE010BBF0F94612AC23BD10780E008079D
:10181000A9F70F94CC250D94172F0C9400000F936B
:10182000FC0160834183228303830F91089508950F
:10183000CF93DF93EC0161E08A810F94192360E07C
:101840008B810F94192361E089810F94192361E042
:1018500088810F94192361E088810F94522380E5D9
:101860008CBD8DB58EB5DF91CF910895CF93DF9369
:101870001F92CDB7DEB7698389818EBD0DB407FE97
:10188000FDCF8EB50F90DF91CF910895CF93DF9369
:10189000EC0160E088810F94522381E090E00F9486
:1018A000342261E088810F94522389E290E00F9402
:1018B000342260E088810F9452238B810F94872318
:1018C0000197D9F360E3CE01D1DF61E08881DF9138
:1018D000CF910D9452231F93CF93DF93EC01162FDA
:1018E00060E088810F9452238B810F9487230197A6
:1018F000D9F3612FCE01BADF182F61E088810F94F0
:101900005223812FDF91CF911F910895E4CF0F9340
:101910001F93CF93DF93EC01062F142F60E0888193
:101920000F9452238B810F9487230197D9F3602F53
:10193000CE019CDF612FCE0199DF182F61E08881F5
:101940000F945223812FDF91CF911F910F91089512
:10195000CF93DF93EC016130D1F446E060E0D7DF54
:1019600041E062E0CE01D3DF4DE063E0CE01CFDFA6
:1019700040E069E0CE01CBDF43E06AE0CE01C7DFA3
:1019800042E263E1CE01C3DF40E065E138C062308E
:1019900009F037C049E260E0BADF46E062E0CE011C
:1019A000B6DF41E069E0CE01B2DF40E16AE0CE019E
:1019B000AEDF42EA63E1CE01AADF41E065E1CE019C
:1019C000A6DF47E066E1CE01A2DF40E367E1CE019A
:1019D0009EDF47E86EE1CE019ADF4BE66FE1CE0174
:1019E00096DF48EF60E2CE0192DF41E467E2CE018C
:1019F0008EDF40E068E2CE018ADF49E569E2CE0190
:101A000086DF4FEF66E0CE0182DF44E067E0CE0183
:101A10007EDF45E468E0CE017ADF49E06BE0CE018D
:101A200076DF40E06CE0CE0172DF4DE56DE0CE0187
:101A30006EDF43E96EE0CE016ADF41EB6FE0CE017D
:101A400066DF4DE260E1CE0162DF4BE361E1CE0192
:101A50005EDF43E762E1CE015ADF48EF64E1CE0189
:101A600056DF48E168E1CE0152DF4DE169E1CE0188
:101A70004EDF4CE16AE1CE014ADF47EC6BE1CE017B
:101A800046DF40E06CE1CE0142DF42EB6DE1CE018A
:101A90003EDF46EB61E2CE013ADF40E162E2CE0199
:101AA00036DF4AEE63E2CE0132DF4AE064E2CE0185
:101AB0002EDF40E065E2CE012ADF41E166E2CE01A1
:101AC00026DF48E86CE2CE0122DF41E36DE2CE0181
:101AD0001EDF4BE06EE2CE01DF91CF9118CFBF92B7
:101AE000CF92DF92EF92FF920F931F93CF93DF93EA
:101AF000EC01162F7A01C22E60E088810F945223E8
:101B00008B810F9487230197D9F3612FCE01AEDE2D
:101B1000B82E8701D12C98012E193F092C153D05AF
:101B2000BCF440E150E0F80160818DE495E10F9450
:101B30001D2763EA76E08DE495E10F943B26F801DA
:101B40006081CE0193DEB82EF80181938F01E3CF3F
:101B50008DE495E10F94432661E088810F94522330
:101B60008B2DDF91CF911F910F91FF90EF90DF9020
:101B7000CF90BF9008954F925F926F927F929F9205
:101B8000AF92BF92CF92DF92EF92FF920F931F938B
:101B9000CF93DF93B82EA62E942E6901F701461736
:101BA00038F0862FB61608F48B2DA91448F004C01F
:101BB000842FB41608F48B2DFA2CAB1428F403C030
:101BC000F92C9B1408F4FB2CF082F11003C0F801EF
:101BD000108215C0CF2DD0E0C81BD1092FEF30E007
:101BE000DE010F94F3294F2C512C612C712CA30191
:101BF00092010F94D129F8012083211103C0F6012D
:101C0000108231C0FB100DC0B12CA918B1082BE215
:101C10002A9DC0012B9D900D1124BE010F949C297B
:101C200020C08B2D90E0FA100FC0292D30E0281B2A
:101C3000390B4BE2429FC001439F900D1124BE011E
:101C40000F949C296B5A0DC09C012A1931094BE253
:101C5000429FC001439F900D1124BE010F949C2907
:101C60006555F6016083DF91CF911F910F91FF9031
:101C7000EF90DF90CF90BF90AF909F907F906F904C
:101C80005F904F9008950F93CF93DF93EC01C7DDE2
:101C90001C82DF91CF910F910895C9CDCF93DF932F
:101CA000EC01C6DDCE01F2DDCE01F0DD62E0CE0159
:101CB0004FDE4FEF6EE3CE012ADE66E3CE0126DE75
:101CC00066E3CE0123DE69E3CE0120DE66E3CE01CA
:101CD000DF91CF911BCECF93DF93EC0166E316DE4D
:101CE0006AE3CE0113DE64E3CE0110DE6AE070E049
:101CF00080E090E00F940F2240E06BEFCE0107DE12
:101D00008930C9F440E06FEBCE0101DE863081F40A
:101D100026E04AE354E16FEFCE01E1DE40E06FEBF5
:101D2000CE01F5DD40E06FEBCE01F1DD86E004C0D1
:101D30006AE3CE01EBDD80E0DF91CF910895CF9390
:101D4000DF93EC0166E3E2DD62E070E080E090E0CA
:101D50000F940F2266E3CE01D9DD6AE3CE01DF9155
:101D6000CF91D4CD1F93CF93DF93EC01B4DF182F25
:101D7000CE01E5DF163011F0C0E07AC08091311459
:101D8000882371F168E77AE08DE495E10F943B26B2
:101D90008091321491E0980F909332140E94AA1B04
:101DA0006EE172E08DE495E10F94162667E172E032
:101DB0008DE495E10F94162686E00E94AA1B67E940
:101DC00078E08DE495E10F943B2666E08AE394E1A8
:101DD0000E94551B67E978E08DE495E10F94462653
:101DE000D0913E1480913A14853531F6C0913B1460
:101DF000C13011F680913F148A3A09F0BDCF68E7EF
:101E00007AE08DE495E10F943B268091321491E0C5
:101E1000980F909332140E94AA1B6AE072E08DE43E
:101E200095E10F94162662E08CE394E10E94551B25
:101E30006FEF71E08DE495E10F9416266AEF71E083
:101E40008DE495E10F941626D13019F465EF71E019
:101E500007C0D23019F468EE71E002C064EE71E0A0
:101E60008DE495E10F9416268DE495E10F944326B9
:101E70008C2FDF91CF911F9108958F929F92AF92F7
:101E8000BF92CF92DF92EF92FF920F931F93CF9367
:101E9000DF93CDB7DEB72F970FB6F894DEBF0FBE36
:101EA000CDBF8C01D62EC42EB52E86E0F82E96E03E
:101EB000892E25E5922EAA24A3943AEAE32E65EF13
:101EC000C80109DD8F7190E00297CCF789829A8270
:101ED000AB82BC82CD82DE82EF82F801848191E008
:101EE000980F94838887198666E3C8010FDD6BE33A
:101EF000C8010CDD29E0AE014F5F5F4F6FE7C801FD
:101F0000EEDD65E3C80102DD62E370E080E090E0B1
:101F10000F940F22FA9499F666E3C801F7DC8091DA
:101F200031148823F9F068E77AE08DE495E10F94A5
:101F30003B268091321491E0980F909332140E94C6
:101F4000AA1B64ED71E08DE495E10F94162666E01E
:101F5000CE0102960E94551B67E978E08DE495E179
:101F60000F9446262F960FB6F894DEBF0FBECDBF56
:101F7000DF91CF911F910F91FF90EF90DF90CF9065
:101F8000BF90AF909F908F90089577CFAF92BF9200
:101F9000CF92DF92EF92FF920F931F93CF93DF9335
:101FA000EC013DDC1C829E012B563F4FFE01359615
:101FB000CF0109961192E817F907E1F7E217F30745
:101FC000B9F7108200E010E0E12CF12C88ECA82E8B
:101FD000A00EB12C6E01C00ED11EC7018A0D9B1D33
:101FE0000F94582EF601EE0DFF1D85838FEFE81A32
:101FF000F80A89E0E816F10481F7075F1F4F0039FE
:10200000110511F7DF91CF911F910F91FF90EF9084
:10201000DF90CF90BF90AF90089509CCCF93DF931E
:10202000EC0106DCCE0132DCCE0130DC61E0CE0119
:102030008FDC4FEF6EE3CE016ADC66E3CE0166DC37
:1020400066E3CE0163DC69E3CE0160DC66E3CE01CA
:10205000DF91CF915BCCCF93DF93EC0166E356DC4D
:102060006AE3CE0153DC64E3CE0150DC6AE070E049
:1020700080E090E00F940F2240E06BEFCE0147DC50
:10208000803188F040E06FEBCE0141DC8E3041F4CE
:102090002EE04AE354E16FEFCE0121DD8EE004C073
:1020A0006AE3CE0133DC80E0DF91CF910895CF93D6
:1020B000DF93EC0166E32ADC62E070E080E090E010
:1020C0000F940F2266E3CE0121DC6AE3CE01DF919B
:1020D000CF911CCC20E030E040E050E0BC01620F2A
:1020E000731FFB01E40FF51F15824F5F5F4F4A30EE
:1020F0005105B9F7275F3F4F2039310569F7FC01DA
:10210000EB56FF4F10820895AF92BF92CF92DF92AD
:10211000EF92FF920F931F93CF93DF93D62EC72E8C
:102120007C0125E9E20EF11CF7011081612F70E0BE
:10213000FC0120E030E026173707E4F44581442312
:10214000A9F0AD2DBC2D40E050E001E0BD904F5F07
:102150005F4FEF01C40FD51FCD81BC1200E04830A6
:102160005105A1F7002311F0822F54C02F5F3F4F7C
:102170003996E1CF103109F44CC029E0269FF001D7
:10218000279FF00D1124E80FF91F21E02583F9E0C6
:102190001F9F800D911D1124ED2DFC2D20E030E0BE
:1021A0002F5F3F4F4191DC01A20FB31F15964C9357
:1021B00028303105A9F71F5FF7011083C8EC0C2FF9
:1021C00010E0C8010F94582E8130F9F061E0C80189
:1021D0000F94602EE80121965801F9E0AF0EB11C72
:1021E0000D2D1C2DCE010F94582EF80161918F01F9
:1021F000861719F0CE010F94602E2196CA15DB05C3
:1022000089F7F7018081815005C0C75FC835B9F6ED
:10221000F8CF8FEFDF91CF911F910F91FF90EF904B
:10222000DF90CF90BF90AF9008951F93CF93DF932F
:10223000EC0111DF182FCE013ADF1E3011F080E0E3
:10224000B4C0809142148131D1F780913A148F3F0C
:10225000B1F380913B148F3F91F380913C148F3FF9
:1022600071F380913D148F3F51F380913114882395
:1022700071F168E77AE08DE495E10F943B26809157
:10228000321491E0980F909332140E94AA1B6EE5CD
:1022900072E08DE495E10F94162667E572E08DE417
:1022A00095E10F9416268EE00E94AA1B67E978E05C
:1022B0008DE495E10F943B266EE08AE394E10E9461
:1022C000551B67E978E08DE495E10F94462610915F
:1022D0004314812F8B7F833019F0153009F0AFCF75
:1022E0006AE374E1CE0110DFC82F68E77AE08DE47D
:1022F00095E10F943B268091321491E0980F9093D2
:1023000032140E94AA1B6BE472E08DE495E10F94F5
:10231000162664E08AE394E10E94551B1F92CF9336
:1023200085EA92E09F938F93C5EED3E1DF93CF933D
:102330000F943C2CBE018DE495E10F943B268091D7
:1023400047149091461489271F928F9380914514CA
:102350001F928F9383EB92E09F938F93DF93CF93A2
:102360000F943C2CBE018DE495E10F943B2666E46E
:1023700072E08DE495E10F9416268DB79EB70E9608
:102380000FB6F8949EBF0FBE8DBF173019F461E4ED
:1023900072E002C06DE372E08DE495E10F941626C1
:1023A0008DE495E10F94432681E0DF91CF911F9159
:1023B00008957F928F929F92AF92BF92CF92DF92B9
:1023C000EF92FF920F931F93CF93DF93CDB7DEB7BA
:1023D0002F970FB6F894DEBF0FBECDBF6C01142F40
:1023E000F22EFC01EB56FF4F8081681708F06DC09C
:1023F000F60189E0689FE00DF11D11248581882395
:1024000009F463C05F0193E0792E2EE0822E31E162
:10241000932E65EFC6015FDA8F7190E00297CCF7DB
:102420008982FE01329681E090E0D501A80FB91FA4
:1024300015962C912193019689309105B1F79A86D2
:102440001B87F601848191E0980F94838C87FD8629
:102450000E87EF8666E3C60159DA6BE3C60156DAEA
:102460002FE0AE014F5F5F4F6FE7C60138DB65E3DA
:10247000C6014CDA7A9469F680913114882329F1E7
:10248000812F8B7F833011F01530F9F468E77AE003
:102490008DE495E10F943B268091321491E0980FE2
:1024A000909332140E94AA1B6EE272E08DE495E1D3
:1024B0000F9416266EE0CE0102960E94551B67E926
:1024C00078E08DE495E10F9446262F960FB6F894A8
:1024D000DEBF0FBECDBFDF91CF911F910F91FF9057
:1024E000EF90DF90CF90BF90AF909F908F907F90B4
:1024F0000895BF92CF92DF92EF92FF920F931F93B6
:10250000CF93DF9300D0CDB7DEB76C01B62E842F0A
:10251000622F402F1B821A8219829E012F5F3F4F2C
:1025200079018E010E5F1F4F2E5F3F4F24DBE98044
:102530000A812B8145E06B2DC6013BDF0F900F9088
:102540000F90DF91CF911F910F91FF90EF90DF904F
:10255000CF90BF900895EF920F93E12C00E020E020
:1025600047E027DF0F91EF900895FC0171836083AE
:10257000168A0895FF920F931F93CF93DF931F92B4
:102580001F92CDB7DEB78C01DC0159968C9159971B
:1025900091E0892759968C9359975696FC905697B7
:1025A000F11059C00D90BC91A02DED91FC911197A7
:1025B0000088F189E02D882319F040E069E002C02D
:1025C00041E064E0CD011995882309F442C088E018
:1025D00090E09A838983F80180819181DC01ED91FB
:1025E000FC910288F389E02DAE014F5F5F4FB80187
:1025F0006A5F7F4F199597FD2EC049815A81411519
:10260000510549F1F801268130E02F5F3F4F421715
:10261000530709F5418550E0542F44278585482B01
:10262000662757FD6095762F82819381A481B581BD
:10263000481759076A077B0731F48789908D0196FF
:10264000908F878B06C0428353836483758381E0B8
:10265000868BF801F6888F2D0F900F90DF91CF9128
:102660001F910F91FF900895CF93DF93EC01888124
:102670009981DC01ED91FC910190F081E02D19959B
:1026800097FD43C088819981DC01ED91FC91028422
:10269000F385E02D61E0199597FD37C08881998118
:1026A000DC01ED91FC910280F381E02D63E019954E
:1026B00097FD2BC088819981DC01ED91FC9106800A
:1026C000F781E02D64E0199597FD1FC088819981FD
:1026D000DC01ED91FC910480F581E02D4AEA55E59D
:1026E0006AE075E0199597FD10C088819981DC0139
:1026F000ED91FC910084F185E02D68E0199597FD3E
:1027000004C0CE0137DF80E090E0DF91CF910895E3
:10271000CF93DF93EC01CB01FA012E89211105C083
:10272000118210828FEF9FEF1CC0208131812830F1
:10273000310520F027E030E0318320832E8130E026
:10274000408151812417350710F431832083BE0165
:10275000695F7F4F408151810F94CC2B1E8A8E81FF
:1027600090E0DF91CF910895DF92EF92FF920F9367
:102770001F93CF93DF93EC018F859E01225F3F4F24
:10278000790190E1D92E8A3509F445C005EC12E0B3
:1027900088819981DC01ED91FC914E8550E04F5F7D
:1027A0005F4F0484F585E02DB701199588819981E3
:1027B000F80161918F01DC01ED91FC910684F785B0
:1027C000E02D40E01995B2E0083C1B0709F7DA94C8
:1027D000E9F624C088819981DC01ED91FC914E8558
:1027E00050E04F5F5F4F0484F585E02DB7011995E8
:1027F00088819981F80161918F01DC01ED91FC9153
:102800000684F785E02D41E01995B2E0053C1B07F1
:1028100009F7DA9419F002EC12E0DCCF80E090E0E6
:10282000DF91CF911F910F91FF90EF90DF9008956E
:102830000F931F93CF93DF938C01EA01483051052A
:1028400058F40F960F94CC2BF801C687C8018CDF83
:1028500097FD04C0CE0102C08FEF9FEFDF91CF91B3
:102860001F910F910895693028F4FC01658380E081
:1028700090E008958FEF9FEF0895FC0184E0828738
:10288000778366835187408780E090E008952CEF3E
:10289000260F2F3038F460FD05C0FC01638780E00F
:1028A00090E008958FEF9FEF0895FC01648380E02E
:1028B00090E00895FC01680F791F80E090E0E61732
:1028C000F707A9F0419128E030E050E0DA01A827AD
:1028D000B92796958795A0FF04C0A8E08A27A4E8A9
:1028E0009A27559547952150310979F7E8CF0895F2
:1028F0000F931F93CF93DF938C01EA01413251056F
:1029000010F0C0E2D0E0AE01C80147960F94CC2B86
:10291000F801C48B17AACE01DF91CF911F910F91BF
:102920000895EF92FF920F931F93CF93DF93EC01E3
:10293000CB018A012C8930E0FA01408151812417B2
:10294000350710F4318320837E01F7E1EF0EF11C8F
:10295000F80140815181B7010F94CC2B4C89F801CB
:102960008081481B4C8B442351F050E06081718181
:10297000695E7F4F6C0F7D1FC7010F94D52B8C892B
:1029800090E0DF91CF911F910F91FF90EF9008950C
:10299000CF93DF93EC018A819B810F941F218A8161
:1029A0009B810F94BF20811121C061E070E08A817A
:1029B0009B810F94E0208A819B810F947B2101975A
:1029C000C1F460E070E08A819B810F94E0208A81ED
:1029D0009B810F947B2121E030E0892B11F420E0D2
:1029E00030E088279927821B930B05C080E090E098
:1029F00002C08FEF9FEFDF91CF910895FC018CEC27
:102A000092E0918380837383628381E08583178260
:102A100016821186108684E08287838788E0848707
:102A20001586148A158A168A17AA08959F92AF925E
:102A3000BF92CF92DF92EF92FF920F931F93CF93AB
:102A4000DF93EC01ED80F12C81E0E81AF1088A8532
:102A5000E80EF11C86E0E816F10434F0C701059792
:102A600035E0E32EF12C02C080E090E00B8510E011
:102A7000095F1F4F23E0159507952A95E1F7080F89
:102A8000191F8C85080F111D8C81882311F00E5F92
:102A90001F4F0132110508F093C083E0E816F104DE
:102AA0000CF48EC08E8180FF03C085E5982E02C095
:102AB0001AEA912E6701A12CB12C2D8130E0215012
:102AC0003109A216B30674F481E0C81AD108892D21
:102AD0000E941696FE01EC0DFD1D86878FEFA81A49
:102AE000B80AEBCFC114D10419F4C12CD12C16C0F3
:102AF0008E810E941696960121503109FE01E20F47
:102B0000F31F8687232B89F382E0C81AD1088F81AF
:102B10000E941696FE01EC0DFD1D86878A85843085
:102B2000B1F4C114D10499F088850E9416969601DB
:102B300021503109FE01E20FF31F8687232B39F064
:102B400089850E941696FE01EC0DFD1D84870D8B74
:102B50009E8AEB8A6E2D8A819B810F940D207E01C7
:102B60008EE0E80EF11CB7018A819B810F94F61F5D
:102B7000A70161E08A819B810F941E206D856E5FA5
:102B80008A819B810F94491F602F8A819B810F94BA
:102B90004F1F60E08A819B810F94C22063E08A818D
:102BA0009B810F94C92060E070E08A819B810F9423
:102BB000E0208A819B810F948A2180E090E002C00E
:102BC0008FEF9FEFDF91CF911F910F91FF90EF90CB
:102BD000DF90CF90BF90AF909F900895FC016487E5
:102BE00025CF2F923F924F925F926F927F928F925A
:102BF0009F92AF92BF92CF92DF92EF92FF920F938C
:102C00001F93CF93DF93CDB7DEB7A1970FB6F8949C
:102C1000DEBF0FBECDBF8C01DC011D968C91681309
:102C20000DC0F801828193810F94551FD8015796EA
:102C30008C9180FD1DC07AEA572E1CC0F801658773
:102C40000190F081E02D0480F581E02D411105C057
:102C50004BE855E26AE774E104C04AEA55E56AE0E8
:102C600075E0C8011995C801E1DE97FFDACF04C10C
:102C700065E5562EAE014F5F5F4F6A01E12CF12CE6
:102C80005A01F801858990E0E816F9060CF04CC06D
:102C900047015FEF851A950AD80153966C915397B7
:102CA00070E0C401860F971F15962C91159730E0A0
:102CB000821793071CF456968C9144C0F801428504
:102CC000D901A40FB11DAD018A179B0724F5E21AA3
:102CD000F30ABFEFEB1AFB0AE60EF71EE1E0EE1671
:102CE000F10491F034F4EF2851F5D80116968C9147
:102CF00029C042E0E416F10451F053E0E516F10476
:102D0000F1F4F80181851EC0F80187811BC0D8014C
:102D100018968C9117C02385269526952695420FE7
:102D2000511D841795076CF0F8018481882389F080
:102D3000648970E0C8014796BDDD3C010AC080E0AF
:102D400001C0852D0E941696D6018D936D017401E8
:102D500098CFF80183858770C82ED12C852C912CB3
:102D600088E090E08C199D0902C0959487948A951B
:102D7000E2F7412C512C20E0D80154968C915497C5
:102D800090E014963C91332319F042E050E002C0E9
:102D900040E050E0480F591F441555050CF460C041
:102DA000481659068CF4F801E40DF51D878990E06A
:102DB0000C2C02C0880F991F0A94E2F7882A992ADE
:102DC000F8E0CF0ED11C03C0311103C021E0170180
:102DD0003DC0AC014F5F5F4F44155505BCF3A201E8
:102DE000481B590BCA0153E0880F991F5A95E1F708
:102DF000D30102C0B695A7958A95E2F7CD01992730
:102E00000C2C02C0880F991F0A94E2F7882A992A8D
:102E1000B8E0CB0ED11CDBCF88E090E08C159D058F
:102E2000DCF4E0E22E16310428F5882D29A30E9457
:102E30001696F501E20DF31D8083892C9924F8E0A4
:102E4000CF1AD1084FEF241A340A29A17101222385
:102E500019F380E090E0E2CF5FEF451A550A8CCF7E
:102E60004E2DB501F801828193810F94CB1F80E034
:102E700090E002C08FEF9FEFA1960FB6F894DEBFEF
:102E80000FBECDBFDF91CF911F910F91FF90EF90BB
:102E9000DF90CF90BF90AF909F908F907F906F907A
:102EA0005F904F903F902F9008952F923F924F92B6
:102EB0005F926F927F928F929F92AF92BF92CF92CA
:102EC000DF92EF92FF920F931F93CF93DF93CDB7D3
:102ED000DEB7A0970FB6F894DEBF0FBECDBF8C0152
:102EE000DC0155964C915597BE016F5F7F4F12964E
:102EF0008D919C9113970F94EC1FD801ED91FC914B
:102F00000190F081E02DC8011995F8017384F72D27
:102F1000F7707F2ECE0101962C01A12CB12CC12C73
:102F2000D12CE12CF12CD80155968C91559790E03D
:102F3000A816B9060CF071C0D2018D912D010E9426
:102F400016964D2D5527282F30E0D22ECC24C42A9A
:102F5000D52AD5011196F8012388312CAD01420DF7
:102F6000531D658170E0461757073CF49689891711
:102F700009F451C080E090E08AC0F8016284CB017E
:102F8000860D911D4817590734F5A61AB70AFFEFA9
:102F9000AF1ABF0AA20CB31C81E0A816B10451F00D
:102FA00092E0A916B10469F0AB28A9F5F801868171
:102FB00097810DC0F8018780912C2815390559F1AA
:102FC000D9CFF4E06F1227C0F801808591852817CA
:102FD000390709F1CFCFF801238530E0295F3F4F52
:102FE000F3E035952795FA95E1F7280F391F421739
:102FF00053078CF0E1E0F0E0EC0FFD1FEE0DFF1D3C
:10300000C601072C02C0969587950A94E2F7808343
:10301000C70101967C015D0186CF670114968C91F2
:10302000882329F1B2E0EB16F1040CF4A3CFE2E01F
:10303000EE1AF108B701CE0101963CDCAC01552730
:10304000E1E0F0E0EC0FFD1FEE0DFF1D208130E010
:103050004217530709F08ECF892F9927FE01EC0DF7
:10306000FD1D208130E08217930709F083CFA7016F
:10307000BE016F5F7F4FC80147960F94CC2BD801DC
:103080005496EC92549781E0D7968C93C701A09602
:103090000FB6F894DEBF0FBECDBFDF91CF911F9169
:1030A0000F91FF90EF90DF90CF90BF90AF909F90E7
:1030B0008F907F906F905F904F903F902F900895EA
:1030C000CF93DF93EC018D8568130DC08A819B81BE
:1030D0000F9486208A819B810F94E91F8823D9F061
:1030E000CE01E3DE18C06D87E881F9810480F581A7
:1030F000E02D411105C04BE855E26AE774E104C0D8
:103100004AEA55E56AE075E0CE011995CE018EDCFC
:1031100097FFDCCF08C08FA9882319F08C8990E035
:1031200002C080E090E0DF91CF9108958F929F924E
:10313000AF92BF92CF92DF92EF92FF921F93CF9305
:10314000DF938091530F9091540F8E9709F046C0F2
:10315000EEE5FFE0C12CD12C760181E090E0DF01AB
:1031600011972C912A3058F420812A3018F48C328F
:103170009105A4F1CC0CDD1CEE1CFF1C0EC0283107
:1031800068F520812B3018F08C3291053CF1CC0C85
:10319000DD1CEE1CFF1C6894C0F8029632968F323C
:1031A0009105E9F690914A0F8091490F981311C04B
:1031B00080904F0F9090500FA090510FB090520FF1
:1031C0000F94E02186169706A806B90610F081E054
:1031D00094C0C114D104E104F10411F480E08DC065
:1031E0001C2D1F7084E0F694E794D794C7948A95B9
:1031F000D1F78091321491E0980F909332141F927E
:103200008F9380EE92E09F938F93C5EED3E1DF938F
:10321000CF930F943C2CBE018DE495E10F943B2697
:103220006BE974E08DE495E10F94162687E0E822BF
:10323000FF24FF92EF92DF92CF9289EE92E09F936C
:103240008F93DF93CF930F943C2CBE018DE495E1D7
:103250000F943B2661E974E08DE495E10F94162606
:103260006CE874E08DE495E10F9416268DB79EB757
:103270000E960FB6F8949EBF0FBE8DBF1B3019F48B
:1032800068E874E004C01D3039F462E874E08DE44D
:1032900095E10F94162626C0173019F46DE774E0F7
:1032A000F6CF133019F469E774E0F1CF183019F450
:1032B00063E774E0ECCF1A3019F46DE674E0E7CF01
:1032C0001C3019F465E674E0E2CF40E150E0612F74
:1032D0008DE495E10F941D2767E978E08DE495E191
:1032E0000F943B268DE495E10F94432681E0809373
:1032F000550F1092540F1092530FDF91CF911F91E1
:10330000FF90EF90DF90CF90BF90AF909F908F9005
:103310000895CF92DF92EF92FF920F931F93CF9376
:10332000DF938091530F9091540FC29709F0C9C059
:1033300010925C0FEDE5FFE090E0C12CD12C7601FE
:1033400080E031E0208149EB420F4F3910F4265ADA
:1033500020832191273108F4B4C047ED420F4E3746
:1033600038F48327CC0CDD1CEE1CFF1CC82A12C0CD
:10337000283268F4913039F4CC0CDD1CEE1CFF1CB3
:10338000C82A90E007C091119CC091E003C0273E7D
:1033900028F497C02FE0EF38F207A1F6D701C60155
:1033A00042E1B695A795979587954A95D1F78C01F7
:1033B000077011278091321491E0980F9093321486
:1033C0001F928F9380EE92E09F938F93C5EED3E18F
:1033D000DF93CF930F943C2CBE018DE495E10F94C5
:1033E0003B2663EF72E08DE495E10F943B26DF927C
:1033F000CF9289EE92E09F938F93DF93CF930F94B8
:103400003C2CBE018DE495E10F943B2664EF7EE0F9
:103410008DE495E10F941626D701C60155E1B695C6
:10342000A795979587955A95D1F78F711F928F938E
:103430008BEF92E09F938F93DF93CF930F943C2C6D
:10344000BE018DE495E10F943B268DB79EB7429661
:103450000FB6F8949EBF0FBE8DBF0730110519F44B
:103460006CEE7EE00EC00630110519F462EE7EE0CF
:1034700008C00130110519F468ED7EE002C06FEC60
:103480007EE08DE495E10F9416266FE575E08DE4FE
:1034900095E10F943B2620E130E0B701A6018DE4D1
:1034A00095E10F94112767E978E08DE495E10F9499
:1034B000462681E08093550F1092540F1092530FBF
:1034C00001C080E0DF91CF911F910F91FF90EF90AD
:1034D000DF90CF9008950D94582E0D94602ECF93C9
:1034E000DF93C4E6D0E0CE01F6DF882319F060E078
:1034F000CE01F3DF2196C43BD105A9F7DF91CF912F
:103500000895DC01ED91FC910190F081E02D19947A
:1035100040E050E060E070E00D949F2ACF93DF938D
:10352000EC0161EE7BE00F94E62B892B09F4ACC033
:1035300061E173E0CE010F94E62B892B09F4A7C05B
:1035400068E073E0CE010F94E62B892B09F4A2C04A
:103550006EE073E0CE010F94E62B892B09F49DC039
:1035600067E173E0CE010F94E62B892B09F498C034
:1035700065E173E0CE010F94E62B892B09F45DC061
:103580006CE173E0CE010F94E62B892B09F458C04F
:1035900060E273E0CE010F94E62B892B09F453C04F
:1035A00067E273E0CE010F94E62B892B09F44EC03D
:1035B0006DE273E0CE010F94E62B892B09F449C02C
:1035C00064E373E0CE010F94E62B892B09F444C029
:1035D0006BE373E0CE010F94E62B892B09F43FC017
:1035E0006EE373E0CE010F94E62B892BD9F163E4EF
:1035F00073E0CE010F94E62B892BB9F168E473E0F8
:10360000CE010F94E62B892B99F16DE473E0CE0186
:103610000F94E62B892B79F163E573E0CE010F94CB
:10362000E62B892B59F16BE573E0CE010F94E62B65
:10363000892B39F582E590E035C08DE290E032C00B
:103640008CE490E02FC08DE490E02CC08CE390E0FF
:1036500029C08DE390E026C08EE390E023C08EE485
:1036600090E020C08FE490E01DC080E590E01AC09B
:1036700088E490E017C089E490E014C081E590E010
:1036800011C080E090E00EC08BE490E00BC08AE4B3
:1036900090E008C08DE890E005C087E390E002C0AC
:1036A0008CE290E0DF91CF910895CF92DF92FF926C
:1036B0000F931F93CF93DF93CDB7DEB70DB71EB730
:1036C000262F30E0220F331FA9014F5F5F4FEDB768
:1036D000FEB7E41BF50B0FB6F894FEBF0FBEEDBFAF
:1036E0004DB75EB74F5F5F4FDA01F82E6C018C2D3E
:1036F0008F198617C8F4C601F601708172957F7024
:1037000070637A3308F0795D7C93FFEFCF1ADF0A9C
:10371000FC0180818F7080638A3308F0895D119687
:103720008C9311971296E3CFFA01E20FF31F1082E8
:10373000BA018DE495E10F943B260FB6F8941EBFB5
:103740000FBE0DBFDF91CF911F910F91FF90DF90C2
:10375000CF900895CF93DF9300D0CDB7DEB7982FE9
:1037600092959F7090639A3308F0995F99838F7058
:1037700080638A3308F0895F8A831B82BE016F5F92
:103780007F4F8DE495E10F943B260F900F900F90A3
:10379000DF91CF910895CF92DF92EF92FF920F9336
:1037A0001F93CF93DF93CDB7DEB729970FB6F89469
:1037B000DEBF0FBECDBF8091530F9091540F873164
:1037C000910534F41092540F1092530F0C94062567
:1037D000823291055CF4EEE5FFE02191233410F094
:1037E0000C9406252FE0E536F207B9F720912E1448
:1037F000222309F4BBC0EFE5FFE016E1E12EF12C36
:1038000026E130E043E050E0019110E00217130799
:103810002CF0E016F1060CF4780189014F5F5F4F40
:103820004817590711F09801EFCFEDE5FFE0D12CD3
:1038300050E021E030E061912F5F3F4F4081AD2D9E
:10384000B0E0461750F461E070E06C0F7D1FA60FEA
:10385000B71F4C91440F416008C061E070E06C0FED
:103860007D1FA60FB71F4C91440F4C935F5F5830DC
:1038700029F4D39478E07D1520F050E0281739071B
:10388000D1F660E376E18DE495E10F941626809100
:10389000321491E0980F909332145CDF68E276E185
:1038A0008DE495E10F9416266091530F7091540F9B
:1038B0004AE050E08DE495E10F94F42667E978E062
:1038C0008DE495E10F943B264AE050E0B8018DE489
:1038D00095E10F94F42667E978E08DE495E10F9483
:1038E0003B264AE050E0B7018DE495E10F94F426C1
:1038F00067E978E08DE495E10F943B264AE050E0DB
:1039000060915D0F8DE495E10F941D2767E978E0E4
:103910008DE495E10F943B26E091530FF091540F05
:10392000ED5AF04F4AE050E061858DE495E10F9447
:103930001D2767E978E08DE495E10F943B264AE086
:1039400050E060E08DE495E10F941D2767E978E091
:103950008DE495E10F943B266D2DCE010196A5DEF9
:1039600067E978E08DE495E10F9446268091311463
:10397000882309F453C064E276E18DE495E10F9465
:1039800016268091321491E0980F90933214E2DE63
:1039900065E176E18DE495E10F9416266091530F71
:1039A0007091540F4AE050E08DE495E10F94F426B5
:1039B00066E076E18DE495E10F941626BDE5EB2EE9
:1039C000BFE0FB2E01E010E08091530F9091540F67
:1039D00080179107ECF0D7016D917D018091570F11
:1039E000689FB00111244AE050E08DE495E10F9406
:1039F000F4268091530F9091540F081719072CF457
:103A00006CE270E08DE495E17CDD0F5F1F4FDCCF51
:103A100067E978E08DE495E10F9446262091530FF5
:103A20003091540F2937310544F42037310511F016
:103A30000C945A2589E40C945825283C310579F0DA
:103A40002A3F310561F02E35B1E03B0741F02039C6
:103A5000E1E03E0721F02F3FF1E03F0781F5809143
:103A60008E0F893760F18091C00F893740F18091C6
:103A7000F20F893720F180915E0F813178F48091C7
:103A80005F0F813168F48091600F813148F480913B
:103A9000610F813128F482E390E0D6C0853178F45B
:103AA00080915F0F853158F48091600F853138F433
:103AB0008091610F853118F482E390E0EDC0C90177
:103AC00062E370E00F949C29A901481B590B483C04
:103AD0005105D1F04A3F5105B9F04C3261E056072B
:103AE00099F04E3571E0570779F04039A1E05A0757
:103AF00059F0423CB1E05B0739F0443FE1E05E073A
:103B000019F04F3F514089F5FC01ED5AF04F818586
:103B10008D3858F183AD8D3840F1DF01A359BF4F87
:103B20008C918D3810F1D2968C918D38F0F0838580
:103B30008531D8F484858531C0F485858531A8F434
:103B40008685853190F44DE55FE080E090E0019658
:103B50009F01280F391FD90119962C91DA012D9355
:103B6000AD018233910599F797C0283C3105C1F02A
:103B70002A3F3105A9F02C32B1E03B0789F02E3500
:103B8000E1E03E0769F02039F1E03F0749F0223CCF
:103B900041E0340729F02F3F61E0360709F091C07A
:103BA0000EE51FE0E3E6FFE042E65FE0A1E6CA2E95
:103BB000AFE0DA2E82E090E0D8016D918D016D3892
:103BC00008F474C0BC016D5A704FDB01DB96FC90A9
:103BD000BCE8BF1508F06AC07F01AFE5EA0EF11C32
:103BE000D701FC90BCE8BF1508F060C07F01A1E9D7
:103BF000EA0EF11CD701FC90BCE8BF1508F056C0D6
:103C00007F01A3E0EA1AF108D701FC90B0E1BF15EB
:103C100028F1D601FC90B0E1BF1518F1DA01FC9053
:103C2000B0E1BF15F0F0F080BF15D8F0EDE5FFE092
:103C300080E090E00196DB01A80FB91F19962C9146
:103C4000219382339105B1F79093540F8093530FD2
:103C500083E080935C0F8093400F2CC7A4E1AF15E5
:103C600028F1D601FC90B4E1BF1500F1DA01FC9017
:103C7000B4E1BF15D8F0F080BF15C0F0EDE5FFE06E
:103C800080E090E00196DB01A80FB91F19962C91F6
:103C9000219382339105B1F79093540F8093530F82
:103CA00083E080935C0F1092400F04C70196319619
:103CB0004F5F5F4F6FEFC61AD60A8333910509F045
:103CC0007BCFC9018A5D91090597E8F52A3D310549
:103CD00031F02C3D310531F080E090E005C088E204
:103CE00090E002C08AE290E0FC01ED5AF04F42857C
:103CF0004252403270F546A94252403250F5DF013F
:103D0000AE59BF4F4C914252403218F51816190661
:103D100044F08CE290E09093540F8093530F86E42C
:103D2000C7C64DE55FE080E090E001969F01280F57
:103D3000391FD90119962C91DA012D93AD018C32DE
:103D4000910599F7E6CF243A310539F0263F310540
:103D500021F02C3EB1E03B0719F580915D0F8D38C5
:103D6000F8F080915E0F8232D8F08091AF0F8D38DD
:103D7000B8F08091B00F823298F0243A310541F4C6
:103D800082E590E09093540F8093530F8AE190C6A0
:103D9000809101108D3820F080910210823280F7DE
:103DA000283C310521F02C32E1E03E0769F4809196
:103DB0005D0F833448F08091C00F873828F08091E0
:103DC000C10F833408F06DC32A3C310541F020391E
:103DD000F1E03F0721F0223C41E03407C1F480913B
:103DE0005E0F8334A0F08091900F833480F0809137
:103DF000C20F833460F080915D0F813140F482E323
:103E000090E09093540F8093530F83E151C6C90102
:103E10008D7F883E9105B9F480915E0F833998F0CB
:103E20008091980F833978F08091D20F833958F0C0
:103E3000EFE5FFE0ADE5BFE081918D936FE0E939FB
:103E4000F607D1F7B5C2C90189579109833B91059E
:103E500030F5F901ED5AF04F8185893CD0F0DF0152
:103E6000D1979C919738A8F0EB56F109808187583B
:103E70008F3178F4963A68F4EDE5FFE0DF01A20FA8
:103E8000B31FDA978C9181937FE0E739F707B1F799
:103E90007FC12A3D3105D9F02C3D3105A1F02E3DE1
:103EA000310599F0283281E0380779F0223791E026
:103EB000390759F02C3BA1E03A0739F02F3FB1E028
:103EC0003B07F1F502C0E8E403C0EAE401C0E6E420
:103ED000F0E0ED5AF04F81858556873288F5DF0195
:103EE000AD5ABF4F8C918556873250F5A65BBF4FB8
:103EF0008C91853628F180918E0F843208F580915F
:103F0000900F8432E8F48091920F8432C8F480914B
:103F1000940F8432A8F4ADE5BFE080E090E0AF01FB
:103F200001969A01280F391FF90121852D938A34B2
:103F30009105B1F79093540F8093530F83E7B8C561
:103F4000C9018E5691400E9798F52037F1E03F0752
:103F500011F040E001C042E050E0BA0166587F4FE6
:103F6000FB01ED5AF04F818580548D3008F5FA0140
:103F7000ED5AF04FDF01A350BF4F8C9180548D302C
:103F8000B8F480E090E08A01085F1F4F4E5F5F4FFA
:103F9000DA01A80FB91F0A171B070CF439C5DF0196
:103FA000A80FB91F1B96AC91AA500196AB3080F3B5
:103FB000C901855091404D9770F5EEE5FFE042E074
:103FC00050E08191893C08F1DF01AF5BBF4F8C91DC
:103FD000893CD8F0AE5BBF4F8C91893CB0F0AE5BB2
:103FE000BF4F8C91893C88F0EDE5FFE080E090E0E8
:103FF0004D5A504F0196DA01A80FB91F19962C910E
:10400000219382349105B1F7A9C34F5F5F4F4534C7
:104010005105B9F633C0223241E0340721F02F3F79
:1040200061E03607E9F580915D0F833490F080916F
:104030005E0F833470F080915F0F833450F0809175
:10404000600F833430F08091610F873810F08FE17A
:104050002FC52F3F71E0370789F4EDE5FFE081E0E0
:1040600090E041914234E0F0473818F08530C0F0DC
:10407000EECF01968A319105A1F712C0223281E07C
:10408000380771F480911C108D3850F0EDE5FFE099
:104090008191893228F49FE0EA36F907C9F7C0C454
:1040A000C90189519140879750F4EEE5FFE0819175
:1040B000883158F4AFE0E237FA07C9F7B9C42439B8
:1040C000310551F12639310541F02A32B1E03B0783
:1040D00019F12C32E1E03E07B9F580915E0F873C83
:1040E000A0F08091900F873C80F080918F0F8331FA
:1040F00060F48091C20F873C40F084E390E090939D
:10410000540F8093530F8FE2D3C42439310521F02B
:104110002A32F1E03F07C1F480918D0F8331A0F482
:1041200080918E0F873C80F08091BF0F833160F4C7
:104130008091C00F873C40F08091F10F833120F4D3
:104140008091F20F873CC8F6233241E034070CF42B
:10415000B1C4C9018B5491408F9710F5C9018D5A94
:10416000904FFC01E957F1094081433480F1FA97FF
:104170008081873860F1EDE5FFE0DF01A20FB31F1A
:10418000AC5BB1098C9181936FE0E739F607A9F731
:104190008AE390E09093540F8093530F8CE088C48F
:1041A0002E3C71E0370721F02F3F81E0380779F48A
:1041B00080919E0F893C58F08091E00F893C38F047
:1041C00080912210893C18F082E490E0C7C22C3420
:1041D00091E0390769F02E38A1E03A0749F0203D17
:1041E000B1E03B0729F02F3FE1E03E0709F064C44E
:1041F0008091A00F833D58F08091E20F833D38F00D
:1042000080912410833D18F084E490E0A7C2223905
:10421000F1E03F0729F02F3F41E0340709F085C066
:104220008091A00F833D40F08091E40F833D20F00A
:1042300080912610833D40F72E3B61E03607D1F494
:104240009091A60F9C3708F416C18091F00F8C57FF
:10425000863108F010C180913A108C57863108F0F1
:104260000AC1923908F007C182E480935C0F8AE4A6
:1042700090E0A3C02F3F71E0370709F05BC0ACEAC4
:10428000BFE0E0E5F0E08D91833398F48451833012
:1042900028F03196E437F105B1F70BC0ED5AF04F35
:1042A00082858451833028F483858451833008F4D7
:1042B000C6C39091AE0F9232E8F080910010825206
:1042C0008031C0F4809152108252803198F4923340
:1042D00088F48091AD0F893068F4EFE5FFE08191BB
:1042E0008351863138F4BFE0E536FB07C1F782E53C
:1042F00090E0D9C380915E0F8C57863100F5909184
:10430000AA0F9C37E0F08091F60F8C578631B8F4F5
:10431000809142108C57863190F4923980F482E477
:1043200080935C0F8CE490E048C02E3BF1E03F07A7
:1043300009F486CF2D3CE1E03E070CF49CC080914F
:104340005E0F873898F09091980F973878F0909199
:10435000D20F973858F0EFE5FFE0ADE5BFE081916F
:104360008D932FE0E939F207D1F722C09091960F93
:10437000973840F09091D00F973820F090910A1024
:104380009738B0F44091600F4738E0F090919A0F61
:104390009738C0F09091D40F9738A0F0E1E6FFE095
:1043A000ADE5BFE081918D934FE0EB39F407D1F794
:1043B0008CE080935C0F8AE390E09093540F80939D
:1043C000530F78C32F3F61E0360709F054C0909136
:1043D0005D0F9D38A0F18334C0F050915F0F5532CE
:1043E000A0F05091B30F5D3880F05091B40F53346A
:1043F00060F05091B50F553240F085E590E0909314
:10440000540F8093530F89E153C39A39C0F09091B0
:10441000E10F9A39A8F1909165109A3988F18132AB
:1044200078F580915F0F813258F5413248F584E884
:1044300090E09093540F8093530F8BE139C39431E4
:10444000F8F4873AE8F08091E00F873AC8F080915D
:104450006210873AA8F080915F0F813188F48091D3
:10446000E10F813168F484E890E09093540F8093D9
:10447000530F8DE41DC32C3271E037070CF45AC280
:1044800060915D0F633440F08091C00F873820F059
:104490008091C10F833428F4EDE5FFE081E090E0E6
:1044A0000AC084E690E028C04081433440F401967D
:1044B0008836910539F141914738C8F3F5CF9C0111
:1044C0002D5A304FF901E359FF4F8081873808F4A6
:1044D000F1C231968081833408F4ECC2EDE5FFE04F
:1044E00080E090E0D901A80FB91F19964C91419333
:1044F000019684369105B1F79093540F8093530F32
:104500008BE0D6C22F3F81E0380709F067C1809168
:104510005E0F8F3698F08091A80F8F3678F08091DB
:10452000F20F8F3658F080913C108F3638F08CE4C3
:1045300090E09093540F8093530F31C0E6EAFFE070
:1045400080E090E041914F3660F1DF01A75BBF4F03
:104550004C914F3630F1009761F0A459B1094C915C
:104560004F3638F0EDE5FFE020E030E08D5A904F17
:1045700007C0DF01AD56BF4F4C914F3690F0F2CFE0
:104580002F5F3F4FDC01A20FB31F19964C9141934F
:104590002A343105A9F73093540F2093530F82E446
:1045A00087C201968A34910569F6EEE5FFE042E0A4
:1045B00050E081918532B8F1DF01AF58BF4F8C9147
:1045C000853288F1AE58BF4F8C91853260F1AE587C
:1045D000BF4F8C91853238F1A35EB1098C91843242
:1045E00010F511968C918432F0F411968C918432EE
:1045F000D0F411968C918432B0F4EDE5FFE080E0C8
:1046000090E04D5A504F0196DA01A80FB91F199644
:104610002C91219382379105B1F79093540F809399
:10462000530F81E945C24F5F5F4F4237510509F68D
:1046300080916A0F8D38C0F080912A108D38A0F0DB
:10464000EDE5FFE08191893278F49FE0EA36F907E1
:10465000C9F7EBE6FFE0ADE5BFE081918D9320E186
:10466000EB32F207D1F7DCC1EEE8FFE082E390E045
:10467000419146534C3008F045C08C010D5A104F03
:10468000D801DD964C91463310F470E00FC0AF01B5
:1046900049595F4FDA014C914633B8F3AF014556A3
:1046A0005F4FDA014C91463380F372E0D801DB961C
:1046B0004C91463398F0AF014D595F4FDA014C9160
:1046C000463360F0AF014B565F4FDA014C914633F1
:1046D00028F0EDE5FFE080E090E003C0772391F063
:1046E000F8CF01969801280F391FD90119962C91FE
:1046F000219384339105A9F79093540F8093530F1E
:1047000081E7D6C101968836910509F0B1CFEEE573
:10471000FFE042E050E08191893C30F1DF01AF5B86
:10472000BF4F8C91893C00F1AE5BBF4F8C91893CAF
:10473000D8F0AE5BBF4F8C91893CB0F0EDE5FFE067
:1047400080E090E04D5A504F0196DA01A80FB91F52
:1047500019962C91219382349105B1F79093540FBF
:104760008093530F87E0A4C14F5F5F4F45345105DD
:1047700091F6EEE5FFE082E090E04191473A48F1A2
:104780008C010D5A104FD8019D964C91473A08F173
:10479000AF01495B5F4FDA014C91473AD0F0849703
:1047A00041F484E290E09093540F8093530F8CE88F
:1047B0007FC1EDE5FFE080E090E001969801280FD1
:1047C000391FD90119962C91219384329105A9F7AB
:1047D000E8CF01968532910581F605C02139B1E017
:1047E0003B070CF4A7C06F3600F180915E0F8F3647
:1047F000E0F08091830F8F36C0F08091840F8F3668
:10480000A0F08091A90F8F3680F08091AA0F8F368B
:1048100060F080915F0F833540F486E290E09093E2
:10482000540F8093530F83EA43C12F3FE1E03E07CB
:1048300009F080C08091760F9CEA980F9A3140F47D
:104840009091900F943520F09091AA0F9435C0F577
:10485000875A813240F48091900F873A20F08091FE
:10486000AA0F873A28F44EE55FE082E090E015C099
:10487000E7E7FFE0ADE5BFE081918D932FE0E93AF6
:10488000F207D1F71DC0FC01ED5AF04F23A12435EA
:1048900050F401968C31910589F1DA012D91AD0129
:1048A0002435B8F3F0CF25AD243598F39D01235B73
:1048B0003F4FD9012C91243560F38285893118F05E
:1048C0008AE190E031C083858931D0F784858931D0
:1048D000B8F785858931A0F74DE55FE080E090E08D
:1048E00001969F01280F391FD90119962C91DA01E1
:1048F0002D93AD018A31910599F7E2CF8091860F12
:1049000084558A3150F48091B00F84558A3128F44F
:104910008091DA0F84558A3128F0EDE5FFE021E03F
:1049200030E013C08AE290E09093540F8093530FCD
:104930008EE8BEC02332314009F4BCC0EECF2F5FF9
:104940003F4F2233310509F459C08191823108F07B
:1049500055C08A30A0F381E090E0A9014D5A504F34
:1049600007C06A3060F401968233910509F446C0AD
:10497000FA01E80FF91F6185623198F33FC0280FF3
:1049800039EE380F3931D0F59927DC01A20FB11D6E
:10499000FD01E80FF91FED5AF04F0185AD5AB04FF8
:1049A00018961C911897708517966C9117973781F8
:1049B00019962C912A50273008F526EF200F273022
:1049C000E8F41930D8F47930C8F46930B8F43930E3
:1049D000A8F4EDE5FFE020E030E02F5F3F4FDA0183
:1049E000A20FB31F19966C91619328173907ACF386
:1049F0009093540F8093530F82E25AC082E291E069
:104A00009093540F8093530F84E452C081E05FC0B1
:104A10008BE480935C0F7093540F6093530F4AC0E4
:104A200080EC90E09093540F8093530F88E440C043
:104A30008091720F883108F448CB81E339C08485B6
:104A40008451833008F035CC85858451833008F05B
:104A500030CC86858451833008F02BCCDF01AD59F2
:104A6000BF4F8C918451833008F023CC11968C91E8
:104A70008451833008F01DCC11968C918451833081
:104A800008F017CC4DE55FE080E090E09F01280F33
:104A9000391FD90119962C91DA012D93AD01019698
:104AA0008A35910599F79093540F8093530F80E5C1
:104AB00080935C0F80E00BC02239E1E03E0709F4EF
:104AC000AFCB2E3B41E0340709F034CCB9CB29966B
:104AD0000FB6F894DEBF0FBECDBFDF91CF911F910F
:104AE0000F91FF90EF90DF90CF9008956F927F929B
:104AF0008F929F92AF92BF92CF92DF92EF92FF92EE
:104B00000F931F93CF93DF93CDB7DEB72C970FB6DC
:104B1000F894DEBF0FBECDBF4091530F5091540F9C
:104B200061EA640F4636510589F4E62FF0E0ED5A4C
:104B3000F04F81858B3150F083858A3138F485853B
:104B40008B3120F069E06624639401C0612C20E081
:104B500030E0712C80E090E0DC01812C912C54013C
:104B600070E08B010D5A104F7B01EFEFEE1AFE0A39
:104B7000F901E60FF71FE417F507DCF5F801E20F7E
:104B8000F31FD2840F2EFEEDCF2EF02DDC0C0F2E56
:104B9000FDE0CF2EF02DCD1440F46701C20ED31EE0
:104BA000C416D50614F480E044C2E185EB3168F008
:104BB000EFE0E71528F0880C991CAA1CBB1C0FC05D
:104BC000880F991FAA1FBB1F11C0EFE0CE2EC7147C
:104BD00040F0880C991CAA1CBB1C689480F8739444
:104BE00005C0880F991FAA1FBB1F81602E5F3F4F12
:104BF000BFCF21E0621204C0880F991FAA1FBB1FFC
:104C000081149104A104B10471F2B501A4013CE046
:104C100076956795579547953A95D1F74F704983A3
:104C2000493019F0463009F0BECFFF24EB2CDA2CC6
:104C3000C92C2C2D2F702A83B501A401E4E07695B0
:104C4000679557954795EA95D1F74F704B83282D77
:104C50002F702C83AC01BD01FCE1769567955795CB
:104C60004795FA95D1F74D832B2F2F702E83AC01EA
:104C7000BD0114E176956795579547951A95D1F73B
:104C80004F704F832A2F2F702887AC01BD010CE095
:104C900076956795579547950A95D1F74F7049874F
:104CA000292F2F702A87AC01BD0124E076956795E6
:104CB000579547952A95D1F74F704B87FE0131964E
:104CC0009E01245F3F4F40E05191450FE217F307EB
:104CD000D9F7242F2F70422F50E060E070E08F70E2
:104CE0009927AA27BB27481759076A077B0709F0A6
:104CF0005ACF1C2D1370822F90E0982F8827810F98
:104D0000911D6C01EE24D7FCE094FE2C90914A0F8B
:104D10008091490F98131DC080904F0F9090500FB5
:104D2000A090510FB090520F0F94E0218616970675
:104D3000A806B90670F080914B0F90914C0FA0918E
:104D40004D0FB0914E0F8C159D05AE05BF0509F4B2
:104D50005DC0C0924B0FD0924C0FE0924D0FF0927D
:104D60004E0F11115CC02F8188853AE0839FC001EE
:104D70001124E4E62E9F800D911D11242985820FB8
:104D8000911D2981293009F043C00CE211E0081778
:104D9000190708F040C09C01201B310B890168E70E
:104DA0007AE08DE495E10F943B268091321491E0F6
:104DB000980F909332140E94AA1B66EF75E18DE460
:104DC00095E10F94162662E0CE0103960E94551BD2
:104DD0001F930F938EEE96E09F938F9385EE93E152
:104DE0009F938F930F943C2C65EE73E18DE495E1D6
:104DF0000F9446260F900F900F900F900F900F90EA
:104E00001092550F1092540F1092530F81E011C160
:104E100000E911E0BCCF081B190B1068C0CF11309E
:104E200071F58F81088510E030E1839F000D111D21
:104E30001124C80101978F3F910511F008F0B3CEFE
:104E400068E77AE08DE495E10F943B268091321477
:104E500091E0980F909332140E94AA1B66EE75E1C0
:104E60008DE495E10F94162662E0CE0103960E9430
:104E7000551B11271F930F9381E693E0ADCF12309E
:104E800009F04EC0AF81B0E0BA2FAA27888590E123
:104E9000899FA00DB11D11248985A80FB11D26E0A1
:104EA00032E00F94F3294B015C0124E630E040E04E
:104EB00050E00F94AF2969017A01C501B40124EFD4
:104EC00031E040E050E00F94AF29633328F0EFEF7A
:104ED000CE1ADE0AEE0AFE0A68E77AE08DE495E172
:104EE0000F943B268091321491E0980F90933214E6
:104EF0000E94AA1B66ED75E18DE495E10F941626DC
:104F000062E0CE0103960E94551BD701C601AA2775
:104F1000BB27BF93AF939F938F938CE693E075C0AD
:104F200068E77AE08DE495E10F943B268091321496
:104F300091E0980F909332140E94AA1B66EC75E1E1
:104F40008DE495E10F94162662E0CE0103960E944F
:104F5000551B89858F701F928F9388E793E09F93ED
:104F60008F9305EE13E11F930F930F943C2CB80120
:104F70008DE495E10F943B268F81288530E09AE0FF
:104F8000899F200D311D112444E2429FC001439F9F
:104F9000900D11246AE070E00F9488290F900F9013
:104FA0000F900F900F900F908981893071F47F934B
:104FB0006F937F936F9388E893E09F938F931F93F2
:104FC0000F930F943C2CB8012AC08A8190E003E033
:104FD000959587950A95E1F7019729F46093210F3C
:104FE0007093220F04C06093230F7093240F80915D
:104FF000240F8F938091230F8F938091220F8F9393
:105000008091210F8F9388E893E09F938F9385EE93
:1050100093E19F938F930F943C2C65EE73E18DE4A5
:1050200095E10F9446260FB6F894DEBF0FBECDBFB4
:10503000E7CE2C960FB6F894DEBF0FBECDBFDF9142
:10504000CF911F910F91FF90EF90DF90CF90BF9085
:10505000AF909F908F907F906F9008952F923F9286
:105060004F925F926F927F928F929F92AF92BF9278
:10507000CF92DF92EF92FF920F931F93CF93DF9324
:10508000CDB7DEB72C970FB6F894DEBF0FBECDBFFD
:105090008091530F9091540FC29709F028C28091CC
:1050A0005C0F8F3309F423C2833109F420C280914D
:1050B000400F833031F41092400F45E08AE090E0D9
:1050C00003C040E080E190E020918D0F30E0821736
:1050D00093070CF40CC2EFE5FFE0A6E16A2E712CF9
:1050E00026E130E05191652F70E07A876987621779
:1050F000730734F0661677060CF43B013A8729876C
:105100007FE0EE38F70719F029853A85EBCF453077
:1051100009F47DC029853A852450310922303105B2
:1051200038F4B3016C5171096230710508F444E040
:1051300069857A85675071096230710538F4B30169
:105140006E5171096230710508F444E069857A8511
:10515000695071096230710568F4B30164527109D4
:105160006230710508F44CC06450710963307105F8
:1051700008F446C069857A856A5071096230710504
:1051800020F4B3016852710907C0E985FA853D979B
:1051900031F4B301605271096330710598F169858A
:1051A0007A856B5071096230710530F4B3016F512B
:1051B00071096730710540F169857A856C50710914
:1051C0006230710530F4B3016D52710962307105BE
:1051D000E8F02730310540F493012E523109243094
:1051E000310508F486C113C029853A85243031057C
:1051F00074F49301265131092230310540F47EC107
:1052000041E005C042E003C044E001C043E080311A
:10521000910569F4C30129853A85821B930B959505
:10522000879599278031910514F480E190E050E052
:105230002091600F622F70E07E836D837EE5472EA4
:105240007FE0572EE0E6FFE0FC87EB87AFE5BFE0AD
:105250008A011B821A821C82812C912C5401C12C40
:10526000D12C76011982212C312C2B853C852350A1
:105270003109F901608170E0681779070CF063C0AB
:10528000F201208130E0821793070CF05CC02C9172
:1052900030E028173907A4F4EB85FC85208130E045
:1052A000821793076CF4F694E794D794C79462E05E
:1052B000880C991CAA1CBB1C6A95D1F71160A9C067
:1052C0002C9130E08217930714F5EB85FC85208143
:1052D00030E028173907DCF4FA81FF5FFA83F6948F
:1052E000E794D794C79422E0880C991CAA1CBB1C95
:1052F0002A95D1F76894D3F8689481F82BE02216A8
:10530000310419F4F13009F484C0126082C02C9188
:1053100030E028173907BCF4EB85FC85208130E0AC
:105320002817390784F4F694E794D794C79472E069
:10533000880C991CAA1CBB1C7A95D1F7F3E08F2A24
:1053400021E02C8366C086179707D4F5F2012081EF
:1053500030E028173907A4F52C9130E08217930725
:105360007CF5EB85FC85208130E02817390744F572
:10537000FB81FF5FFB83F694E794D794C79432E0F8
:10538000880C991CAA1CBB1C3A95D1F72BE022165D
:10539000310439F4F13029F46894D3F8689481F831
:1053A00038C0689480F81460053099F13BE023160A
:1053B000310479F1033009F006E06894D3F829C08C
:1053C0002114310419F5E2E0880C991CAA1CBB1CBD
:1053D000EA95D1F786179707ACF4F201208130E007
:1053E000821793077CF42C9130E02817390754F486
:1053F0002D813E81821793072CF4F694E794D7947D
:10540000C79407C0186031E0398303C0186061E0B9
:1054100069837FEF271A370A1496E4E04E0E511C79
:105420002B853C852C5F3F4F3C872B873CE0231628
:10543000310409F01ACF6981611106C0812F8B7F79
:105440008330B1F01530A1F0511151C0443009F052
:105450004EC089859A850797029708F048C07EE17B
:10546000671A710882E06816710408F040C096C09F
:1054700090914A0F8091490F981345C020904F0F8B
:105480003090500F4090510F5090520F94EF290ED2
:1054900091E0391E411C511C0F94E021261637065D
:1054A0004806590680F120904F0F3090500F4090E1
:1054B000510F5090520FE8EE2E0EE3E03E1E411CBD
:1054C000511C0F94E021621573058405950508F0C1
:1054D00065C080914B0F90914C0FA0914D0FB091F2
:1054E0004E0F88159905AA05BB0569F457C080E0E1
:1054F000D8C243E057E084E190E09ACE45E050E026
:105500008AE090E095CE1730A9F420904F0F3090AC
:10551000500F4090510F5090520FF8EE2F0EF3E0C5
:105520003F1E411C511C0F94E02162157305840538
:10553000950528F08091490F8C30A9F416C0809110
:105540004B0F90914C0FA0914D0FB0914E0F8815BD
:105550009905AA05BB0571F390914A0F8091490FF7
:105560009813E8CF1BC08F30D9F420904F0F3090A4
:10557000500F4090510F5090520F20ED220E27E017
:10558000321E411C511C0F94E021621573058405E5
:10559000950530F48091490F80934A0F81E081C2D4
:1055A00080924B0F90924C0FA0924D0FB0924E0FE5
:1055B000173009F43EC1153009F04DC0053019F51A
:1055C000C114D104E104F10409F045C0D501C401BE
:1055D0002CE0CC0CDD1CEE1CFF1CAC01BD014370AB
:1055E000552766277727452B462B472B11F06894C4
:1055F000C0F832E0B695A795979587953A95D1F77B
:10560000215039F74FC0033031F52C2D20952F70E4
:10561000D701C601807F9927AA27BB2714E0B6953A
:10562000A795979587951A95D1F780958F70CD2C72
:10563000DE2CEF2CFF2433E0C322DD24EE24FF24F4
:105640005524539442E0C416D104E104F10409F452
:105650009EC0512C9CC0D701C60187789770AA279D
:10566000BB2781159740A105B10531F4C30181978E
:105670000297B0F401E091C0D701C6018827977066
:10568000AA27BB2781159640A105B10549F0043032
:1056900031F129853A85273031050CF0C8C01FC08B
:1056A0000630B9F4D701C601817F9E70AA27BB27B7
:1056B000892B8A2B8B2B09F01ACF2C2D2E70269537
:1056C000209527702F5B3D2D3170532E06E030E082
:1056D000B5C0053009F4A1C1043009F051C0D701AB
:1056E000C60175E0B695A795979587957A95D1F7F8
:1056F000382F3F712C2D20952F712F5B3B3179F086
:1057000030F43F3071F0373169F434E00BC03D3193
:1057100021F03E3139F431E005C032E003C033E01E
:1057200001C035E0D701C6015BE0B695A795979516
:1057300087955A95D1F7682F6170562E6AE0F694D6
:10574000E794D794C7946A95D1F773E0C722DD2414
:10575000EE24FF2483E0C816D104E104F10409F02B
:105760006CC089859A850797029708F066C09EE10C
:10577000691A7108E2E06E16710408F05EC00ECF7F
:10578000153059F4033049F4512C80E020E02F5BB0
:1057900031E0380F03E015E051C0D701C60188277A
:1057A0009770AA27BB2781159640A105B105A1F0E6
:1057B0002C2D2F702F5BD701C601807F9927AA2738
:1057C000BB2744E0B695A795979587954A95D1F75D
:1057D00031E0380F01E01EC0D701C601882796705E
:1057E000AA27BB2781159640A105B10509F07FCEF8
:1057F0002C2D2F702F5BD701C601807F9927AA27F8
:10580000BB2734E0B695A795979587953A95D1F73C
:1058100031E0380FD701C601FBE0B695A795979503
:105820008795FA95D1F7482F4170542E07C004E0B0
:1058300017E030E020E0512C01C004E062EC75E19B
:105840008DE495E12F8338870F94162680913214CA
:1058500091E0980F909332140E94AA1B2F813885F3
:105860001330E1F4043028F46BEB75E18DE495E13D
:105870000DC0043019F462EB75E104C0053059F431
:1058800069EA75E18DE495E12F8338870F94162638
:105890002F813885EBC06FE975E1F4CF153069F4DD
:1058A000053019F466E975E1EDCF033019F46CE8C1
:1058B00075E1E8CF63E875E1E5CF173009F0D6C0B0
:1058C00068E775E18DE495E10F941626053019F42B
:1058D0006894B3F804C0033011F46894B2F8D501A9
:1058E000C40124E0B695A795979587952A95D1F799
:1058F000BB27BF93AF939F938F9389EE92E09F93C3
:105900008F9385EE93E19F938F930F943C2C65EEDC
:1059100073E18DE495E10F943B26982D93700FB6BB
:10592000F894DEBF0FBECDBFB501A401E2E07695CD
:10593000679557954795EA95D1F78DEF800F82309F
:1059400018F4342F33700BC0242F23708426382D85
:1059500030953370913011F0213009F43860592EB0
:10596000992311F055245394053031F433FD04C0CC
:105970005094752D7170572E1F923F938FE993E0CD
:105980009F938F9385EE93E19F938F930F943C2C7D
:1059900065EE73E18DE495E10F943B2663E775E1D5
:1059A0008DE495E10F9416260F900F900F900F90B5
:1059B0000F900F902C81213031F46FE675E18DE46A
:1059C00095E10F94162631E053120CC0173039F4CC
:1059D00080912514882319F06AE675E10EC066E609
:1059E00075E10BC0173039F480912514882319F024
:1059F00062E675E102C06DE575E18DE495E10F9415
:105A000016268DE495E10F94432681E08093550F8F
:105A10001092540F1092530F44C0D701C601807FDB
:105A20009370AA27BB27E4E0B695A795979587952D
:105A3000EA95D1F72C2D20952F702F5B382F3095BC
:105A40003F71FAE0F694E794D794C794FA95D1F7AA
:105A500043E0C422DD24EE24FF2455245394CA9449
:105A6000CD28CE28CF2809F0E6CEE8CE1F922F937E
:105A70008AEA93E09F938F9385EE93E19F938F93B0
:105A800038870F943C2C65EE73E18DE495E10F941B
:105A90003B260F900F900F900F900F900F9038852E
:105AA0006BCF2C960FB6F894DEBF0FBECDBFDF9143
:105AB000CF911F910F91FF90EF90DF90CF90BF900B
:105AC000AF909F908F907F906F905F904F903F909E
:105AD0002F9008954F925F926F927F92AF92BF92F4
