:100000000C94790A0C94AA0A0C94AA0A0C94AA0AD1
:100010000C94AA0A0C94AA0A0C94AA0A0C94AA0A90
:100020000C94AA0A0C94AA0A0C94AA0A0C94AA0A80
:100030000C94AA0A0C94AA0A0C94AA0A0C94AA0A70
:100040000C94AA0A0C94AA0A0C94AA0A0C94AA0A60
:100050000C94AA0A0C94AA0A0C94AA0A0D94C30739
:100060000C94AA0A0D94250B0D945B0B0C94AA0A10
:100070000C94AA0A0C94AA0A0C94AA0A0C94AA0A30
:100080000C94AA0A0C94AA0A0C94AA0A0C94AA0A20
:100090000C94AA0A0C94AA0A0C94AA0A0C94AA0A10
:1000A0000C94AA0A0C94AA0A0C94AA0A0C94AA0A00
:1000B0000C94AA0A0C94AA0A0C94AA0A0C94AA0AF0
:1000C0000C94AA0A0C94AA0A0C94AA0A0C94AA0AE0
:1000D0000C94AA0A0C94AA0A0C94AA0A0C94AA0AD0
:1000E0000C94AA0AB6009A009C0088009800900020
:1000F000AE008A009400B200B000A400AC00A800DA
:100100009000B8009E0096000D94E3090D94400AFB
:100110000D9401090D9416090D94DD0B0D948D0BB2
:100120000D9445090D94C1090D941C090D944009C5
:100130000D9407090D940E090D94FD080D943C09CA
:100140000D94B4090D94CF090D942A090D94840BD4
:100150000D9432090D94610A0D942E090D94120923
:100160000D9424090D9420090D94B6090D940B09E2
:100170000D943809444953434F2D3B0044495343A0
:100180004F2B3B004D4F444500434F4C4F523B00DB
:100190004252494748543B004F46463B004F4E3B76
:1001A00000414C4C00434D443D003B4D694C696758
:1001B000687476313B49443D0042797465733D0073
:1001C0003B4D694C696768742044454255473B0084
:1001D0003B50756C7365732875536563293D003B0F
:1001E00044454255473B50756C7365733D00323052
:1001F0003B003B50756C7365732875536563293DEF
:10020000003B44454255473B50756C7365733D0058
:1002100032303B003B536C6176653B4465627567E9
:100220003D0032303B003B536C6176653B00323021
:100230003B003B536C6176653B44656275673D00EE
:1002400032303B003B536C6176653B0032303B0003
:1002500032303B00534D4F4B45414C4552543D4F7E
:100260004E3B005357495443483D30313B434D4486
:100270003D4F4E3B003B416C6563746F53413B0007
:1002800032303B00474F444F574E3B00474F55508D
:100290003B0053544F503B004F4E3B004F46463BB4
:1002A00000444F574E3B0055503B00434D443D00EA
:1002B0005357495443483D30313B003B4D657274C0
:1002C000696B3B0032303B00534D4F4B45414C4531
:1002D00052543D4F4E3B005357495443483D3031F3
:1002E0003B434D443D4F4E3B003B4641323052462E
:1002F0003B0032303B004348494D453D30313B00E7
:100300005357495443483D313B434D443D4F4E3B89
:10031000003B446F6F7262656C6C3B0032303B0097
:100320004348494D453D30313B00535749544348BC
:100330003D313B434D443D4F4E3B003B467269656A
:10034000646C616E643B0032303B004348494D456C
:100350003D30313B005357495443483D313B434DB9
:10036000443D4F4E3B003B446F6F7262656C6C3B8B
:100370000032303B004348494D453D30313B00534E
:1003800057495443483D313B434D443D4F4E3B005C
:100390003B456C726F44423B0032303B004348495E
:1003A0004D453D30313B005357495443483D313B67
:1003B000434D443D4F4E3B003B446F6F7262656C52
:1003C0006C3B0032303B004348494D453D30313BAA
:1003D000005357495443483D313B434D443D4F4EF4
:1003E0003B003B53696C766572637265737444427B
:1003F0003B0032303B004348494D453D30313B00E6
:100400005357495443483D313B434D443D4F4E3B88
:10041000003B4279726F6E204D503B0032303B0002
:100420004348494D453D30313B00535749544348BB
:100430003D313B434D443D4F4E3B003B44656C7466
:10044000726F6E69633B0032303B003B4279726FE2
:100450006E3B0032303B005357495443483D313BDB
:10046000434D443D4F4E3B003B506C6965676572A0
:100470003B0032303B00434D443D4F4E3B434849E7
:100480004D453D30313B003B53656C656374506CAA
:1004900075733B0032303B00434D443D4F4E3B00B3
:1004A000434D443D4F46463B005357495443483D16
:1004B00030313B003B44697465633B0032303B00A4
:1004C000434D443D4F4E3B005357495443483D3004
:1004D000313B003B46726965646C616E643B00327F
:1004E000303B004F46463B004F4E3B00434D443DA2
:1004F000005357495443483D30313B003B4C6F62F9
:1005000065636F3B0032303B00434D443D4F4E3BF3
:10051000005357495443483D30313B003B4D433134
:1005200034353032363B0032303B004F4E004F4EB8
:10053000004F4E004F4E004F4E004F4646004F4674
:1005400046004F4E004F4646004F4E003B53574922
:100550005443483D30313B434D443D003B41746C76
:10056000616E7469633B49443D0032303B00424157
:10057000543D4C4F573B004241543D4F4B3B004391
:100580004D443D4F4E3B00434D443D4F46463B009E
:100590003B4B65656C6F713B49443D0032303B001D
:1005A000434D443D4F4E3B003B5831303B003230D1
:1005B0003B00434D443D4F4E3B00434D443D4F4671
:1005C000463B005357495443483D30323B003B4380
:1005D0006875616E676F3B0032303B00434D443DB0
:1005E0004F4E3B003B4556313532373B0032303BB6
:1005F00000434D443D4F4E3B005357495443483D03
:1006000030313B003B48543132453B0032303B00F7
:100610003B42616C64723B003B4C6163726F73736D
:100620006556343B0032303B003B41637572697460
:100630006556333B0032303B003B496E6F56616C70
:100640006C65795F534D3230303B0032303B003BBC
:10065000416C6563746F5F313330305F536F696C29
:100660003B0032303B003B416C6563746F5F31335C
:1006700030305F4169723B0032303B003B574833BA
:100680003B0032303B004241543D4C4F573B00420F
:1006900041543D4F4B3B003B416375726974655655
:1006A000323B0032303B004241543D4C4F573B00FF
:1006B0004241543D4F4B3B003B4163757269746549
:1006C0003B0032303B003B46696E654F66667365A2
:1006D00074323B0032303B004241543D4C4F573B5B
:1006E000004241543D4F4B3B003B57483530323977
:1006F0003B0032303B003B436F6E7261643B003223
:10070000303B003B42696C74656D613B49443D3050
:1007100030003B52465831304D455445523B003233
:10072000303B003B4F7265676F6E20574752383041
:10073000303B44454255473D003B4F7265676F6E05
:1007400020434D3138303B49443D3030003B4F72FF
:1007500065676F6E20434D3131393B49443D303040
:10076000003B4F7265676F6E20434D3136303B4919
:10077000443D3030003B4F7265676F6E20434D3112
:1007800033303B49443D3030003B4F7265676F6EFC
:1007900020434D3131333B49443D004241543D4FAC
:1007A0004B3B004241543D4C4F573B003B4F726521
:1007B000676F6E2055564E3830303B49443D0042FD
:1007C00041543D4F4B3B004241543D4C4F573B0041
:1007D0003B4F7265676F6E2055564E3178383B49F6
:1007E000443D004241543D4F4B3B004241543D4C3F
:1007F0004F573B003B4F7265676F6E2057696E64C1
:10080000323B49443D004241543D4F4B3B00424145
:10081000543D4C4F573B003B4F7265676F6E2057FE
:10082000696E643B49443D004241543D4C4F573B47
:10083000004241543D4F4B3B003B4F7265676F6E2A
:10084000205261696E323B49443D004241543D4F64
:100850004B3B004241543D4C4F573B003B4F726570
:10086000676F6E205261696E3B49443D00424154BE
:100870003D4C4F573B004241543D4F4B3B003B4F9B
:100880007265676F6E204254483B49443D004241C7
:10089000543D4C4F573B004241543D4F4B3B003B76
:1008A0004F7265676F6E2054656D70487967726F1F
:1008B0003B49443D004241543D4C4F573B0042416F
:1008C000543D4F4B3B003B4F7265676F6E20546544
:1008D0006D703B49443D004241543D4F4B3B00420B
:1008E00041543D4C4F573B003B4F7265676F6E560E
:1008F000313B49443D3030003B42696F77696E3B84
:100900000032303B004241543D4F4B3B004241548A
:100910003D4C4F573B003B54756E65783B49443D19
:10092000003B5869726F6E3B49443D003B41757214
:10093000696F6C2056323B49443D004241543D4F63
:100940004B3B004241543D4C4F573B003B4175727D
:10095000696F6C3B49443D3030003B417572696FB3
:100960006C2056333B49443D003B4C6143726F73EE
:1009700073653B49443D0032303B003B4C61437260
:100980006F7373653B49443D0032303B003B55502B
:100990004D5F457369632046323B49443D00424107
:1009A000543D4F4B3B004241543D4C4F573B003B65
:1009B00055504D5F457369633B49443D003B4C6175
:1009C00043726F73736556333B49443D0032303B8D
:1009D000003B4C6143726F73736556333B49443D32
:1009E0000032303B003B4C6143726F73736556338A
:1009F0003B49443D0032303B003B4C6143726F73D6
:100A0000736556333B49443D0032303B003B4C61FB
:100A100043726F73736556333B49443D0032303B3C
:100A2000003B4C6143726F73736556333B49443DE1
:100A30000032303B003B4D656275733B0032303B0A
:100A4000004241543D4F4B3B004241543D4C4F57B7
:100A50003B003B496E6F56616C6C65793B003230F0
:100A60003B003B4B726970706C3B0032303B004284
:100A700041543D4F4B3B004241543D4C4F573B008E
:100A80003B50726F6C6F6775653B0032303B003BCB
:100A90004575726F6368726F6E3B0032303B003B8E
:100AA0005754303132323B0032303B003B003B4345
:100AB00072657374613B44454255473B49443D0070
:100AC0004241543D4C4F573B004241543D4F4B3BFC
:100AD000003B4372657374613B49443D004241549D
:100AE0003D4C4F573B004241543D4F4B3B003B4335
:100AF00072657374613B49443D004241543D4C4F23
:100B0000573B004241543D4F4B3B003B43726573A2
:100B100074613B49443D004241543D4C4F573B00BA
:100B20004241543D4F4B3B003B4372657374613B04
:100B300049443D004241543D4C4F573B00424154D3
:100B40003D4F4B3B003B4372657374613B49443DF1
:100B5000003B416C6563746F2056353B0032303B7F
:100B6000004241543D4C4F573B004241543D4F4B96
:100B70003B003B506F6C6C696E3B003B476C6F6297
:100B8000616C54726F6E6963733B003B416C6563CB
:100B9000746F2056343B0032303B003B416C656340
:100BA000746F56333B003B58543230303B003B4669
:100BB000696E654F66667365743B003B496D61679E
:100BC000696E74726F6E69783B0032303B00416C25
:100BD0006563746F2056313B00416C6563746F2010
:100BE00056313B00416C6563746F2056313B0042C7
:100BF00041543D4C4F573B004241543D4F4B3B000D
:100C00003B416C6563746F2056313B0032303B00D2
:100C10004241543D4C4F573B004241543D4F4B3BAA
:100C2000003B463030375F783B003B463030375F23
:100C3000545F50463B003B463030375F54483B00E2
:100C400032303B00434D443D4F4E3B0053574954D7
:100C500043483D003B4854365032303B0032303B35
:100C6000004F46463B004F4E3B00434D443D003B4A
:100C700054523030393B0032303B0053544F503BDC
:100C800000444F574E3B0055503B00434D443D0000
:100C90003B4761706F73613B0032303B003B474123
:100CA000504F53413B44454255473D0032303B0095
:100CB0003B5265766F6C743B0032303B004F4646CA
:100CC0003B004F4E3B00434D443D003B48616C654B
:100CD0006D656965723B0032303B0032303B004F3E
:100CE0004E3B004F46463B00434D443D003B4E6F5C
:100CF00076617479733B0032303B004F46463B00CF
:100D000053544F503B004F4E3B00414C4C00434D21
:100D1000443D003B466F726573743B49443D00326D
:100D2000303B004F4E3B00434D443D003B4C697609
:100D30006F6C6F3B0032303B0053544F503B0050C0
:100D40004149523B0053544F503B0055503B0044E7
:100D50004F574E3B00434D443D003B4B696E67701F
:100D6000696E3B0032303B004F46463B004F4E3BE6
:100D700000414C4C00434D443D003B4B6F63683B8E
:100D80000032303B0053544F503B004F4E3B00531A
:100D9000544F503B00444F574E3B0055503B00537F
:100DA000544F503B00444F574E3B0055503B00437F
:100DB0004D443D005357495443483D30313B003B7F
:100DC0005254533B0032303B0032303B0053544FBF
:100DD000503B004F4E3B0053544F503B00444F5745
:100DE0004E3B0055503B0053544F503B00444F572F
:100DF0004E3B0055503B00434D443D005357495432
:100E000043483D30313B003B5254533B0032303B72
:100E10000032303B0053544F503B004F4E3B005389
:100E2000544F503B00444F574E3B0055503B0053EE
:100E3000544F503B00444F574E3B0055503B0043EE
:100E40004D443D005357495443483D30313B003BEE
:100E50005254533B0032303B0032303B004C4F5732
:100E60003B004F4B3B004241543D004F4E3B004F37
:100E700046463B00414C4C00434D443D003B4675CB
:100E80006E6B6275733B0032303B0053544F503BE6
:100E900000444F574E3B0055503B00434D443D00EE
:100EA0003B446F6F79613B0032303B0053544F50ED
:100EB0003B004C4F434B3B0053544F503B00444F7F
:100EC000574E3B0055503B00434D443D003B427262
:100ED000656C4D6F746F723B0032303B004C494D76
:100EE00049543B00434F4E4649524D3B0053544FEB
:100EF000503B00444F574E3B0055503B00434D4440
:100F00003D003B426F66754D6F746F723B0032302F
:100F10003B004F46463B004F4E3B00414C4C00438C
:100F20004D443D003B53696C766572437265737442
:100F30003B0032303B005357495443483D30303B2F
:100F40000032303B004F46463B004F4E3B00434D86
:100F5000443D003B523534363B0032303B004F4E6F
:100F60003B004F46463B00434D443D003B5831302B
:100F70005365637572653B0032303B004F46463B1C
:100F800000414C4C4F46463B004F46463B004F4EBF
:100F90003B0053544F503B004F4E3B004F46463BA7
:100FA00000414C4C4F46463B004F4E3B004F46469F
:100FB0003B00434D443D003B4C6967687477617664
:100FC000653B0032303B004F4E3B004F46463B00F6
:100FD0004F4E3B004F46463B00414C4C00434D4476
:100FE0003D003B556E697465633B49443D3030318B
:100FF0003233343B0032303B004F46463B004F4ECD
:101000003B00414C4C00434D443D003B4575726FE5
:1010100070653B0032303B004252494748543B0028
:1010200044494D3B004F4E3B004F46463B00434D2D
:10103000443D005357495443483D30313B003B4108
:10104000737465723B0032303B004F4E3B004F469D
:10105000463B00414C4C00434D443D003B4D6163D9
:101060006C65616E3B0032303B004F4E3B004F469B
:10107000463B00414C4C00434D443D0032303B0068
:101080004F4E3B004F46463B00434D443D003B49DD
:101090006B6561204B6F70706C613B0032303B00C0
:1010A000414C4C4F4E3B00414C4C4F46463B00445C
:1010B000494D3B004252494748543B004F4E3B008C
:1010C0004F46463B00434D443D003B506F776572B1
:1010D0006669783B0032303B004F46463B004F4E3E
:1010E0003B00434D443D003B46413530303B0032F0
:1010F000303B003B486F6D65436F6E666F72743BAB
:101100000032303B004F4E3B004F46463B00414CC7
:101110004C00434D443D003B486F6D65436F6E6628
:101120006F72743B0032303B00434F4C4F522047AC
:101130005245454E3B00434F4C4F522059454C4C75
:101140004F573B00434F4C4F5220424C55453B00BC
:10115000434F4C4F52205245443B00434F4C4F525B
:101160004D495820444F574E3B00434F4C4F524D32
:1011700049582055503B0044494D2055503B0044B0
:10118000494D20444F574E3B004F46463B00434D90
:10119000443D003B54524330325247423B003230D0
:1011A0003B00414C4C4F4E3B00414C4C4F46463B64
:1011B0000044494D3B004252494748543B004F4E82
:1011C0003B004F46463B00434D443D003B583130C9
:1011D0003B0032303B004F4E3B004F46463B004306
:1011E0004D443D003B4B616D62726F6F6B3B003253
:1011F000303B004F46463B004F4E3B00414C4C00BD
:10120000434D443D003B436F6E7261643B0032309E
:101210003B00414C4C4F46463B00414C4C4F4E3BF3
:10122000004F46463B004F4E3B00434D443D003B84
:101230004176696473656E3B003B426C7973733B26
:101240000032303B004F4E3B004F46463B004F467E
:10125000463B004F4E3B004F4E3B004F46463B0047
:10126000414C4C00434D443D003B4575726F646FEB
:101270006D6573743B0032303B00414C4C4F4E3B2C
:1012800000414C4C4F46463B004F4E3B004F4646BC
:101290003B00434D443D003B4E65774B616B753BD6
:1012A0000032303B004F46463B004F4E3B004F4E16
:1012B0003B004F46463B00414C4C00434D443D00F3
:1012C0003B54726953746174653B003B5054323235
:1012D00036323B003B5068696C6970733B003B4998
:1012E0006D70756C733B003B53617274616E6F3B44
:1012F000003B496D70756C733B003B4142343030AC
:10130000443B003B4B616B753B0032303B003B4C38
:101310006143726F73736556323B49443D003B4CE9
:101320006143726F73736556323B49443D003B4CD9
:101330006143726F73736556323B49443D003B4CC9
:101340006143726F73736556323B49443D003B50B5
:10135000756C7365732875536563293D003B44457F
:101360004255473B50756C7365733D0032303B000E
:10137000536C6176653B44656275673D00536C61F3
:1013800076653B0032303B30303B4E6F646F20520D
:101390006164696F4672657175656E63794C696EDB
:1013A0006B202D2052464C696E6B20476174657727
:1013B00061792056312E31202D2000111213141581
:1013C000160A0B0C0D0E0F00010203040500000AA3
:1013D0000B02090C0D0E08070304010000000000B9
:1013E00000000000000000000000000000000000FD
:1013F00000000000000000000012111000000000BA
:1014000000000000000000000000000000000000DC
:101410000000000102102020080810204010204089
:1014200080020102010804020101020408102040A8
:1014300080804020100804020180040201804020C6
:1014400010080402010804020101020408102040EF
:1014500080010204081020408005050505070508E5
:10146000080808020202020A0A0808040404040127
:101470000101010101010103030303030303030449
:101480000707070C0C0C0C0C0C0C0C0202020206D9
:10149000060606060606060B0B0B0B0B0B0B0B00CA
:1014A0000020002300260029002C002F003200001D
:1014B00001000003010601090100002200250028A7
:1014C000002B002E0031003400020100000501084D
:1014D000010B0100002100240027002A002D00300C
:1014E00000330001010000040107010A0100CBFDE7
:1014F0008E0011241FBECFEFD1E2DEBFCDBF00E0D2
:101500000CBF1CE0A0E0B2E0ECE3FAE202E00BBFAB
:1015100002C007900D92AA35B107D9F723E1AAE5D9
:10152000BCE001C01D92AD37B207E1F714E1C2EF94
:10153000D4E100E006C022970109FE010BBF0F9421
:101540006610CE3ED10780E00807A9F70F94D10BB3
:101550000D941C150C940000FC0171836083168AA5
:101560000895FF920F931F93CF93DF931F921F92C3
:10157000CDB7DEB78C01DC0159968C91599791E07B
:10158000892759968C9359975696FC905697F11047
:1015900059C00D90BC91A02DED91FC911197008840
:1015A000F189E02D882319F040E069E002C041E0B4
:1015B00064E0CD011995882309F442C088E090E0E9
:1015C0009A838983F80180819181DC01ED91FC91FE
:1015D0000288F389E02DAE014F5F5F4FB8016A5F6B
:1015E0007F4F199597FD2EC049815A8141155105AC
:1015F00049F1F801268130E02F5F3F4F4217530732
:1016000009F5418550E0542F44278585482B6627EE
:1016100057FD6095762F82819381A481B58148170B
:1016200059076A077B0731F48789908D0196908F5F
:10163000878B06C0428353836483758381E0868BE6
:10164000F801F6888F2D0F900F90DF91CF911F91A9
:101650000F91FF900895CF93DF93EC0188819981DA
:10166000DC01ED91FC910190F081E02D199597FD41
:1016700043C088819981DC01ED91FC910284F3855E
:10168000E02D61E0199597FD37C088819981DC01D3
:10169000ED91FC910280F381E02D63E0199597FDB7
:1016A0002BC088819981DC01ED91FC910680F78146
:1016B000E02D64E0199597FD1FC088819981DC01B8
:1016C000ED91FC910480F581E02D4AEA55E56AE050
:1016D00075E0199597FD10C088819981DC01ED9125
:1016E000FC910084F185E02D68E0199597FD04C018
:1016F000CE0137DF80E090E0DF91CF910895CF9366
:10170000DF93EC01CB01FA012E89211105C0118272
:1017100010828FEF9FEF1CC020813181283031056E
:1017200020F027E030E0318320832E8130E04081BB
:1017300051812417350710F431832083BE01695F7E
:101740007F4F408151810F94D1111E8A8E8190E08C
:10175000DF91CF910895DF92EF92FF920F931F9345
:10176000CF93DF93EC018F859E01225F3F4F79017C
:1017700090E1D92E8A3509F445C003EA12E0888148
:101780009981DC01ED91FC914E8550E04F5F5F4FF8
:101790000484F585E02DB701199588819981F801B8
:1017A00061918F01DC01ED91FC910684F785E02DBC
:1017B00040E01995B2E0063A1B0709F7DA94E9F61A
:1017C00024C088819981DC01ED91FC914E8550E027
:1017D0004F5F5F4F0484F585E02DB701199588812F
:1017E0009981F80161918F01DC01ED91FC910684F2
:1017F000F785E02D41E01995B2E0033A1B0709F7A0
:10180000DA9419F000EA12E0DCCF80E090E0DF919A
:10181000CF911F910F91FF90EF90DF9008950F935C
:101820001F93CF93DF938C01EA014830510558F4A0
:101830000F960F94D111F801C687C8018CDF97FD70
:1018400004C0CE0102C08FEF9FEFDF91CF911F91B7
:101850000F910895693028F4FC01658380E090E0E1
:1018600008958FEF9FEF0895FC0184E082877783CE
:1018700066835187408780E090E008952CEF260F23
:101880002F3038F460FD05C0FC01638780E090E0F4
:1018900008958FEF9FEF0895FC01648380E090E04E
:1018A0000895FC01680F791F80E090E0E617F707C4
:1018B000A9F0419128E030E050E0DA01A827B927EB
:1018C00096958795A0FF04C0A8E08A27A4E89A27E8
:1018D000559547952150310979F7E8CF08950F9331
:1018E0001F93CF93DF938C01EA014132510510F031
:1018F000C0E2D0E0AE01C80147960F94D111F801C3
:10190000C48B17AACE01DF91CF911F910F9108953B
:10191000EF92FF920F931F93CF93DF93EC01CB01D4
:101920008A012C8930E0FA01408151812417350762
:1019300010F4318320837E01F7E1EF0EF11CF801F2
:1019400040815181B7010F94D1114C89F8018081F8
:10195000481B4C8B442351F050E060817181695EDB
:101960007F4F6C0F7D1FC7010F94DA118C8990E0B7
:10197000DF91CF911F910F91FF90EF900895FC019F
:101980008AEA92E0918380837383628381E0858316
:10199000178216821186108684E08287838788E00A
:1019A00084871586148A158A168A17AA08959F9225
:1019B000AF92BF92CF92DF92EF92FF920F931F935D
:1019C000CF93DF93EC01ED80F12C81E0E81AF10870
:1019D0008A85E80EF11C86E0E816F10434F0C701B0
:1019E000059735E0E32EF12C02C080E090E00B85F6
:1019F00010E0095F1F4F23E0159507952A95E1F741
:101A0000080F191F8C85080F111D8C81882311F078
:101A10000E5F1F4F0132110508F093C083E0E816F6
:101A2000F1040CF48EC08E8180FF03C085E5982EF2
:101A300002C01AEA912E6701A12CB12C2D8130E051
:101A400021503109A216B30674F481E0C81AD108F6
:101A5000892D0E943287FE01EC0DFD1D86878FEFD8
:101A6000A81AB80AEBCFC114D10419F4C12CD12C97
:101A700016C08E810E943287960121503109FE01E5
:101A8000E20FF31F8687232B89F382E0C81AD1085F
:101A90008F810E943287FE01EC0DFD1D86878A85AD
:101AA0008430B1F4C114D10499F088850E94328742
:101AB000960121503109FE01E20FF31F8687232B87
:101AC00039F089850E943287FE01EC0DFD1D848767
:101AD0000D8B9E8AEB8A6E2D8A819B810F9449061D
:101AE0007E018EE0E80EF11CB7018A819B810F9484
:101AF0003206A70161E08A819B810F945A066D85A9
:101B00006E5F8A819B810F948505602F8A819B81FE
:101B10000F948B0560E08A819B810F94FE0663E041
:101B20008A819B810F94050760E070E08A819B8128
:101B30000F941C078A819B810F94B70780E090E087
:101B400002C08FEF9FEFDF91CF911F910F91FF9018
:101B5000EF90DF90CF90BF90AF909F900895CF937C
:101B6000DF93EC018A819B810F945B078A819B81C3
:101B70000F94FB06882321F0CE01DF91CF9117CF80
:101B80008FEF9FEFDF91CF910895FC0164870FCF16
:101B90002F923F924F925F926F927F928F929F927D
:101BA000AF92BF92CF92DF92EF92FF920F931F936B
:101BB000CF93DF93CDB7DEB7A1970FB6F894DEBF12
:101BC0000FBECDBF8C01DC011D968C9168130DC03A
:101BD000F801828193810F949105D80157968C91D9
:101BE00080FD1DC07AEA572E1CC0F8016587019060
:101BF000F081E02D0480F581E02D411105C04BE816
:101C000055E26AE774E104C04AEA55E56AE075E026
:101C1000C8011995C801CBDE97FFDACF04C165E58D
:101C2000562EAE014F5F5F4F6A01E12CF12C5A0135
:101C3000F801858990E0E816F9060CF04CC04701E0
:101C40005FEF851A950AD80153966C91539770E00F
:101C5000C401860F971F15962C91159730E08217B7
:101C600093071CF456968C9144C0F8014285D90123
:101C7000A40FB11DAD018A179B0724F5E21AF30AE0
:101C8000BFEFEB1AFB0AE60EF71EE1E0EE16F104D9
:101C900091F034F4EF2851F5D80116968C9129C0B3
:101CA00042E0E416F10451F053E0E516F104F1F4DA
:101CB000F80181851EC0F80187811BC0D8011896E4
:101CC0008C9117C02385269526952695420F511D88
:101CD000841795076CF0F8018481882389F0648962
:101CE00070E0C8014796DDDD3C010AC080E001C01C
:101CF000852D0E943287D6018D936D01740198CF96
:101D0000F80183858770C82ED12C852C912C88E012
:101D100090E08C199D0902C0959487948A95E2F70A
:101D2000412C512C20E0D80154968C91549790E08E
:101D300014963C91332319F042E050E002C040E099
:101D400050E0480F591F441555050CF460C0481663
:101D500059068CF4F801E40DF51D878990E00C2CF0
:101D600002C0880F991F0A94E2F7882A992AF8E09E
:101D7000CF0ED11C03C0311103C021E017013DC0BB
:101D8000AC014F5F5F4F44155505BCF3A201481BE2
:101D9000590BCA0153E0880F991F5A95E1F7D301F7
:101DA00002C0B695A7958A95E2F7CD0199270C2C2C
:101DB00002C0880F991F0A94E2F7882A992AB8E08E
:101DC000CB0ED11CDBCF88E090E08C159D05DCF4B8
:101DD000E0E22E16310428F5882D29A30E943287CF
:101DE000F501E20DF31D8083892C9924F8E0CF1AC8
:101DF000D1084FEF241A340A29A17101222319F3C3
:101E000080E090E0E2CF5FEF451A550A8CCF4E2D6F
:101E1000B501F801828193810F94070680E090E07C
:101E200002C08FEF9FEFA1960FB6F894DEBF0FBEF2
:101E3000CDBFDF91CF911F910F91FF90EF90DF9079
:101E4000CF90BF90AF909F908F907F906F905F905A
:101E50004F903F902F9008952F923F924F925F9214
:101E60006F927F928F929F92AF92BF92CF92DF92AA
:101E7000EF92FF920F931F93CF93DF93CDB7DEB70F
:101E8000A0970FB6F894DEBF0FBECDBF8C01DC016A
:101E900055964C915597BE016F5F7F4F12968D916D
:101EA0009C9113970F942806D801ED91FC91019015
:101EB000F081E02DC8011995F8017384F72DF770B2
:101EC0007F2ECE0101962C01A12CB12CC12CD12C3E
:101ED000E12CF12CD80155968C91559790E0A816DD
:101EE000B9060CF071C0D2018D912D010E9432878C
:101EF0004D2D5527282F30E0D22ECC24C42AD52AA8
:101F0000D5011196F8012388312CAD01420D531DE6
:101F1000658170E0461757073CF49689891709F4E4
:101F200051C080E090E08AC0F8016284CB01860D48
:101F3000911D4817590734F5A61AB70AFFEFAF1AD3
:101F4000BF0AA20CB31C81E0A816B10451F092E0C4
:101F5000A916B10469F0AB28A9F5F801868197812B
:101F60000DC0F8018780912C2815390559F1D9CF7A
:101F7000F4E06F1227C0F801808591852817390792
:101F800009F1CFCFF801238530E0295F3F4FF3E01F
:101F900035952795FA95E1F7280F391F4217530712
:101FA0008CF0E1E0F0E0EC0FFD1FEE0DFF1DC6012F
:101FB000072C02C0969587950A94E2F78083C701A3
:101FC00001967C015D0186CF670114968C91882370
:101FD00029F1B2E0EB16F1040CF4A3CFE2E0EE1A23
:101FE000F108B701CE0101965CDCAC015527E1E0B8
:101FF000F0E0EC0FFD1FEE0DFF1D208130E04217D9
:10200000530709F08ECF892F9927FE01EC0DFD1D96
:10201000208130E08217930709F083CFA701BE012A
:102020006F5F7F4FC80147960F94D111D801549626
:10203000EC92549781E0D7968C93C701A0960FB687
:10204000F894DEBF0FBECDBFDF91CF911F910F91EE
:10205000FF90EF90DF90CF90BF90AF909F908F90C8
:102060007F906F905F904F903F902F900895CF9307
:10207000DF93EC018D8568130DC08A819B810F94DD
:10208000C2068A819B810F9425068823D9F0CE0150
:10209000E3DE18C06D87E881F9810480F581E02DC9
:1020A000411105C04BE855E26AE774E104C04AEA11
:1020B00055E56AE075E0CE011995CE0178DC97FF11
:1020C000DCCF08C08FA9882319F08C8990E002C06A
:1020D00080E090E0DF91CF9108950D945D140D9410
:1020E0006514CF93DF93C4E6D0E0CE01F6DF8823FA
:1020F00019F060E0CE01F3DF2196C43BD105A9F7CA
:10210000DF91CF910895DC01ED91FC910190F08178
:10211000E02D199440E050E060E070E00D94A410D0
:10212000CF93DF93EC0161EA7AE00F94EB11892BF6
:1021300009F4ACC067EC72E0CE010F94EB11892B6F
:1021400009F4A7C06EEB72E0CE010F94EB11892B5E
:1021500009F4A2C064EC72E0CE010F94EB11892B5C
:1021600009F49DC06DEC72E0CE010F94EB11892B48
:1021700009F498C06BEC72E0CE010F94EB11892B3F
:1021800009F45DC062ED72E0CE010F94EB11892B72
:1021900009F458C066ED72E0CE010F94EB11892B63
:1021A00009F453C06DED72E0CE010F94EB11892B51
:1021B00009F44EC063EE72E0CE010F94EB11892B4F
:1021C00009F449C06AEE72E0CE010F94EB11892B3D
:1021D00009F444C061EF72E0CE010F94EB11892B3A
:1021E00009F43FC064EF72E0CE010F94EB11892B2C
:1021F000D9F169EF72E0CE010F94EB11892BB9F19F
:102200006EEF72E0CE010F94EB11892B99F163E030
:1022100073E0CE010F94EB11892B79F169E073E043
:10222000CE010F94EB11892B59F161E173E0CE01DE
:102230000F94EB11892B39F582E590E035C08DE2E2
:1022400090E032C08CE490E02FC08DE490E02CC090
:102250008CE390E029C08DE390E026C08EE390E00F
:1022600023C08EE490E020C08FE490E01DC080E5A4
:1022700090E01AC088E490E017C089E490E014C0B0
:1022800081E590E011C080E090E00EC08BE490E02A
:102290000BC08AE490E008C08DE890E005C087E3B9
:1022A00090E002C08CE290E0DF91CF910895CF9250
:1022B000DF92FF920F931F93CF93DF93CDB7DEB7DB
:1022C0000DB71EB7262F30E0220F331FA9014F5F35
:1022D0005F4FEDB7FEB7E41BF50B0FB6F894FEBFEA
:1022E0000FBEEDBF4DB75EB74F5F5F4FDA01F82EFF
:1022F0006C018C2D8F198617C8F4C601F601708108
:1023000072957F7070637A3308F0795D7C93FFEF8C
:10231000CF1ADF0AFC0180818F7080638A3308F056
:10232000895D11968C9311971296E3CFFA01E20F13
:10233000F31F1082BA018EED92E10F94400C0FB69C
:10234000F8941EBF0FBE0DBFDF91CF911F910F916B
:10235000FF90DF90CF900895CF93DF9300D0CDB75B
:10236000DEB7982F92959F7090639A3308F0995F2B
:1023700099838F7080638A3308F0895F8A831B8218
:10238000BE016F5F7F4F8EED92E10F94400C0F9076
:102390000F900F90DF91CF910895EF92FF920F93DE
:1023A0001F93CF93DF938091B50D9091B60D873138
:1023B00091052CF41092B60D1092B50DEAC78297D4
:1023C00054F4E0ECFDE08191833408F0E2C74DE085
:1023D000E73CF407C1F780916C12882309F450C0E0
:1023E0006CE673E18EED92E10F941B0C80916D12FF
:1023F00091E0980F90936D12AFDF6DE573E18EED74
:1024000092E10F941B0C6091B50D7091B60D4AE0EE
:1024100050E08EED92E10F94F90C6EE473E18EEDD5
:1024200092E10F941B0C0FEB1DE0C1E0D0E0809116
:10243000B50D9091B60D8C179D07E4F0D8016D9104
:102440008D018091B90D689FB00111244AE050E0E0
:102450008EED92E10F94F90C8091B50D9091B60D2F
:10246000C817D9072CF46CE270E08EED92E14BDED8
:102470002196DDCF63E178E08EED92E10F944B0C75
:102480002091B50D3091B60D2937310534F4203740
:10249000310509F07CC789E478C7283C310579F01B
:1024A0002A3F310561F02E35B1E03B0741F020397C
:1024B000E1E03E0721F02F3FF1E03F0781F58091F9
:1024C000F00D893760F18091220E893740F18091BB
:1024D000540E893720F18091C00D813178F48091BC
:1024E000C10D813168F48091C20D813148F4809131
:1024F000C30D813128F482E390E0D1C0853178F4B6
:102500008091C10D853158F48091C20D853138F428
:102510008091C30D853118F482E390E0E8C0C901D1
:1025200062E370E00F94A10FA901481B590B483CCE
:102530005105D1F04A3F5105B9F04C3261E05607E0
:1025400099F04E35A1E05A0779F04039B1E05B07C8
:1025500059F0423CE1E05E0739F0443FF1E05F07AB
:1025600019F04F3F514069F5FC01EB54F24F818562
:102570008D3838F183AD8D3820F1DF01A359BF4F7D
:102580008C918D38F0F0D2968C918D38D0F0838577
:102590008531B8F484858531A0F48585853188F44A
:1025A0008685853170F4AFEBBDE080E090E0019668
:1025B000EF01C80FD91F29852D9382339105B9F7F3
:1025C00096C0283C310559F02A3F310541F02C32A4
:1025D00081E0380721F02E3591E0390769F460EC8D
:1025E0007DE0E5ECFDE0C4ECDDE053ECE52E5DE0E4
:1025F000F52E82E090E020C02039A1E03A0779F37F
:10260000223CB1E03B0759F32F3FE1E03E0709F0E0
:1026100078C0E5CFAC014B54524FDA01DB961C91E8
:102620001D3880F4019631962196BFEFEB1AFB0A14
:102630008333910509F465C0DB014D91BD014D382F
:1026400088F3E8CF8F01015A1F4FD8011C911D3824
:1026500048F38F010F561F4FD8011C911D3810F3FE
:102660008F0103501109D8011C91113110F5D701C8
:102670001C91113108F518811131F0F410811131DC
:10268000D8F4EFEBFDE080E090E00196DA01A80FCE
:10269000B91F19962C91219382339105B1F790932C
:1026A000B60D8093B50D83E08093BE0D8093A20D8F
:1026B0006EC6153108F0B6CFD7011C91153108F060
:1026C000B1CF1881153108F0ADCF1081153108F068
:1026D000A9CFEFEBFDE080E090E00196DA01A80FD2
:1026E000B91F19962C91219382339105B1F79093DC
:1026F000B60D8093B50D83E08093BE0D1092A20DB0
:1027000046C6C9018A5D91090597C8F52A3D31057C
:1027100031F02C3D310531F080E090E005C088E2D9
:1027200090E002C08AE290E0FC01EB54F24F428557
:102730004252403250F546A94252403230F5DF0154
:10274000AE59BF4F4C9142524032F8F41816190658
:1027500044F08CE290E09093B60D8093B50D86E442
:1027600014C6AFEBBDE080E090E00196EF01C80F2A
:10277000D91F29852D938C329105B9F7EACF243AD8
:10278000310539F0263F310521F02C3EE1E03E07CE
:1027900019F58091BF0D8D38F8F08091C00D82320F
:1027A000D8F08091110E8D38B8F08091120E8232DF
:1027B00098F0243A310541F482E590E09093B60D0B
:1027C0008093B50D8AE1E1C58091630E8D3820F0CC
:1027D0008091640E823280F7283C310521F02C3242
:1027E000F1E03F0769F48091BF0D833448F0809198
:1027F000220E873828F08091230E833408F023C3FB
:102800002A3C310541F0203941E0340721F0223CD7
:1028100061E03607C1F48091C00D8334A0F080914F
:10282000F20D833480F08091240E833460F0809127
:10283000BF0D813140F482E390E09093B60D809318
:10284000B50D83E1A2C5C9018D7F883E9105B9F41C
:102850008091C00D833998F08091FA0D833978F01A
:102860008091340E833958F0E1ECFDE0AFEBBDE030
:1028700081918D938DE0EB3FF807D1F770C2C901CC
:1028800089579109833B910530F5F901EB54F24FDB
:102890008185893CD0F0DF01D1979C919738A8F0D1
:1028A000EB56F109808187588F3178F4963A68F4B5
:1028B000EFEBFDE0DF01A20FB31FDA978C9181935C
:1028C0009DE0E93FF907B1F737C12A3D3105D9F05D
:1028D0002C3D3105A1F02E3D310599F02832A1E0C3
:1028E0003A0779F02237B1E03B0759F02C3BE1E0A1
:1028F0003E0739F02F3FF1E03F07E1F502C0E8E481
:1029000003C0EAE401C0E6E4F0E0EB54F24F818555
:102910008556873278F5DF01AD5ABF4F8C918556C9
:10292000873240F5A65BBF4F8C91853618F18091B8
:10293000F00D8432F8F48091F20D8432D8F4809155
:10294000F40D8432B8F48091F60D843298F4AFEB34
:10295000BDE080E090E00196EF01C80FD91F298506
:102960002D938A349105B9F79093B60D8093B50DE8
:1029700083E70BC5C9018E5691400E9790F520371D
:1029800041E0340711F040E001C042E050E0BA01FC
:1029900066587F4FFB01EB54F24F818580548D3098
:1029A00000F5FA01EB54F24FDF01A350BF4F8C91B9
:1029B00080548D30B0F480E090E0EA0128964E5FBC
:1029C0005F4FDA01A80FB91FCA17DB070CF4E3C485
:1029D000DF01A80FB91F1B96AC91AA500196AB302E
:1029E00080F3C901855091404D9770F5E0ECFDE012
:1029F00042E050E08191893C08F1DF01AF5BBF4FBD
:102A00008C91893CD8F0AE5BBF4F8C91893CB0F083
:102A1000AE5BBF4F8C91893C88F0EFEBFDE080E02E
:102A200090E04B54524F0196DA01A80FB91F199646
:102A30002C91219382349105B1F75CC34F5F5F4FB6
:102A400045345105B9F633C0223261E0360721F032
:102A50002F3F81E03807E9F58091BF0D833490F076
:102A60008091C00D833470F08091C10D833450F09B
:102A70008091C20D833430F08091C30D873810F0FF
:102A80008FE183C42F3F91E0390789F4EFEBFDE03C
:102A900081E090E041914234E0F0473818F0853011
:102AA000C0F0EECF01968A319105A1F712C0223213
:102AB000A1E03A0771F480917E0E8D3850F0EFEB73
:102AC000FDE08191893228F4BDE0EC3CFB07C9F7B9
:102AD0006AC4C90189519140879750F4E0ECFDE048
:102AE0008191883128F44DE0E43DF407C9F763C4CF
:102AF000233261E036070CF44AC4C9018B5491407B
:102B00008F9710F5C9018B54924FFC01E957F109D9
:102B10004081433480F1FA978081873860F1EFEB90
:102B2000FDE0DF01A20FB31FAC5BB1098C91819373
:102B30008DE0E93FF807A9F78AE390E09093B60D9E
:102B40008093B50D8CE021C42E3C91E0390721F033
:102B50002F3FA1E03A0779F48091000E893C58F0AC
:102B60008091420E893C38F08091840E893C18F0A7
:102B700082E490E0BFC22C34B1E03B0769F02E380C
:102B8000E1E03E0749F0203DF1E03F0729F02F3F0B
:102B900041E0340709F01EC48091020E833D58F0D5
:102BA0008091440E833D38F08091860E833D18F06D
:102BB00084E490E09FC2223961E0360729F02F3F7C
:102BC00081E0380709F088C08091020E833D40F013
:102BD0008091460E833D20F08091880E833D40F722
:102BE0002E3B91E03907D1F49091080E9C3708F400
:102BF00019C18091520E8C57863108F013C1809113
:102C00009C0E8C57863108F00DC1923908F00AC12C
:102C100082E48093BE0D8AE490E0A6C02F3FA1E03D
:102C20003A0709F05EC09091100E9232D8F0809170
:102C3000620E82528031B0F48091B40E82528031A3
:102C400088F4923378F480910F0E893058F4E1ECD7
:102C5000FDE081918351863128F4BDE0E73CFB071C
:102C6000C1F7B0C390911A0E9A31D8F08091760EC8
:102C70008A518831B0F48091D20E8A51883188F41B
:102C8000923378F48091190E893058F4E1ECFDE02C
:102C900081918351873028F44DE0E73CF407C1F778
:102CA00091C38091C00D8C57863100F590910C0E28
:102CB0009C37E0F08091580E8C578631B8F48091A3
:102CC000A40E8C57863190F4923980F482E480937C
:102CD000BE0D8CE490E048C02E3B91E0390709F42A
:102CE00083CF2D3C61E036070CF49CC08091C00D71
:102CF000873898F09091FA0D973878F09091340ECB
:102D0000973858F0E1ECFDE0AFEBBDE081918D9399
:102D10008DE0EB3FF807D1F722C09091F80D97387E
:102D200040F09091320E973820F090916C0E9738C9
:102D3000B0F44091C20D4738E0F09091FC0D973807
:102D4000C0F09091360E9738A0F0E3ECFDE0AFEBC9
:102D5000BDE081918D939DE0ED3FF907D1F78CE0C7
:102D60008093BE0D8AE390E09093B60D8093B50DED
:102D70000EC32F3FA1E03A0709F054C09091BF0D58
:102D80009D38A0F18334C0F05091C10D5532A0F0B0
:102D90005091150E5D3880F05091160E533460F04E
:102DA0005091170E553240F085E590E09093B60DA6
:102DB0008093B50D89E1E9C29A39C0F09091430E34
:102DC0009A39A8F19091C70E9A3988F1813278F535
:102DD0008091C10D813258F5413248F584E890E088
:102DE0009093B60D8093B50D8BE1CFC29431F8F47A
:102DF000873AE8F08091420E873AC8F08091C40E7D
:102E0000873AA8F08091C10D813188F48091430EFA
:102E1000813168F484E890E09093B60D8093B50D0D
:102E20008DE4B3C22C32B1E03B070CF443C2609195
:102E3000BF0D633458F08091220E873838F08091AE
:102E4000230E833418F084E690E027C0EFEBFDE01A
:102E500081E090E04191473830F14081433418F1EE
:102E60009C012B54324FF901E359FF4F8081873881
:102E700008F48DC231968081833408F488C2EFEB68
:102E8000FDE080E090E0D901A80FB91F19964C91A0
:102E90004193019684369105B1F79093B60D8093D6
:102EA000B50D8BE072C201968836910599F62F3FD9
:102EB000E1E03E0709F05BC18091C00D8F3620F044
:102EC00080910A0E8F3628F4E8E0FEE080E090E082
:102ED0000FC08091540E8F36B8F380919E0E8F36BE
:102EE00098F38CE490E09093B60D8093B50D2DC0CF
:102EF00041914F3660F1DF01A75BBF4F4C914F36D8
:102F000030F1009761F0A459B1094C914F3638F077
:102F1000EFEBFDE020E030E08B54924F07C0DF0183
:102F2000AD56BF4F4C914F3690F0F2CF2F5F3F4FD1
:102F3000DC01A20FB31F19964C9141932A3431053D
:102F4000A9F73093B60D2093B50D82E41EC2019609
:102F50008A34910569F6E0ECFDE042E050E08191B1
:102F60008532B8F1DF01AF58BF4F8C91853288F1BF
:102F7000AE58BF4F8C91853260F1AE58BF4F8C91E7
:102F8000853238F1A35EB1098C91843210F5119627
:102F90008C918432F0F411968C918432D0F4119695
:102FA0008C918432B0F4EFEBFDE080E090E04B5484
:102FB000524F0196DA01A80FB91F19962C9121934F
:102FC00082379105B1F79093B60D8093B50D81E9E5
:102FD000DCC14F5F5F4F4237510509F68091CC0D40
:102FE0008D3820F080918C0E8D3828F4E0EFFDE0D4
:102FF00082E390E014C0EFEBFDE081918932B0F7FD
:103000004DE0EC3CF407C9F7EDECFDE0AFEBBDE0C3
:1030100081918D936EE0ED38F607D1F7C4C14191EF
:1030200046534C30D8F5DC01AB54B24FDD964C9191
:10303000DD97463310F440E00BC0EF01C959DF4F74
:1030400048814633C0F3E49648814633A0F342E01A
:10305000DB965C91DB97563378F0EF01CD59DF4F6B
:103060005881563348F0E2965881563328F0EFEBFA
:10307000FDE080E090E003C0442381F0F8CF0196AA
:10308000ED01C80FD91F2985219384339105B9F724
:103090009093B60D8093B50D81E777C10196883680
:1030A000910509F0BCCFE0ECFDE042E050E08191F9
:1030B000893C30F1DF01AF5BBF4F8C91893C00F15F
:1030C000AE5BBF4F8C91893CD8F0AE5BBF4F8C910B
:1030D000893CB0F0EFEBFDE080E090E04B54524FC4
:1030E0000196DA01A80FB91F19962C912193823409
:1030F0009105B1F79093B60D8093B50D87E045C16A
:103100004F5F5F4F4534510591F6E0ECFDE082E002
:1031100090E04191473A30F1DC01AB54B24F9D96BB
:103120004C919D97473AF0F0EF01C95BDF4F488122
:10313000473AC0F0849741F484E290E09093B60D52
:103140008093B50D8CE821C1EFEBFDE080E090E0CD
:103150000196ED01C80FD91F29852193843291056D
:10316000B9F7EACF01968532910599F605C0213964
:1031700081E038070CF49EC06F3600F18091C00DDD
:103180008F36E0F08091E50D8F36C0F08091E60D2E
:103190008F36A0F080910B0E8F3680F080910C0E50
:1031A0008F3660F08091C10D833540F486E290E067
:1031B0009093B60D8093B50D83EAE7C02F3F91E061
:1031C000390709F077C08091D80D9CEA980F9A31A1
:1031D00040F49091F20D943520F090910C0E9435BE
:1031E00078F5875A813298F48091F20D873A78F019
:1031F00080910C0E873A58F0E9EDFDE0AFEBBDE0B1
:1032000081918D934EE0EB30F407D1F719C0A0EC1B
:10321000BDE082E090E02D91243560F1FC01EB549B
:10322000F24F23A1243530F125AD243518F1ED01FD
:10323000C35BDF4F28812435E8F08285893118F09F
:103240008AE190E031C083858931D0F78485893166
:10325000B8F785858931A0F7AFEBBDE080E090E05D
:103260000196EF01C80FD91F29852D938A31910549
:10327000B9F7E6CF01968C31910569F68091E80D9A
:1032800084558A3128F0EFEBFDE021E030E01DC0ED
:103290008091120E84558A31B0F780913C0E84558E
:1032A0008A3188F78AE290E09093B60D8093B50D4D
:1032B0008EE86BC02332314009F469C0E4CF2F5F40
:1032C0003F4F2233310509F459C08191823108F012
:1032D00055C08A30A0F381E090E0A9014B54524FD1
:1032E00007C06A3060F401968233910509F446C044
:1032F000FA01E80FF91F6185623198F33FC0280F8A
:1033000039EE380F3931D0F59927DC01A20FB11D04
:10331000FD01E80FF91FEB54F24FD185AB54B24FCA
:103320001896CC911897708517966C9117973781DE
:1033300019962C912A50273008F526EF2D0F2730AB
:10334000E8F4C930D8F47930C8F46930B8F43930C9
:10335000A8F4EFEBFDE020E030E02F5F3F4FDA0113
:10336000A20FB31F19966C91619328173907ACF31C
:103370009093B60D8093B50D82E207C082E291E092
:103380009093B60D8093B50D84E48093BE0D80E0DC
:103390002CC081E02AC08BE48093BE0D7093B60DE3
:1033A0006093B50DF4CF80EC90E09093B60D8093D0
:1033B000B50D88E4EACF8091D40D883108F498CB1C
:1033C00081E3E3CF82E590E09093B60D8093B50D55
:1033D00080E5DBCF223981E0380709F4F5CB2E3BBD
:1033E000A1E03A0709F07DCCFFCBDF91CF911F918F
:1033F0000F91FF90EF9008956F927F928F929F921E
:10340000AF92BF92CF92DF92EF92FF920F931F93F2
:10341000CF93DF93CDB7DEB72C970FB6F894DEBF0E
:103420000FBECDBF4091B50D5091B60D61EA640F4E
:103430004636510589F4E62FF0E0EB54F24F8185D2
:103440008B3150F083858A3138F485858B3120F0BB
:1034500069E06624639401C0612C20E030E0712CA7
:1034600080E090E0DC01812C912C540170E08B0114
:103470000B54124F7B01EFEFEE1AFE0AF901E60F33
:10348000F71FE417F507DCF5F801E20FF31FD2840C
:103490000F2EFEEDCF2EF02DDC0C0F2EFDE0CF2EEB
:1034A000F02DCD1440F46701C20ED31EC416D5060C
:1034B00014F480E044C2E185EB3168F0EFE0E715F9
:1034C00028F0880C991CAA1CBB1C0FC0880F991FE0
:1034D000AA1FBB1F11C0EFE0CE2EC71440F0880C0E
:1034E000991CAA1CBB1C689480F8739405C0880FB3
:1034F000991FAA1FBB1F81602E5F3F4FBFCF21E0E6
:10350000621204C0880F991FAA1FBB1F8114910467
:10351000A104B10471F2B501A4011CE07695679590
:10352000579547951A95D1F74F704983493019F04F
:10353000463009F0BECFFF24EB2CDA2CC92C2C2D01
:103540002F702A83B501A40104E0769567955795FD
:1035500047950A95D1F74F704B83282D2F702C83F8
:10356000AC01BD012CE176956795579547952A9555
:10357000D1F74D832B2F2F702E83AC01BD0134E189
:1035800076956795579547953A95D1F74F704F8344
:103590002A2F2F702887AC01BD01ECE07695679546
:1035A00057954795EA95D1F74F704987292F2F7086
:1035B0002A87AC01BD01F4E076956795579547954C
:1035C000FA95D1F74F704B87FE0131969E01245F2B
:1035D0003F4F40E05191450FE217F307D9F7242FF1
:1035E0002F70422F50E060E070E08F709927AA277B
:1035F000BB27481759076A077B0709F05ACF1C2DCC
:103600001370822F90E0982F8827810F911D6C01F5
:10361000EE24D7FCE094FE2C9091AC0D8091AB0D84
:1036200098131DC08090B10D9090B20DA090B30D75
:10363000B090B40D0F940D0886169706A806B9062B
:1036400070F08091AD0D9091AE0DA091AF0DB09145
:10365000B00D8C159D05AE05BF0509F45DC0C09287
:10366000AD0DD092AE0DE092AF0DF092B00D1111F4
:103670005CC02F8188853AE0839FC0011124E4E675
:103680002E9F800D911D11242985820F911D298166
:10369000293009F043C00CE211E00817190708F0BF
:1036A00040C09C01201B310B890160EE79E08EED5A
:1036B00092E10F94400C80916D1291E0980F9093DD
:1036C0006D120E94AC116EE373E18EED92E10F94E6
:1036D0001B0C62E0CE0103960E9457111F930F93BB
:1036E00081EB96E09F938F9384E292E19F938F9377
:1036F0000F94411264E272E18EED92E10F944B0C53
:103700000F900F900F900F900F900F901092B70D99
:103710001092B60D1092B50D81E011C100E911E0D3
:10372000BCCF081B190B1068C0CF113071F58F8109
:10373000088510E030E1839F000D111D1124C801A0
:1037400001978F3F910511F008F0B3CE60EE79E05C
:103750008EED92E10F94400C80916D1291E0980FE4
:1037600090936D120E94AC116EE273E18EED92E1C6
:103770000F941B0C62E0CE0103960E945711112793
:103780001F930F9387E193E0ADCF123009F04EC045
:10379000AF81B0E0BA2FAA27888590E1899FA00D5C
:1037A000B11D11248985A80FB11D26E032E00F94C8
:1037B000F80F4B015C0124E630E040E050E00F944C
:1037C000B40F69017A01C501B40124EF31E040E092
:1037D00050E00F94B40F633328F0EFEFCE1ADE0AF7
:1037E000EE0AFE0A60EE79E08EED92E10F94400C55
:1037F00080916D1291E0980F90936D120E94AC1120
:103800006EE173E18EED92E10F941B0C62E0CE014C
:1038100003960E945711D701C601AA27BB27BF9361
:10382000AF939F938F9382E293E075C060EE79E04F
:103830008EED92E10F94400C80916D1291E0980F03
:1038400090936D120E94AC116EE073E18EED92E1E7
:103850000F941B0C62E0CE0103960E9457118985DC
:103860008F701F928F938EE293E09F938F9304E269
:1038700012E11F930F930F944112B8018EED92E164
:103880000F94400C8F81288530E09AE0899F200DAD
:10389000311D112444E2429FC001439F900D112429
:1038A0006AE070E00F948D0F0F900F900F900F90C3
:1038B0000F900F908981893071F47F936F937F937C
:1038C0006F938EE393E09F938F931F930F930F94C7
:1038D0004112B8012AC08A8190E0E3E0959587956E
:1038E000EA95E1F7019729F46093830D7093840DB5
:1038F00004C06093850D7093860D8091860D8F9323
:103900008091850D8F938091840D8F938091830D8D
:103910008F938EE393E09F938F9384E292E19F9342
:103920008F930F94411264E272E18EED92E10F9455
:103930004B0C0FB6F894DEBF0FBECDBFE7CE2C9672
:103940000FB6F894DEBF0FBECDBFDF91CF911F91B0
:103950000F91FF90EF90DF90CF90BF90AF909F902E
:103960008F907F906F9008952F923F924F925F9229
:103970006F927F928F929F92AF92BF92CF92DF927F
:10398000EF92FF920F931F93CF93DF93CDB7DEB7E4
:103990002C970FB6F894DEBF0FBECDBF8091B50D4A
:1039A0009091B60DC29709F028C28091BE0D8F3359
:1039B00009F423C2833109F420C28091A20D83301F
:1039C00031F41092A20D45E08AE090E003C040E09F
:1039D00080E190E02091EF0D30E0821793070CF426
:1039E0000CC2E1ECFDE0A6E16A2E712C26E130E08C
:1039F0005191652F70E07A8769876217730734F0F9
:103A0000661677060CF43B013A8729877DE0E03F94
:103A1000F70719F029853A85EBCF453009F47DC0C9
:103A200029853A85245031092230310538F4B30113
:103A30006C5171096230710508F444E069857A853A
:103A4000675071096230710538F4B3016E51710924
:103A50006230710508F444E069857A85695071091E
:103A60006230710568F4B301645271096230710506
:103A700008F44CC0645071096330710508F446C005
:103A800069857A856A5071096230710520F4B30145
:103A90006852710907C0E985FA853D9731F4B30191
:103AA000605271096330710598F169857A856B50B0
:103AB00071096230710530F4B3016F5171096730DB
:103AC000710540F169857A856C5071096230710524
:103AD00030F4B3016D52710962307105E8F027309E
:103AE000310540F493012E5231092430310508F498
:103AF00086C113C029853A852430310574F49301B9
:103B0000265131092230310540F47EC141E005C023
:103B100042E003C044E001C043E08031910569F414
:103B2000C30129853A85821B930B95958795992723
:103B30008031910514F480E190E050E02091C20DB5
:103B4000622F70E07E836D8370EC472E7DE0572EF0
:103B5000E2ECFDE0FC87EB87A1ECBDE08A011B8273
:103B60001A821C82812C912C5401C12CD12C7601FB
:103B70001982212C312C2B853C8523503109F901E8
:103B8000608170E0681779070CF063C0F201208152
:103B900030E0821793070CF05CC02C9130E02817BE
:103BA0003907A4F4EB85FC85208130E08217930768
:103BB0006CF4F694E794D794C79462E0880C991C4F
:103BC000AA1CBB1C6A95D1F71160A9C02C9130E0EA
:103BD0008217930714F5EB85FC85208130E02817C8
:103BE0003907DCF4FA81FF5FFA83F694E794D794FF
:103BF000C79422E0880C991CAA1CBB1C2A95D1F7FB
:103C00006894D3F8689481F82BE02216310419F4F3
:103C1000F13009F484C0126082C02C9130E0281782
:103C20003907BCF4EB85FC85208130E02817390783
:103C300084F4F694E794D794C79472E0880C991CA6
:103C4000AA1CBB1C7A95D1F7F3E08F2A21E02C83C4
:103C500066C086179707D4F5F201208130E0281757
:103C60003907A4F52C9130E0821793077CF5EB859A
:103C7000FC85208130E02817390744F5FB81FF5F80
:103C8000FB83F694E794D794C79432E0880C991C90
:103C9000AA1CBB1C3A95D1F72BE02216310439F44B
:103CA000F13029F46894D3F8689481F838C06894A6
:103CB00080F81460053099F13BE02316310479F166
:103CC000033009F006E06894D3F829C021143104C8
:103CD00019F5E2E0880C991CAA1CBB1CEA95D1F7E7
:103CE00086179707ACF4F201208130E08217930722
:103CF0007CF42C9130E02817390754F42D813E8153
:103D0000821793072CF4F694E794D794C79407C0CE
:103D1000186031E0398303C0186061E069837FEF88
:103D2000271A370A1496E4E04E0E511C2B853C8569
:103D30002C5F3F4F3C872B873CE02316310409F072
:103D40001ACF6981611106C0812F8B7F8330B1F05A
:103D50001530A1F0511151C0443009F04EC0898591
:103D60009A850797029708F048C07EE1671A7108A4
:103D700082E06816710408F040C096C09091AC0DC6
:103D80008091AB0D981345C02090B10D3090B20DCD
:103D90004090B30D5090B40D94EF290E91E0391E70
:103DA000411C511C0F940D0826163706480659066B
:103DB00080F12090B10D3090B20D4090B30D509035
:103DC000B40DE8EE2E0EE3E03E1E411C511C0F9494
:103DD0000D08621573058405950508F065C080918E
:103DE000AD0D9091AE0DA091AF0DB091B00D8815B5
:103DF0009905AA05BB0569F457C080E0D8C243E025
:103E000057E084E190E09ACE45E050E08AE090E00F
:103E100095CE1730A9F42090B10D3090B20D40909E
:103E2000B30D5090B40DF8EE2F0EF3E03F1E411C81
:103E3000511C0F940D08621573058405950528F033
:103E40008091AB0D8C30A9F416C08091AD0D90918E
:103E5000AE0DA091AF0DB091B00D88159905AA05D2
:103E6000BB0571F39091AC0D8091AB0D9813E8CF29
:103E70001BC08F30D9F42090B10D3090B20D40901E
:103E8000B30D5090B40D20ED220E27E0321E411CE0
:103E9000511C0F940D08621573058405950530F4C7
:103EA0008091AB0D8093AC0D81E081C28092AD0D0D
:103EB0009092AE0DA092AF0DB092B00D173009F4F4
:103EC0003EC1153009F04DC0053019F5C114D104BB
:103ED000E104F10409F045C0D501C4012CE0CC0C8B
:103EE000DD1CEE1CFF1CAC01BD014370552766278D
:103EF0007727452B462B472B11F06894C0F832E00A
:103F0000B695A795979587953A95D1F7215039F7AA
:103F10004FC0033031F52C2D20952F70D701C601ED
:103F2000807F9927AA27BB2714E0B695A795979578
:103F300087951A95D1F780958F70CD2CDE2CEF2CBC
:103F4000FF2433E0C322DD24EE24FF2455245394C0
:103F500042E0C416D104E104F10409F49EC0512CDE
:103F60009CC0D701C60187789770AA27BB27811507
:103F70009740A105B10531F4C30181970297B0F4D0
:103F800001E091C0D701C60188279770AA27BB27F7
:103F900081159640A105B10549F0043031F129851C
:103FA0003A85273031050CF0C8C01FC00630B9F47F
:103FB000D701C601817F9E70AA27BB27892B8A2B38
:103FC0008B2B09F01ACF2C2D2E702695209527705B
:103FD0002F5B3D2D3170532E06E030E0B5C005302B
:103FE00009F4A1C1043009F051C0D701C60175E040
:103FF000B695A795979587957A95D1F7382F3F7104
:104000002C2D20952F712F5B3B3179F030F43F3010
:1040100071F0373169F434E00BC03D3121F03E31AD
:1040200039F431E005C032E003C033E001C035E0CF
:10403000D701C6015BE0B695A795979587955A95E8
:10404000D1F7682F6170562E6AE0F694E794D79402
:10405000C7946A95D1F773E0C722DD24EE24FF24CC
:1040600083E0C816D104E104F10409F06CC089852D
:104070009A850797029708F066C09EE1691A710851
:10408000E2E06E16710408F05EC00ECF153059F4F0
:10409000033049F4512C80E020E02F5B31E0380FF1
:1040A00003E015E051C0D701C60188279770AA2701
:1040B000BB2781159640A105B105A1F02C2D2F70CD
:1040C0002F5BD701C601807F9927AA27BB2744E031
:1040D000B695A795979587954A95D1F731E0380F12
:1040E00001E01EC0D701C60188279670AA27BB270A
:1040F00081159640A105B10509F07FCE2C2D2F70BA
:104100002F5BD701C601807F9927AA27BB2734E000
:10411000B695A795979587953A95D1F731E0380FE1
:10412000D701C601FBE0B695A79597958795FA95B7
:10413000D1F7482F4170542E07C004E017E030E05B
:1041400020E0512C01C004E06AE073E18EED92E1C1
:104150002F8338870F941B0C80916D1291E0980F7C
:1041600090936D120E94AC112F8138851330E1F4C9
:10417000043028F463E073E18EED92E10DC0043069
:1041800019F46AEF72E104C0053059F461EF72E18D
:104190008EED92E12F8338870F941B0C2F81388589
:1041A000EBC067EE72E1F4CF153069F4053019F415
:1041B0006EED72E1EDCF033019F464ED72E1E8CFFA
:1041C0006BEC72E1E5CF173009F0D6C060EC72E11C
:1041D0008EED92E10F941B0C053019F46894B3F83E
:1041E00004C0033011F46894B2F8D501C40124E08E
:1041F000B695A795979587952A95D1F7BB27BF9335
:10420000AF939F938F9385E593E09F938F9384E281
:1042100092E19F938F930F94411264E272E18EEDCD
:1042200092E10F94400C982D93700FB6F894DEBF76
:104230000FBECDBFB501A401E2E076956795579515
:104240004795EA95D1F78DEF800F823018F4342F1F
:1042500033700BC0242F23708426382D3095337093
:10426000913011F0213009F43860592E992311F062
:1042700055245394053031F433FD04C05094752D0A
:104280007170572E1F923F938FE593E09F938F930A
:1042900084E292E19F938F930F94411264E272E162
:1042A0008EED92E10F94400C6BEB72E18EED92E19A
:1042B0000F941B0C0F900F900F900F900F900F907A
:1042C0002C81213031F467EB72E18EED92E10F9495
:1042D0001B0C31E053120CC0173039F4809164127A
:1042E000882319F062EB72E10EC06EEA72E10BC036
:1042F000173039F480916412882319F06AEA72E168
:1043000002C065EA72E18EED92E10F941B0C8EED16
:1043100092E10F94480C81E08093B70D1092B60D96
:104320001092B50D44C0D701C601807F9370AA27B3
:10433000BB27E4E0B695A79597958795EA95D1F7C1
:104340002C2D20952F702F5B382F30953F71FAE080
:10435000F694E794D794C794FA95D1F743E0C42232
:10436000DD24EE24FF2455245394CA94CD28CE286E
:10437000CF2809F0E6CEE8CE1F922F938AE693E08D
:104380009F938F9384E292E19F938F9338870F944A
:10439000411264E272E18EED92E10F94400C0F90B5
:1043A0000F900F900F900F900F9038856BCF2C9639
:1043B0000FB6F894DEBF0FBECDBFDF91CF911F9136
:1043C0000F91FF90EF90DF90CF90BF90AF909F90B4
:1043D0008F907F906F905F904F903F902F900895B7
:1043E0004F925F926F927F92AF92BF92CF92DF9285
:1043F000EF92FF920F931F93CF93DF938091B50DB0
:104400009091B60D9C012F7E2438310521F0823821
:10441000910509F075C02091BE0D2F3009F48DC0B3
:104420008238910519F003E010E002C001E010E0CD
:10443000C12CD12C7601B12CA12C9C012250310928
:10444000F801EB54F24F728563855485E185E531BF
:1044500008F056C0753130F4653108F051C056315E
:10446000A8F40BC0753109F44BC0653108F048C0A1
:10447000553108F045C041E00AC0553108F040C050
:1044800084399105E9F5BB24B39401C040E00238BA
:10449000110534F4CC0CDD1CEE1CFF1CC42A02C038
:1044A000AA0CA42A0C5F1F4F021713074CF290911D
:1044B000AC0D8091AB0D981325C04090B10D50907C
:1044C000B20D6090B30D7090B40D8CEB480E82E08D
:1044D000581E611C711C0F940D084616570668067D
:1044E000790680F08091AD0D9091AE0DA091AF0D49
:1044F000B091B00D8C159D05AE05BF0519F41DC01A
:1045000080E0D6C0C091AB0DCC30C9F44090B10D65
:104510005090B20D6090B30D7090B40D90ED490EB7
:1045200097E0591E611C711C0F940D0864157505E8
:104530008605970520F4C093AC0D81E0B9C0C09208
:10454000AD0DD092AE0DE092AF0DF092B00D61EADC
:1045500072E18EED92E10F941B0C80916D1291E04F
:10456000980F90936D120E94AC1167E972E18EED85
:1045700092E10F941B0CD701C601C6E0B695A79532
:1045800097958795CA95D1F7BF93AF939F938F93D4
:1045900081E893E09F938F93C4E2D2E1DF93CF93BE
:1045A0000F944112BE018EED92E10F94400CD701A1
:1045B000C6018F709927AA27BB270196A11DB11D9F
:1045C000BF93AF939F938F938BE893E09F938F93C9
:1045D000DF93CF930F944112BE018EED92E10F94C1
:1045E000400C62E972E18EED92E10F941B0CD4E075
:1045F000F694E794D794C794DA95D1F793E0C9225B
:10460000DD248DB79EB740960FB6F8949EBF0FBEBF
:104610008DBF92E0C916D1041CF08FEFC81AD80ADA
:104620000D381105E4F091E0B91219C01F92AF9254
:1046300083E793E09F938F9384E292E19F938F931C
:104640000F94411264E272E18EED92E10F94400CFE
:104650000F900F900F900F900F900F901EC0C114ED
:10466000D10419F46DE872E114C081E0C816D104D8
:1046700019F469E872E10DC093E0C916D10419F488
:1046800061E872E106C084E0C816D10431F46AE73B
:1046900072E18EED92E10F941B0C8EED92E10F947E
:1046A000480C81E08093B70D1092B60D1092B50DB5
:1046B000DF91CF911F910F91FF90EF90DF90CF90FE
:1046C000BF90AF907F906F905F904F9008957F92D2
:1046D0008F929F92AF92BF92CF92DF92EF92FF9212
:1046E0000F931F93CF93DF931F921F92CDB7DEB727
:1046F0008091B50D9091B60DC29711F080E086C102
:104700008091BE0D8F33D1F38091EF0D8E30B0F7D5
:10471000E1ECFDE02DE030E08DE090E04DE0E03FA9
:10472000F40761F0419150E0481759072CF0241725
:1047300035070CF49A01AC01CA01F0CFAC0142502C
:1047400051094230510530F4A9014F50510942300E
:10475000510550F0213131054CF02C31310544F038
:10476000079734F053E005C054E003C052E001C0A5
:1047700050E0EFEBFDE082E090E0812C912C5401C1
:10478000DC01AB54B24F19962C912E3070F0308171
:104790003E3008F0B3CF2F3108F0B0CF880C991C11
:1047A000AA1CBB1C689480F818C0233008F4A6CF5C
:1047B00020812F3128F08230910509F09FCF06C06B
:1047C0002D3020F4511105C051E003C0513009F4DF
:1047D00095CF880C991CAA1CBB1C0296329682337A
:1047E000910571F69091AC0D8091AB0D981311C0AD
:1047F000C090B10DD090B20DE090B30DF090B40D1B
:104800005A830F940D085A81C616D706E806F90692
:1048100048F581149104A104B10409F46FCF80918B
:10482000AB0D8C3021F08F3011F08F36E9F4C09051
:10483000B10DD090B20DE090B30DF090B40D80EDBD
:10484000C80E87E0D81EE11CF11C5A830F940D0896
:104850005A816C157D058E059F0530F48091AB0D56
:104860008093AC0D81E0D2C07501640164E0F694E0
:10487000E794D794C7946A95D1F72FE0E222FF24FA
:10488000C114D104E104F10409F438CF9FEFC91633
:10489000D9069FE0E906F10409F430CF513019F44C
:1048A0006894E7F811C0523019F46894E6F827C00C
:1048B000533019F46894E5F81EC0543019F4689424
:1048C000E4F81DC05230A8F4D501C401B695A795EF
:1048D00097958795E82FE7707E2E482D4170F3E07D
:1048E000EF1709F40BCF24E0E21317C0E3E07E2EAC
:1048F00014C0533021F4482D4770742E03C0882D06
:104900008770782ED501C40173E0B695A795979569
:1049100087957A95D1F7482F417066E772E18EED61
:1049200092E149835A830F941B0C80916D1291E0A0
:10493000980F90936D120E94AC1169E672E18EEDB2
:1049400092E10F941B0CFF92EF92DF92CF9285E5DC
:1049500093E09F938F9304E212E11F930F930F94C0
:104960004112B8018EED92E10F94400C1F927F929C
:104970002AE235E03F932F931F930F930F94411238
:10498000B8018EED92E10F94400C64E672E18EED79
:1049900092E10F941B0C0FB6F894DEBF0FBECDBF93
:1049A00049815A81F4E0F71588F4523078F460E6D2
:1049B00072E18EED92E10F941B0C4981411103C00D
:1049C0006BE572E114C067E572E111C0543041F447
:1049D000413019F463E572E10AC06EE472E107C088
:1049E000413019F469E472E102C065E472E18EEDD0
:1049F00092E10F941B0C8EED92E10F94480C81E034
:104A00008093B70D1092B60D1092B50D0F900F90C8
:104A1000DF91CF911F910F91FF90EF90DF90CF909A
:104A2000BF90AF909F908F907F9008954F925F922C
:104A30006F927F928F929F92AF92BF92CF92DF92AE
:104A4000EF92FF920F931F93CF93DF938091B50D59
:104A50009091B60D8A36910509F0E2C0E0ECFDE0D8
:104A600081E0812C912C5401C12CD12C7601208124
:104A70009FEF980F213160F0903228F4CC0CDD1CB0
:104A8000EE1CFF1C14C0880C991CAA1CBB1C0FC078
:104A9000903238F4CC0CDD1CEE1CFF1C6894C0F87E
:104AA00006C0880C991CAA1CBB1C689480F832961E
:104AB0008F5F8533E1F68F2D9927AA27BB27282FF3
:104AC0008E3F69F0883321F02D7F203309F0A8C094
:104AD000C82FCF7039F0C23031F4C0E004C0C0E05C
:104AE000D0E002C0C2E0D1E09091AC0D8091AB0D5E
:104AF000981310C04090B10D5090B20D6090B30D5E
:104B00007090B40D0F940D08461657066806790686
:104B100008F084C01A2D1F70143008F081C0B7014E
:104B2000A60104E176956795579547950A95D1F7C3
:104B3000842F8F70782E4601570184E0B694A79495
:104B4000979487948A95D1F70C2D0F7091E4790E84
:104B5000083009F067C001E061E472E18EED92E196
:104B60000F941B0C80916D1291E0980F90936D1231
:104B70000E94AC11D11167C069E372E18EED92E140
:104B80000F941B0C9F928F9286E993E09F938F93D3
:104B900084E292E19F938F930F9441120F900F90B4
:104BA0000F900F900F900F9064E272E18EED92E102
:104BB0000F94400C1F920F931F927F928CEA93E008
:104BC0009F938F9384E292E19F938F930F9441126E
:104BD00064E272E18EED92E10F94400C6AE272E1C0
:104BE0008EED92E10F941B0C8DB79EB708960FB611
:104BF000F8949EBF0FBE8DBF111142C066E272E1F4
:104C00008EED92E10F941B0C8EED92E10F94480C07
:104C10001092B70D1092B60D1092B50D81E040C004
:104C200080E03EC0043049F0023049F0013049F0E4
:104C3000033009F091CF05E08FCF02E08DCF03E084
:104C40008BCF04E089CF6FE272E18EED92E10F9499
:104C50001B0C9F928F921F92CF938FE993E09F93AB
:104C60008F9384E292E19F938F930F9441128DB7BB
:104C70009EB708960FB6F8949EBF0FBE8DBF94CF17
:104C8000113019F461E272E1BBCF123019F46AE11C
:104C900072E1B6CF133009F0B7CF62E172E1B0CF65
:104CA000DF91CF911F910F91FF90EF90DF90CF9008
:104CB000BF90AF909F908F907F906F905F904F903C
:104CC00008958F929F92AF92BF92CF92DF92EF9210
:104CD000FF920F931F93CF93DF938091B50D909127
:104CE000B60D8234910569F08434910511F080E0AD
:104CF000BDC111E02091C00D263A08F010E022E07D
:104D000002C010E020E02F5FC12CD12C7601029769
:104D1000E22FF0E0E817F907D4F4EB54F24F3185B5
:104D20003A3160F0313318F732853A3100F7CC0C64
:104D3000DD1CEE1CFF1C6894C0F807C032853931B9
:104D4000B0F2CC0CDD1CEE1CFF1C2E5FE1CF90916D
:104D5000AC0D8091AB0D981311C08090B10D909067
:104D6000B20DA090B30DB090B40D0F940D0886163F
:104D70009706A806B90610F081E078C1C114D104E5
:104D8000E104F10409F4B3CF1111BDC0D701C6018C
:104D9000CEE1B695A79597958795CA95D1F78D7F62
:104DA00009F0A5CF8F2D9927AA27BB27282F2F736E
:104DB00009F49DCF2F3309F49ACF382F3F70082F75
:104DC0000770073009F493CF3B3009F490CF2330BC
:104DD00009F48DCF263009F48ACF293009F487CF22
:104DE0002C3009F484CF382F3F71313109F47FCF53
:104DF000243109F47CCF3A3109F479CF3D3109F4FB
:104E000076CF213209F473CF243209F470CF2A32DD
:104E100009F46DCF2D3209F46ACF3DEC320F3230F8
:104E200008F465CF30E0A901F3E055954795FA9570
:104E3000E1F7D42FD170A4E035952795AA95E1F735
:104E4000C22F033009F480C02330B1F4063019F4C6
:104E500081E0D8277AC08370813031F0011105C01C
:104E600081E0D827C8E07AC0C4E0023009F46FC0FE
:104E7000043009F073C06BC0211116C0C1E00630C8
:104E800049F0013039F0C0E0053021F481E0D82745
:104E9000C5E064C0837009F45CC0023009F05EC0F4
:104EA00081E0D827CDE05AC02230B1F4063019F4A1
:104EB00081E0D82753C08370813031F0011105C0E3
:104EC00081E0D827CAE04AC0C6E0023009F443C0F6
:104ED000043009F043C03FC0063021F481E0D827F8
:104EE000C3E03CC08370813031F0011106C081E025
:104EF000D827CBE033C0C7E001C0C1E0023069F180
:104F0000043061F52AC0BB27AF2D9E2D8D2D2C2D91
:104F100020952813ECCEC82FC77086958695869568
:104F200019F4C250D1E001C0D0E08F2D9927AA27F3
:104F3000BB27982F88278E0D911D6C01EE24D7FC7E
:104F4000E094FE2C00E00AC0D22FC0E007C0CCE005
:104F500005C0C9E003C0CEE001C0CFE06EE072E161
:104F60008EED92E10F941B0C80916D1291E0980FE1
:104F700090936D120E94AC1165E072E18EED92E1AA
:104F80000F941B0C1130C9F4EE24FF24FF92EF9212
:104F9000DF92CF9289EB93E09F938F9384E292E12B
:104FA0009F938F930F9441128DB79EB708960FB6BB
:104FB000F8949EBF0FBE8DBF17C0FF24FF92EF92E3
:104FC000DF92CF9285E593E09F938F9384E292E105
:104FD0009F938F930F9441128DB79EB708960FB68B
:104FE000F8949EBF0FBE8DBF64E272E18EED92E138
:104FF0000F94400C1F92CF938AE295E09F938F937A
:1050000084E292E19F938F930F94411264E272E1E4
:105010008EED92E10F94400C60E072E18EED92E132
:105020000F941B0C0F900F900F900F900F900F90FC
:10503000033031F46CEF71E18EED92E10F941B0CB3
:10504000D13019F468EF71E102C063EF71E18EEDC8
:1050500092E10F941B0C8EED92E10F94480C81E0CD
:105060008093B70D1092B60D1092B50DDF91CF91D0
:105070001F910F91FF90EF90DF90CF90BF90AF9076
:105080009F908F9008958F929F92AF92BF92CF92F0
:10509000DF92EF92FF920F931F93CF93DF93809154
:1050A000B50D9091B60D8036910509F051C0EFEB2A
:1050B000FDE080E090E0C0E0C12CD12C760120E042
:1050C00030813E30B0F0883018F4220F216021C0CA
:1050D000803238F4CC0CDD1CEE1CFF1C6894C0F848
:1050E00018C0883218F4CC0FC16013C0990F9160BA
:1050F00010C0883010F4220F0CC0803228F4CC0C81
:10510000DD1CEE1CFF1C05C0883210F4CC0F01C062
:10511000990F32968F5F803399F62535C9F49F3FFA
:10512000B9F49091AC0D8091AB0D981313C08090A1
:10513000B10D9090B20DA090B30DB090B40D0F943E
:105140000D0886169706A806B90620F081E072C001
:1051500080E070C0AC2EB12CC50195958795182FB5
:1051600017700C2F0170C0FD1F5F6FEE71E18EEDA7
:1051700092E10F941B0C80916D1291E0980F909327
:105180006D120E94AC1164EE71E18EED92E10F940C
:105190001B0CFF24FF92EF92DF92CF9285E593E004
:1051A0009F938F93C4E2D2E1DF93CF930F94411288
:1051B000BE018EED92E10F94400C1F921F93C5012A
:1051C00034E0959587953A95E1F78F5B1F928F9321
:1051D0008CEA93E09F938F93DF93CF930F944112C8
:1051E000BE018EED92E10F94400C6FED71E18EEDFA
:1051F00092E10F941B0C8DB79EB740960FB6F894B2
:105200009EBF0FBE8DBF011112C06AED71E18EED20
:1052100092E10F941B0C8EED92E10F94480C81E00B
:105220008093B70D1092B60D1092B50D03C066EDC8
:1052300071E1EDCFDF91CF911F910F91FF90EF9032
:10524000DF90CF90BF90AF909F908F9008958F92F6
:105250009F92AF92BF92CF92DF92EF92FF920F9305
:105260001F93CF93DF938091B50D9091B60D82344B
:10527000910579F08434910511F080E078C1809136
:10528000BF0D8333D0F38091C00D8536B0F322E09B
:1052900001C020E042E0420FC12CD12C760130E069
:1052A0002F5B3F4F842F90E02817390774F0FC01E3
:1052B000EB54F24F8185CC0CDD1CEE1CFF1C8A31B7
:1052C00010F06894C0F84E5FEDCF9091AC0D8091D6
:1052D000AB0D981311C08090B10D9090B20DA090BD
:1052E000B30DB090B40D0F940D0886169706A8065E
:1052F000B90610F081E03BC1C114D104E104F1040E
:1053000009F4BBCF8F2D9927AA27BB272E2D2095D7
:105310002813B3CF2D2DC094DC10AFCF382F3F70A2
:10532000807F803709F440C0803409F419C180358A
:1053300041F0803869F0803981F0C0E0803A91F026
:1053400002C0C3E032C0803B91F0803EA9F002C0B1
:10535000C4E02BC0803FA9F002C0C5E026C0803C5D
:10536000A9F002C0C6E021C0803DB1F002C0C7E094
:105370001CC0882399F002C0C8E017C0803181F0BA
:1053800002C0C9E012C0803269F002C0CAE00DC09C
:10539000803359F4CFE009C0CBE007C0CCE005C0B2
:1053A000CDE003C0CEE001C0C1E0222309F4DAC0A1
:1053B000203209F4D9C0203149F0203371F028306F
:1053C00091F010E000E0283299F002C011E006C030
:1053D0002831A1F02833B9F003C010E002E041C049
:1053E0002034B9F002C011E004C02036B9F003C087
:1053F00010E003E036C02035B9F002C011E004C06F
:105400002037B9F003C010E004E02BC02834B9F015
:1054100002C011E004C02836B9F003C010E005E076
:1054200020C02835B9F002C011E004C02837B9F017
:1054300003C010E006E015C02838C9F002C011E032
:1054400004C02839B1F003C010E007E00AC02038DA
:1054500091F002C011E004C0203979F002C010E0E0
:1054600008E0343061F4123050F4085F08C012E0F4
:1054700005C013E003C014E001C015E000E062EDD8
:1054800071E18EED92E10F941B0C80916D1291E011
:10549000980F90936D120E94AC116CEC71E18EED3F
:1054A00092E10F941B0C8C2F90E08F5B9F4F9F938A
:1054B0008F938AE693E09F938F93C4E2D2E1DF93C8
:1054C000CF930F944112BE018EED92E10F94400CE8
:1054D0001F920F938FE593E09F938F93DF93CF936A
:1054E0000F944112BE018EED92E10F94400C67ECD7
:1054F00071E18EED92E10F941B0C8DB79EB70C9667
:105500000FB6F8949EBF0FBE8DBF111103C062ECA1
:1055100071E116C0113019F46EEB71E111C0123057
:1055200019F466EB71E10CC0133019F461EB71E111
:1055300007C0143019F469EA71E102C062EA71E14E
:105540008EED92E10F941B0C8EED92E10F94480CBE
:1055500081E08093B70D1092B60D1092B50D07C083
:10556000C2E023CF11E001C010E001E02CCFDF91B9
:10557000CF911F910F91FF90EF90DF90CF90BF9050
:10558000AF909F908F900895CF92DF92EF92FF920D
:105590000F931F93CF93DF938091B50D9091B60D2C
:1055A0009C01245B31092730310508F016C161E008
:1055B000B0E070E050E040E0A0E0C12CD12C7601DA
:1055C0000297C1E0262F30E0F901EB54F24F281783
:1055D0003907BCF52185B13041F02C52293050F10A
:1055E000653608F0FAC0B0E028C02A51273090F4A0
:1055F000513009F4F2C021E0711120E0722F4032E5
:10560000F0F4CC0CDD1CEE1CFF1C213081F0689402
:10561000C0F80DC0552381F0403298F4CC0CDD1C4D
:10562000EE1CFF1C713011F06894C0F8AC274F5F7E
:1056300050E003C0B1E001C051E06F5FC3CF81E033
:1056400001C080E0938598529B3008F0C6C0A81333
:10565000C4C0E601DD276EE971E18EED92E10F94A1
:105660001B0C80916D1291E0980F90936D120E9427
:10567000AC1163E971E18EED92E10F941B0CC7014F
:10568000AA27BB27BF93AF939F938F9386EC93E09A
:105690009F938F9304E212E11F930F930F94411293
:1056A000B8018EED92E10F94400CCD2CDE2CEF2C46
:1056B000FF24DD24DF92CF9285EA94E09F938F93BD
:1056C0001F930F930F944112B8018EED92E10F9446
:1056D000400CDF93CF938AE295E09F938F931F93C3
:1056E0000F930F944112B8018EED92E10F94400C8C
:1056F0006EE871E18EED92E10F941B0C8DB79EB7B1
:1057000044960FB6F8949EBF0FBE8DBF209739F414
:1057100065E574E08EED92E10F94400C52C0C1300B
:10572000D10519F469E871E105C0C230D10539F439
:105730006FE771E18EED92E10F941B0C42C0C33014
:10574000D10519F467E771E1F5CFC530D10519F43A
:105750006AE671E1EFCFC430D10519F46BE571E170
:10576000E9CFC738D10519F460E571E1E3CFC4335F
:10577000D10519F464E471E1DDCFC837D10519F41E
:1057800066E371E1D7CFCD35D10519F469E271E156
:10579000D1CFDF93CF9383E793E09F938F9384E2FE
:1057A00092E19F938F930F94411264E272E18EED28
:1057B00092E10F94400C0F900F900F900F900F906C
:1057C0000F908EED92E10F94480C81E08093B70D1D
:1057D0001092B60D1092B50D01C080E0DF91CF910F
:1057E0001F910F91FF90EF90DF90CF9008954F920F
:1057F0005F926F927F928F929F92AF92BF92CF9261
:10580000DF92EF92FF920F931F93CF93DF938091DC
:10581000B50D9091B60D8436910509F097C0809131
:10582000BF0D823408F492C021E0863808F420E0ED
:1058300030E0A1E080E090E0C12CD12C7601812CF9
:10584000912C5401A9014F595F4FB9016E5F7F4FF1
:105850002B54324FFB01E80FF91F4E175F07BCF1C5
:10586000F901E80FF91FB385B131C8F0BB3108F079
:105870006DC0E485EE3008F069C0EFEFEA0FE83163
:1058800038F4880C991CAA1CBB1C689480F81BC0B7
:10589000CC0CDD1CEE1CFF1C6894C0F814C0BB309F
:1058A00008F054C0E485ED3008F450C0EFEFEA0F83
:1058B000E83128F4880C991CAA1CBB1C04C0CC0C31
:1058C000DD1CEE1CFF1C0296AF5FA43319F6CC2D35
:1058D000DDE7DC0DD23080F08091200E8B30B0F50A
:1058E0008091210E8B3090F5D11030C0E1102EC088
:1058F0008C2D8F73813051F59091AC0D8091AB0D53
:10590000981326C04090B10D5090B20D6090B30D29
:105910007090B40D8CED480E85E0581E611C711C12
:105920000F940D08461657066806790688F0809190
:10593000AD0D9091AE0DA091AF0DB091B00D8C1545
:105940009D05AE05BF0521F481E00BC180E009C1D2
:10595000C092AD0DD092AE0DE092AF0DF092B00DB1
:10596000D23008F498C0D501C40153E0B695A7958C
:10597000979587955A95D1F78370823031F08130B1
:1059800031F0833031F001E405C002E403C003E4E8
:1059900001C004E4D701C60127E0B695A795979505
:1059A00087952A95D1F7182F117065E271E18EED78
:1059B00092E10F941B0C80916D1291E0980F9093DF
:1059C0006D120E94AC1167E171E18EED92E10F94CE
:1059D0001B0CD501C40135E0B695A7959795879521
:1059E0003A95D1F7BB27BF93AF939F938F9385E5EC
:1059F00093E09F938F93C4E2D2E1DF93CF930F9410
:105A00004112BE018EED92E10F94400C882D8370FF
:105A10008F5F1F928F931F920F938CEA93E09F9357
:105A20008F93DF93CF930F944112BE018EED92E1DD
:105A30000F94400C62E171E18EED92E10F941B0C2A
:105A400046E0F694E794D794C7944A95D1F78DB77A
:105A50009EB740960FB6F8949EBF0FBE8DBFC0FE96
:105A600006C06EE071E18EED92E10F941B0C1111F6
:105A700075C069E071E18EED92E10F941B0C8EED23
:105A800092E10F94480C81E08093B70D1092B60D0F
:105A90001092B50D66C061E071E18EED92E10F9458
:105AA0001B0C80916D1291E0980F90936D120E94E3
:105AB000AC1163EF70E18EED92E10F941B0CBB24EF
:105AC000BF92AF929F928F9285E593E09F938F93C1
:105AD00004E212E11F930F930F944112B8018EED6F
