:100000000C94230D0C94540D0C94540D0C94540D1D
:100010000C94540D0C94540D0C94540D0C94540DDC
:100020000C94540D0C94540D0C94540D0C94540DCC
:100030000C94540D0C94540D0C94540D0C94540DBC
:100040000C94540D0C94540D0C94540D0C94540DAC
:100050000C94540D0C94540D0C94540D0D9488353F
:100060000C94540D0D9412390D9448390C94540D80
:100070000C94540D0C94540D0C94540D0C94540D7C
:100080000C94540D0C94540D0C94540D0C94540D6C
:100090000C94540D0C94540D0C94540D0C94540D5C
:1000A0000C94540D0C94540D0C94540D0C94540D4C
:1000B0000C94540D0C94540D0C94540D0C94540D3C
:1000C0000C94540D0C94540D0C94540D0C94540D2C
:1000D0000C94540D0C94540D0C94540D0C94540D1C
:1000E0000C94540DA200DA00E800FA009400CA0053
:1000F0009800AE00B4000001EE00FE00C800CC0085
:10010000CA00DC00E400C4000D94E6230D941E0D2B
:100110000D94D4010D9471390D942A210D94FF038F
:100120000D94241B0D94A1370D94CC360D94050627
:100130000D94D7360D944E380D94D7210D948A0B1B
:100140000D947C200D94D0360D94D9260D942D3825
:100150000D941B010D940C090D94DF180D94DB36E2
:100160000D944F130D9472150D94E1360D948E1F5E
:100170000D941A1A0D94580F0D94CA390D94130545
:100180000D94A0250D94700E0D9405370D94002547
:100190000D94F3360D940A370D94F7360D946414CC
:1001A0000D94D0370D9476160D948E070D9410266D
:1001B0000D9487120D94D3360D94FD360D94A3370C
:1001C0000D94EC1D0D94AE370D9401370D94DF2284
:1001D0000D94C2360D94F0170D9417030D94E93663
:1001E0000D94B61E0D94CE1C0D94700A0D9424101F
:1001F0000D9480260D94C6360D94081C0D94EF3690
:100200000D94E5360D947A390D9485110D94BC3713
:100210003B003B003B43483D003B424C45204445AE
:100220004255473B4C454E3D003B44454255473DBA
:10023000003B733D003B743D003B706C747970650E
:100240003D003B4C656E3D003B003B4C55583D002E
:100250004F4E3B004F46463B003B535749544348A3
:100260003D313B434D443D003B003B48554D3D0037
:100270003B4D7953656E736F72733B49443D003B50
:10028000003B003B733D003B743D003B706C747958
:1002900070653D003B4D7953656E736F72733B4CD7
:1002A000656E3D003B4D7953656E736F722044451A
:1002B0004255473B003B416E736C75746120444569
:1002C0004255473B004F4E3B005345545F4C45560B
:1002D000454C3D383B004F46463B00434D443D00B6
:1002E0003B5357495443483D303B003B416E736C90
:1002F0007574613B49443D0042797465733D003B30
:10030000416E736C7574612044454255473B003B18
:100310004C6976436F6C2044454255473B004F4E35
:100320003B004F46463B00434D443D003B4C495645
:10033000434F4C3B49443D0042797465733D003B5B
:100340004C6976436F6C2044454255473B00444915
:1003500053434F2D3B00444953434F2B3B004D4FDC
:10036000444500434F4C4F523B004252494748548A
:100370003B004F46463B004F4E3B00414C4C004338
:100380004D443D003B4D694C6967687476313B498B
:10039000443D0042797465733D003B4D694C69678B
:1003A00068742044454255473B00434D443D4F4E01
:1003B00000434D443D4F4646005357495443483D42
:1003C000303B0049443D333B003B4750494F736548
:1003D000743B00434D443D4F4E00434D443D4F461A
:1003E00046005357495443483D303B0049443D3251
:1003F0003B003B4750494F7365743B00434D443DC0
:100400004F4E00434D443D4F4646005357495443D9
:10041000483D303B0049443D313B003B4750494F4C
:100420007365743B00434D443D4F4E00434D443D86
:100430004F4646005357495443483D303B004944DA
:100440003D303B003B4750494F7365743B003B5088
:10045000756C7365732875536563293D003B44458E
:100460004255473B50756C7365733D0032303B001D
:100470003B50756C7365732875536563293D003B6C
:1004800044454255473B50756C7365733D003230AF
:100490003B003B536C6176653B44656275673D008C
:1004A00032303B003B536C6176653B0032303B00A1
:1004B0003B536C6176653B44656275673D00323045
:1004C0003B003B536C6176653B0032303B00323081
:1004D0003B00534D4F4B45414C4552543D4F4E3BD5
:1004E000005357495443483D30313B434D443D4F01
:1004F0004E3B003B524D31373452463B0032303B8D
:1005000000534D4F4B45414C4552543D4F4E3B00DF
:100510005357495443483D30313B434D443D4F4E82
:100520003B003B416C6563746F53413B0032303B91
:1005300000474F444F574E3B00474F55503B0053E9
:10054000544F503B004F4E3B004F46463B00444FFC
:10055000574E3B0055503B00434D443D00535749D7
:100560005443483D30333B005357495443483D3092
:10057000323B005357495443483D30313B003B4DDB
:10058000657274696B3B0032303B00474F444F57F4
:100590004E3B00474F55503B0053544F503B004F8C
:1005A0004E3B004F46463B00444F574E3B00555094
:1005B0003B00434D443D005357495443483D31337C
:1005C0003B005357495443483D31323B0053574950
:1005D0005443483D31313B004D657274696B5F4750
:1005E0005636303B00534D4F4B45414C4552543DE0
:1005F0004F4E3B005357495443483D30313B434DE8
:10060000443D4F4E3B003B4641323052463B003268
:10061000303B004348494D453D30313B005357493D
:100620005443483D313B434D443D4F4E3B003B44DA
:100630006F6F7262656C6C3B0032303B004348491F
:100640004D453D30313B005357495443483D313BC4
:10065000434D443D4F4E3B003B46726965646C61BF
:100660006E643B0032303B004348494D453D3031DC
:100670003B005357495443483D313B434D443D4F64
:100680004E3B003B446F6F7262656C6C3B003230D6
:100690003B004348494D453D30313B005357495499
:1006A00043483D313B434D443D4F4E3B003B456C41
:1006B000726F44423B0032303B004348494D453D58
:1006C00030313B005357495443483D313B434D443F
:1006D0003D4F4E3B003B446F6F7262656C6C3B005C
:1006E00032303B004348494D453D30313B00535784
:1006F000495443483D313B434D443D4F4E3B003B05
:1007000053696C766572637265737444423B003260
:10071000303B004348494D453D30313B005357493C
:100720005443483D313B434D443D4F4E3B003B42DB
:1007300079726F6E204D503B0032303B0043484988
:100740004D453D30313B005357495443483D313BC3
:10075000434D443D4F4E3B003B44656C74726F6E9D
:1007600069633B0032303B003B4279726F6E3B0065
:1007700032303B005357495443483D313B434D448D
:100780003D4F4E3B003B506C69656765723B0032E4
:10079000303B00434D443D4F4E3B4348494D453D62
:1007A00030313B003B53656C656374506C75733B33
:1007B0000032303B004F4B3B004C4F573B004F4B00
:1007C0003B004241543D00434D443D4F46463B00B3
:1007D000434D443D4F4E3B003B5357495443483DE6
:1007E00030313B003B4B6F6E69675365633B494457
:1007F0003D0032303B00434D443D4F4E3B00434DA6
:10080000443D4F46463B005357495443483D3031E1
:100810003B003B44697465633B0032303B00444518
:100820004255473D003B434D443D4F4E3B005357DF
:10083000495443483D003B46726965646C616E648F
:100840003B0032303B004F46463B004F4E3B00439F
:100850004D443D005357495443483D30313B003BE4
:100860004C6F6265636F3B0032303B00434D443D4B
:100870004F4E3B005357495443483D30313B003BBA
:100880004D433134353032363B0032303B004F4E31
:10089000004F4E004F4E004F4E004F4E004F464609
:1008A000004F4646004F4E004F4646004F4E004F09
:1008B0004646004F4E003B5357495443483D303164
:1008C0003B434D443D003B41746C616E7469633B36
:1008D00049443D0032303B004241543D4C4F573B70
:1008E000004241543D4F4B3B00434D443D4F4E3B36
:1008F00000434D443D4F46463B003B4B65656C6FA6
:10090000713B49443D0032303B00434D443D4F4E26
:100910003B003B5831303B0032303B00434D443DBF
:100920004F4E3B00434D443D4F46463B00535749D5
:100930005443483D30323B003B436875616E676FFE
:100940003B0032303B00434D443D4F4E3B003B4566
:1009500056313532373B0032303B00434D443D4F3A
:100960004E3B005357495443483D30313B003B48D0
:10097000543132453B0032303B0046697273746C2F
:10098000696E653B0044696769746563683B004252
:1009900041543D4C4F573B004241543D4F4B3B006F
:1009A0003B424C3939393B0032303B003B524654D4
:1009B0006563683B0032303B004241543D4C4F5729
:1009C0003B004241543D4F4B3B003B42616C6472E3
:1009D0003B003B4C6163726F73736556343B00326E
:1009E000303B003B4163757269746556333B00329E
:1009F000303B003B496E6F56616C6C65795F534DBF
:100A00003230303B0032303B003B416C6563746FE9
:100A10005F313330305F536F696C3B0032303B00E5
:100A20003B416C6563746F5F313330305F41697295
:100A30003B0032303B003B5748333B0032303B00F9
:100A40004241543D4C4F573B004241543D4F4B3B7C
:100A5000003B4163757269746556323B0032303B2E
:100A6000004241543D4C4F573B004241543D4F4B97
:100A70003B003B416375726974653B0032303B005B
:100A80003B46696E654F6666736574323B00323073
:100A90003B004241543D4C4F573B004241543D4F77
:100AA0004B3B003B5748353032393B0032303B003E
:100AB0003B436F6E7261643B0032303B003B4269E6
:100AC0006C74656D613B49443D3030003B52465883
:100AD00031304D455445523B0032303B003B4F7264
:100AE00065676F6E205747523830303B444542555A
:100AF000473D003B4F7265676F6E20434D31383084
:100B00003B49443D3030003B4F7265676F6E204378
:100B10004D3131393B49443D3030003B4F726567C0
:100B20006F6E20434D3136303B49443D3030003B01
:100B30004F7265676F6E20434D3133303B49443D02
:100B40003030003B4F7265676F6E20434D3131335B
:100B50003B49443D004241543D4F4B3B00424154D0
:100B60003D4C4F573B003B4F7265676F6E205556AB
:100B70004E3830303B49443D004241543D4F4B3BA1
:100B8000004241543D4C4F573B003B4F7265676FED
:100B90006E2055564E3178383B49443D0042415411
:100BA0003D4F4B3B004241543D4C4F573B003B4F68
:100BB0007265676F6E2057696E64323B49443D0031
:100BC0004241543D4F4B3B004241543D4C4F573BFB
:100BD000003B4F7265676F6E2057696E643B4944F6
:100BE0003D004241543D4C4F573B004241543D4F24
:100BF0004B3B003B4F7265676F6E205261696E32EE
:100C00003B49443D004241543D4F4B3B004241541F
:100C10003D4C4F573B003B4F7265676F6E205261F2
:100C2000696E3B49443D004241543D4C4F573B00A7
:100C30004241543D4F4B3B003B4F7265676F6E2006
:100C40004254483B49443D004241543D4C4F573B80
:100C5000004241543D4F4B3B003B4F7265676F6E06
:100C60002054656D70487967726F3B49443D00427E
:100C700041543D4C4F573B004241543D4F4B3B008C
:100C80003B4F7265676F6E2054656D703B49443D04
:100C9000004241543D4F4B3B004241543D4C4F5765
:100CA0003B003B4F7265676F6E56313B49443D30A8
:100CB00030003B42696F77696E3B0032303B004247
:100CC00041543D4F4B3B004241543D4C4F573B003C
:100CD0003B54756E65783B49443D003B5869726FE3
:100CE0006E3B49443D003B417572696F6C20563242
:100CF0003B49443D004241543D4F4B3B004241542F
:100D00003D4C4F573B003B417572696F6C3B49440A
:100D10003D3030003B417572696F6C2056333B4962
:100D2000443D003B4C6143726F7373653B49443DE6
:100D30000032303B003B4C6143726F7373653B493B
:100D4000443D0032303B003B55504D5F4573696375
:100D50002046323B49443D004241543D4F4B3B000D
:100D60004241543D4C4F573B003B55504D5F4573FE
:100D700069633B49443D003B4C6143726F7373654B
:100D800056333B49443D0032303B003B4C6143729B
:100D90006F73736556333B49443D0032303B003B33
:100DA0004C6143726F73736556333B49443D003267
:100DB000303B003B4C6143726F73736556333B4964
:100DC000443D0032303B003B4C6143726F737365AE
:100DD00056333B49443D0032303B003B4C6143724B
:100DE0006F73736556333B49443D0032303B003BE3
:100DF0004D656275733B0032303B004241543D4FBC
:100E00004B3B004241543D4C4F573B003B496E6FBA
:100E100056616C6C65793B0032303B003B4B72692C
:100E200070706C3B0032303B004241543D4F4B3BB5
:100E3000004241543D4C4F573B003B50726F6C6F2A
:100E40006775653B0032303B003B4575726F6368E8
:100E5000726F6E3B0032303B003B575430313232C0
:100E60003B0032303B003B003B4372657374613B97
:100E700044454255473B49443D004241543D4C4F57
:100E8000573B004241543D4F4B3B003B437265731F
:100E900074613B49443D004241543D4C4F573B0037
:100EA0004241543D4F4B3B003B4372657374613B81
:100EB00049443D004241543D4C4F573B0042415450
:100EC0003D4F4B3B003B4372657374613B49443D6E
:100ED000004241543D4C4F573B004241543D4F4B23
:100EE0003B003B4372657374613B49443D004241A2
:100EF000543D4C4F573B004241543D4F4B3B003B10
:100F00004372657374613B49443D003B416C6563CA
:100F1000746F2056353B0032303B004241543D4C0B
:100F20004F573B004241543D4F4B3B003B506F6C91
:100F30006C696E3B003B476C6F62616C54726F6E04
:100F40006963733B003B416C6563746F2056343BAF
:100F50000032303B003B416C6563746F56333B009D
:100F60003B58543230303B003B46696E654F6666F5
:100F70007365743B003B496D6167696E74726F6E97
:100F800069783B0032303B00416C6563746F2056DA
:100F9000313B00416C6563746F2056313B00416CFE
:100FA0006563746F2056313B004241543D4C4F57AE
:100FB0003B004241543D4F4B3B003B416C656374E9
:100FC0006F2056313B0032303B004241543D4C4F84
:100FD000573B004241543D4F4B3B003B463030377E
:100FE0005F783B003B463030375F545F50463B00F4
:100FF0003B463030375F54483B0032303B0053545F
:101000004F503B00444F574E3B0055503B00434D23
:10101000443D003B4C6977696E3B0032303B004FEA
:101020004E3B004F46463B00414C4C00434D443D37
:10103000003B5374656666656E3B0032303B004F83
:1010400046463B004F4E3B00414C4C00434D443D17
:10105000003B4E696E67626F3B0032303B003B00E5
:101060004F46463B004F4E3B004F4E3B00444F57D0
:101070004E3B0055503B00434D443D0053574954AF
:1010800043483D323B005357495443483D313B00B0
:101090005357495443483D303B003B426F736368AC
:1010A0003B0032303B00434D443D4F46463B0043FE
:1010B0004D443D53544F503B00434D443D444F57E6
:1010C0004E3B00434D443D55503B0053574954431C
:1010D000483D303B00434D443D4F4E3B0053574944
:1010E0005443483D003B4854365032303B00323088
:1010F0003B004F46463B004F4E3B00434D443D00B6
:101100003B54523030393B0032303B0053544F5047
:101110003B00444F574E3B0055503B00434D443D30
:10112000003B4761706F73613B0032303B003B47CF
:1011300041504F53413B44454255473D0032303BBF
:10114000003B5265766F6C743B0032303B004F467B
:10115000463B004F4E3B00434D443D003B48616CD5
:10116000656D656965723B0032303B0032303B0093
:101170004F4E3B004F46463B00434D443D003B4EE7
:101180006F76617479733B0032303B004F46463BCB
:101190000053544F503B004F4E3B00414C4C0043DA
:1011A0004D443D003B466F726573743B49443D00BE
:1011B00032303B004F4E3B00434D443D003B4C69B9
:1011C000766F6C6F3B0032303B0053544F503B0006
:1011D000504149523B0053544F503B0055503B0047
:1011E000444F574E3B00434D443D003B4B696E67B7
:1011F00070696E3B0032303B004F46463B004F4E1D
:101200003B00414C4C00434D443D003B4B6F6368F9
:101210003B0032303B0053544F503B004F4E3B009D
:1012200053544F503B00444F574E3B0055503B00EA
:1012300053544F503B00444F574E3B0055503B00DA
:10124000434D443D005357495443483D30313B00E2
:101250003B5254533B0032303B0032303B0053543E
:101260004F503B004F4E3B0053544F503B00444FB8
:10127000574E3B0055503B0053544F503B00444F9A
:10128000574E3B0055503B00434D443D005357499A
:101290005443483D30313B003B5254533B003230C5
:1012A0003B0032303B0053544F503B004F4E3B000D
:1012B00053544F503B00444F574E3B0055503B005A
:1012C00055503B00444F574E3B0053544F503B004A
:1012D000444F574E3B0055503B00434D443D005357
:1012E00057495443483D30313B003B5254533B0037
:1012F00032303B0032303B004C4F573B004F4B3BB2
:10130000004241543D004F4E3B004F46463B00419A
:101310004C4C00434D443D003B46756E6B6275730B
:101320003B0032303B0053544F503B00444F574E2C
:101330003B0055503B00434D443D003B446F6F79AB
:10134000613B0032303B0053544F503B004C4F4305
:101350004B3B0053544F503B00444F574E3B0055BE
:10136000503B00434D443D003B4272656C4D6F74F1
:101370006F723B0032303B004C494D49543B0043B7
:101380004F4E4649524D3B0053544F503B00444F43
:10139000574E3B0055503B00434D443D003B426F90
:1013A00066754D6F746F723B0032303B004F46469E
:1013B0003B004F4E3B00414C4C00434D443D003BF5
:1013C00053696C76657243726573743B0032303BCF
:1013D000005357495443483D30303B0032303B00C6
:1013E0004F46463B004F4E3B00434D443D003B5271
:1013F0003534363B0032303B004F4E3B004F4646C3
:101400003B00434D443D003B58313053656375729A
:10141000653B0032303B004F46463B00414C4C4F51
:1014200046463B004F46463B004F4E3B0053544F11
:10143000503B004F4E3B004F46463B00414C4C4F0B
:1014400046463B004F4E3B004F46463B00434D4413
:101450003D003B4C69676874776176653B003230CC
:101460003B004F46463B004F4E3B00414C4C004337
:101470004D443D003B556E697465633B0032303B23
:10148000004F46463B004F4E3B00414C4C00434D05
:10149000443D003B4575726F70653B0032303B0048
:1014A0004F4E3B004F46463B004F4E3B004F46469B
:1014B0003B00434D443D005357495443483D30326F
:1014C0003B005357495443483D30313B003B417347
:1014D0007465723B0032303B004F4E3B004F464636
:1014E0003B00414C4C00434D443D003B4D61636C1F
:1014F00065616E3B0032303B004F4E3B004F46462D
:101500003B00414C4C00434D443D0032303B004FCA
:101510004E3B004F46463B00434D443D003B496B2C
:101520006561204B6F70706C613B0032303B004155
:101530004C4C4F4E3B00414C4C4F46463B004449BF
:101540004D3B004252494748543B004F4E3B004FF1
:1015500046463B00434D443D003B506F7765726605
:1015600069783B0032303B004F46463B004F4E3BD4
:1015700000434D443D003B46413530303B00323066
:101580003B003B486F6D65436F6E666F72743B0046
:1015900032303B004F4E3B004F46463B00414C4CE7
:1015A00000434D443D003B486F6D65436F6E666F71
:1015B00072743B0032303B00444953434F2D3B0093
:1015C000444953434F2B3B004252494748543B0048
:1015D00044494D3B004F46463B00434D443D003B94
:1015E00054524330325247423B0032303B00414C70
:1015F0004C4F4E3B00414C4C4F46463B0044494DFE
:101600003B004252494748543B004F4E3B004F4637
:10161000463B00434D443D003B5831303B003230A7
:101620003B004F4E3B004F46463B00434D443D0080
:101630003B4B616D62726F6F6B3B0032303B004F12
:1016400046463B004F4E3B00414C4C00434D443D11
:10165000003B436F6E7261643B0032303B00414C93
:101660004C4F46463B00414C4C4F4E3B004F46468C
:101670003B004F4E3B00434D443D003B4176696487
:1016800073656E3B003B426C7973733B0032303BB9
:10169000004F4E3B004F46463B004F46463B004FF7
:1016A0004E3B004F4E3B004F46463B00414C4C00EA
:1016B000434D443D003B4575726F646F6D657374B7
:1016C0003B0032303B00414C4C4F4E3B00414C4CB8
:1016D0004F46463B004F4E3B004F46463B00434D76
:1016E000443D003B4E65774B616B753B0032303BB0
:1016F000004F46463B004F4E3B004F4E3B004F468F
:10170000463B00414C4C00434D443D003B54726904
:1017100053746174653B003B5054323236323B00A7
:101720003B5068696C6970733B003B496D70756C28
:10173000733B003B53617274616E6F3B003B496DBC
:1017400070756C733B003B4142343030443B003B8E
:101750004B616B753B0032303B003B4C6143726F19
:1017600073736556323B49443D003B4C6143726F95
:1017700073736556323B49443D003B4C6143726F85
:1017800073736556323B49443D003B4C6143726F75
:1017900073736556323B49443D003B50756C73652D
:1017A000732875536563293D003B44454255473BCB
:1017B00050756C7365733D0032303B003B4C4541C6
:1017C000524E3B0032303B00536C6176653B4465C2
:1017D0006275673D00536C6176653B0032303B308B
:1017E000303B4E6F646F20526164696F4672657161
:1017F00075656E63794C696E6B202D2052464C697D
:101800006E6B20476174657761792056312E3120E7
:101810002D20001112131415160A0B0C0D0E0F00BB
:10182000010203040500000A0B02090C0D0E080753
:1018300003040100000000000000000000000000A0
:101840000000000000000000000000000000000098
:101850000012111000000000000000000000000055
:101860000000000000000000000000010210202025
:1018700008081020401020408002010201080402E4
:10188000010102040810204080804020100804025A
:1018900001800402018040201008040201080402B3
:1018A00001010204081020408001020408102040B9
:1018B0008005050505070508080808020202020A56
:1018C0000A080804040404010101010101010103E3
:1018D00003030303030303040707070C0C0C0C0C9E
:1018E0000C0C0C0202020206060606060606060B91
:1018F0000B0B0B0B0B0B0B00002000230026002909
:10190000002C002F00320000010000030106010935
:101910000100002200250028002B002E0031003499
:101920000002010000050108010B01000021002454
:101930000027002A002D00300033000101000004C0
:101940000107010A0100407A10F35A00A0724E18F4
:10195000090010A5D4E80000E87648170000E40B61
:1019600054020000CA9A3B000000E1F50500008027
:10197000969800000040420F000000A08601000081
:1019800000102700000000E80300000000640000D1
:101990000000000A00000000000100000000002C10
:1019A00076D888DC674F0823DFC1DFAE59E1B1B7D5
:1019B00096E5E3E453C63AE651997696E8E6C284A2
:1019C00026EB898C9B62ED407C6FFCEFBC9C9F40BA
:1019D000F2BAA56FA5F490055A2AF75C936B6CF9DF
:1019E000676DC11BFCE0E40D47FEF520E6B500D0B5
:1019F000ED902E0300943577050080841E080000CA
:101A0000204E0A000000C80C333333330F986E1297
:101A1000831141EF8D2114893BE65516CFFEE6DB9D
:101A200018D1844B381BF77C1D901DA4BBE42420E7
:101A30003284725E228100C9F124ECA1E53D2700C9
:101A4000F8000201A40011241FBECFEFD1E2DEBFD7
:101A5000CDBF00E00CBF10E1A0E0B2E0E8EAFBE897
:101A600002E00BBF02C007900D92AA32B107D9F76E
:101A700028E1AAE2B0E101C01D92A33CB207E1F760
:101A80001AE1C4E4DAE100E006C022970109FE0190
:101A90000BBF0F94733EC034D10780E00807A9F74D
:101AA0000F94BE390D94C3450C940000FC016150A5
:101AB000A8F09081892F881F8827881F96FD826053
:101AC00095FD846094FD886093FD806192FD806245
:101AD00091FD806490FD80688193E9CF0895FC01B9
:101AE000E459FF4F71836083329610820895EF921C
:101AF000FF920F931F93CF93DF938C01F62EEC018F
:101B0000C459DF4F888199810F9409358881998163
:101B10000F94A93461E070E0888199810F94CA34F0
:101B2000888199810F946535019719F08FEF9FEFA8
:101B300077C060E070E0888199810F94CA34888111
:101B400099810F946535892B89F764E088819981A3
:101B50000F94F73388819981F11024C060E070E020
:101B60000F94CA34F801E259FF4FE081F0E0E35FDF
:101B7000FC4F6081888199810F948B3221E7E22E9E
:101B800031E9F32E0DE71BE620E030E040E050E0C5
:101B900060E0888199810F948A3301E711E92DE78C
:101BA0003BE61CC062E070E00F94CA346CE48881AC
:101BB00099810F948B328CEFE82E91EEF92E08EA82
:101BC00018EA20E030E040E050E060E08881998150
:101BD0000F948A330CEF11EE28EA38EA40E050E027
:101BE00060E070E0888199810F943B3360E08881E8
:101BF00099810F94AC34888199810F94743540E0B9
:101C000060E0888199810F94803563E088819981B3
:101C10000F94B334888199810F94C73280E090E0AB
:101C2000DF91CF911F910F91FF90EF900895FC01EC
:101C3000E259FF4F20812F5F233010F4208301C031
:101C40001082E081F0E0E35FFC4FDC01A459BF4F5C
:101C500060818D919C910D948B32EF92FF920F9346
:101C60001F93CF93DF938C017B01EC01C459DF4FAD
:101C7000888199810F947034B701882777FD80950A
:101C8000982F0F940136888199810F942E33F82E66
:101C90008823B9F0005D1F4F888199810F942E33FE
:101CA000882379F0888199810F94973248E2B801AE
:101CB000888199810F943133888199810F947A3288
:101CC000EBCF8F2DDF91CF911F910F91FF90EF9070
:101CD0000895CF92DF92EF92FF920F931F93CF93CD
:101CE000DF9300D01F92CDB7DEB78C0164E670E0C1
:101CF000B4DF882309F495C1809198168823F9F000
:101D000068EF7BE084E298E10F942D3A80919A1677
:101D100091E0980F90939A160E94B12164EA72E0C4
:101D200084E298E10F94083A60E2C801C0960E94EC
:101D30005C2167E37AE084E298E10F94483A80E01E
:101D400090E0F801E80FF91F22A9220F22AB33A976
:101D500037FF02C02F5F22AB01968730910589F7CC
:101D6000F801F5A8F694F694F694D6A8D294D694F1
:101D700047E0D422E7A8C0AC20E030E02F1570F493
:101D8000F801E20FF31F91AD990F91AF82AD87FF7C
:101D900002C09F5F91AF2F5F3F4FF0CF80919916A8
:101DA000882309F444C068EF7BE084E298E10F9453
:101DB0002D3A80919A1691E0980F90939A160E946E
:101DC000B12164E972E084E298E10F94083A8F2D22
:101DD0000E94B1216BE872E084E298E10F94083A26
:101DE0008D2D0E94B12167E872E084E298E10F94A2
:101DF000083A8E2D0E94B12163E872E084E298E1F6
:101E00000F94083A8C2D0E94B12161E872E084E2BF
:101E100098E10F94083A69E06F0DC801C0960E94DE
:101E20005C216FE772E084E298E10F94383A68EF42
:101E30007BE084E298E10F942D3A80919A1691E02C
:101E4000980F90939A160E94B12160E772E084E2A5
:101E500098E10F94083AF80182A90E94B121E1109B
:101E600044C0F80181AD898382AD8A8383AD8B83C1
:101E700084AD8C8369817A818B819C8109E310E137
:101E800021E042E00F94B13E80913C1080933B10E2
:101E900010923C10C8010F94E63F9F938F9380EB04
:101EA00097E09F938F9389E496E19F938F930F948C
:101EB000934069E476E184E298E10F942D3A0F9023
:101EC0000F900F900F900F900F9084E298E10F9079
:101ED0000F900F900F90DF91CF911F910F91FF9076
:101EE000EF90DF90CF900D94353AF1E0EF1221C0E2
:101EF0006AE672E084E298E10F94083AF80181AD55
:101F0000898382AD8A8383AD8B8384AD8C83698121
:101F10007A818B819C810AE210E120E042E00F94FB
:101F2000B13EB80184E298E10F942D3A68E672E080
:101F30000FC0F6E1EF121FC069E572E084E298E19C
:101F40000F94083AF80181AD811112C064E572E086
:101F500084E298E10F900F900F900F90DF91CF9156
:101F60001F910F91FF90EF90DF90CF900D94383A32
:101F700060E572E0EDCFF1E1EF1211C06AE472E0CA
:101F800084E298E10F94083AF80182AD0E94B121F1
:101F9000F80181AD0E94B12168E472E0D9CF62E41A
:101FA00072E084E298E10F94083A8F2D0E94B121EB
:101FB00069E372E084E298E10F94083A8D2D0E9463
:101FC000B12165E372E084E298E10F94083A8E2D26
:101FD0000E94B12161E372E084E298E10F94083A33
:101FE0008C2D0E94B12169E272E084E298E10F94A5
:101FF000083A69E06F0DC801C0960E945C2167E352
:102000007AE084E298E10F900F900F900F90DF91AB
:10201000CF911F910F91FF90EF90DF90CF900D9493
:10202000483A0F900F900F900F90DF91CF911F9132
:102030000F91FF90EF90DF90CF900895FC01E2594F
:10204000FF4FA081B0E0A05FBC4F4C914064FC0109
:1020500058E8615088F028E030E091E080E040FFEF
:1020600002C04527892B4695990F21503109B9F7B0
:10207000908198279193EDCF08950F931F93CF935D
:10208000DF93FA012AEA208321832283DAED10E626
:10209000615040F1DC01CD91CD0170814181A8E01A
:1020A000B0E0072F0170272F30E035952795722F6C
:1020B00040FD706850E055954795228120FD4068AD
:1020C00030E0359527955C2F5170051302C02283AF
:1020D00003C02D2722834127C695119711F77083DE
:1020E0004183D6CFDF91CF911F910F910895CF9269
:1020F000DF92EF92FF920F931F93CF93DF9300D065
:10210000CDB7DEB78C016B017C018CE6E80EF11CCB
:10211000F701808191810F947034B601882777FD93
:102120008095982F0F940136F701808191810F944B
:102130002E33D82E882369F1F701808191810F9485
:102140002E33882301F1F701808191810F9497321A
:1021500040E3B801F701808191810F943133F70199
:10216000808191810F947A3260E3C8019FDC60E343
:10217000C80164DFF80161816E5FAE014F5F5F4FA0
:10218000C8017BDFD9CFF801E259FF4F80818093EE
:1021900060118D2D0F900F900F90DF91CF911F91B7
:1021A0000F91FF90EF90DF90CF900895CF93DF9342
:1021B000EC0164E670E09BDF882309F446C0898166
:1021C000813208F042C068EF7BE084E298E10F942E
:1021D0002D3A80919A1691E0980F90939A160E944A
:1021E000B12169E172E084E298E10F94083A8981B3
:1021F0000E94B12164E172E084E298E10F94083A10
:102200004AE050E06091601184E298E10F941F3B36
:1022100062E172E084E298E10F94083A66E0CE0150
:1022200002960E945C2160E172E084E298E10F94E2
:10223000083A69816650CE0108960E945C2167E3E6
:102240007AE084E298E10F94483ACE01DF91CF9191
:10225000EECC0F93FC0160834183228303830F91B3
:1022600008950895CF93DF93EC0161E08A810F9484
:102270000B3760E08B810F940B3761E089810F94FD
:102280000B3761E088810F940B3761E088810F94F0
:10229000443780E58CBD8DB58EB5DF91CF91089523
:1022A000CF93DF931F92CDB7DEB7698389818EBD4F
:1022B0000DB407FEFDCF8EB50F90DF91CF9108953D
:1022C000CF93DF93EC0160E088810F94443781E085
:1022D00090E00F94263661E088810F94443789E2BC
:1022E00090E00F94263660E088810F9444378B810C
:1022F0000F9479370197D9F360E3CE01D1DF60E322
:10230000CE01CEDF61E08881DF91CF910D9444371B
:102310001F93CF93DF93EC01162F60E088810F9419
:1023200044378B810F9479370197D9F3612FCE0110
:10233000B7DF182F61E088810F944437812FDF9138
:10234000CF911F910895E4CF0F931F93CF93DF9305
:10235000EC01062F142F60E088810F9444378B81A5
:102360000F9479370197D9F3602FCE0199DF612F50
:10237000CE0196DF182F61E088810F944437812FBA
:10238000DF91CF911F910F910895CF93DF93EC01CF
:10239000613011F546E060E0D7DF41E062E0CE0158
:1023A000D3DF4DE063E0CE01CFDF45E468E0CE014E
:1023B000CBDF40E069E0CE01C7DF43E06AE0CE0159
:1023C000C3DF42E263E1CE01BFDF40E065E1CE0161
:1023D000BBDF45E468E03CC0623009F03BC049E245
:1023E00060E0B2DF46E062E0CE01AEDF45E068E0EB
:1023F000CE01AADF41E069E0CE01A6DF40E16AE05C
:10240000CE01A2DF42EA63E1CE019EDF41E065E159
:10241000CE019ADF47E066E1CE0196DF40E367E157
:10242000CE0192DF47E86EE1CE018EDF4BE66FE131
:10243000CE018ADF48EF60E2CE0186DF41E467E249
:10244000CE0182DF40E068E2CE017EDF49E569E24D
:10245000CE017ADF4FEF66E0CE0176DF44E067E041
:10246000CE0172DF49E06BE0CE016EDF40E06CE050
:10247000CE016ADF4DE56DE0CE0166DF43E96EE037
:10248000CE0162DF41EB6FE0CE015EDF4DE260E145
:10249000CE015ADF4BE361E1CE0156DF43E762E153
:1024A000CE0152DF48EF64E1CE014EDF48E168E142
:1024B000CE014ADF4DE169E1CE0146DF4CE16AE140
:1024C000CE0142DF47EC6BE1CE013EDF40E06CE144
:1024D000CE013ADF42EB6DE1CE0136DF46EB61E241
:1024E000CE0132DF40E162E2CE012EDF4AEE63E24E
:1024F000CE012ADF4AE064E2CE0126DF40E065E259
:10250000CE0122DF41E166E2CE011EDF48E86CE247
:10251000CE011ADF41E36DE2CE0116DF4BE06EE241
:10252000CE01DF91CF9110CFBF92CF92DF92EF9289
:10253000FF920F931F93CF93DF93EC01162F7A0135
:10254000C22E60E088810F9444378B810F947937D5
:102550000197D9F3612FCE01A3DEB82E8701D12CCC
:1025600098012E193F092C153D054CF4F8016081A6
:10257000CE0196DEB82EF80181938F01F1CF61E094
:1025800088810F9444378B2DDF91CF911F910F914C
:10259000FF90EF90DF90CF90BF900895FF920F9340
:1025A0001F93CF93DF93EC01862F8068F82E60E0B5
:1025B00088810F94443700E010E28B810F947937C3
:1025C000019729F401501109C1F71FEF11C06F2DB8
:1025D000CE0166DE6AE070E080E090E00F940136A4
:1025E00060E0CE015DDE182F61E088810F944437F2
:1025F000812FDF91CF911F910F91FF9008951F932D
:10260000CF93DF93EC0160E3C9DF182F64E670E03D
:1026100080E090E00F94013661E3CE01BFDFC82F68
:1026200064E670E080E090E00F940136111104C080
:10263000CC2359F080E00AC01E3019F4CE30D1F717
:1026400004C01F3FB9F7CF3FA9F781E0DF91CF91D9
:102650001F9108950F93CF93DF93EC01FADD1C8255
:10266000DF91CF910F910895FCCDCF93DF93EC01D3
:10267000F9DDCE01C4DF8130C1F0CE0121DECE0113
:102680001FDE62E0CE0181DE4FEF6EE3CE015CDE45
:1026900066E3CE0158DE66E3CE0155DE69E3CE0186
:1026A00052DE66E3CE014FDE80E0DF91CF910895E8
:1026B000CF93DF93EC0166E346DE6AE3CE0143DEAF
:1026C00064E3CE0140DE6AE070E080E090E00F94C9
:1026D000013640E06BEFCE0137DE8930C9F440E0CF
:1026E0006FEBCE0131DE863081F426E042EA56E11E
:1026F0006FEFCE0119DF40E06FEBCE0125DE40E049
:102700006FEBCE0121DE86E004C06AE3CE011BDE62
:1027100080E0DF91CF910895CF93DF93EC0166E3E2
:1027200012DE62E070E080E090E00F94013666E334
:10273000CE0109DE6AE3CE01DF91CF9104CE1F9373
:10274000CF93DF93EC01B4DF182FCE01E5DF163015
:1027500011F0C0E07AC080919916882371F168EF7A
:102760007BE084E298E10F942D3A80919A1691E0F3
:10277000980F90939A160E94B1216FEF72E084E255
:1027800098E10F94083A68EF72E084E298E10F94C0
:10279000083A86E00E94B12167E37AE084E298E19A
:1027A0000F942D3A66E082EA96E10E945C2167E38D
:1027B0007AE084E298E10F94483AD091A61680918D
:1027C000A216853531F6C091A316C13011F680915D
:1027D000A7168A3A09F0BDCF68EF7BE084E298E162
:1027E0000F942D3A80919A1691E0980F90939A1633
:1027F0000E94B1216BEE72E084E298E10F94083AF6
:1028000062E084EA96E10E945C2160EE72E084E27C
:1028100098E10F94083A6BED72E084E298E10F942E
:10282000083AD13019F466ED72E007C0D23019F4DD
:1028300069EC72E002C065EC72E084E298E10F940A
:10284000083A84E298E10F94353A8C2FDF91CF91CA
:102850001F9108958F929F92AF92BF92CF92DF9275
:10286000EF92FF920F931F93CF93DF93CDB7DEB715
:1028700063970FB6F894DEBF0FBECDBF8C01E62E76
:10288000D42EC52E80919916882349F085E58D8731
:1028900081E08E875F87488B698B8AEA8A8B86E026
:1028A000F82E96E0892E25E5922EAA24A3943AEAE2
:1028B000B32E65EFC8012CDD8F7190E00297CCF745
:1028C00089829A82AB82CC82DD82EE82BF82F8015D
:1028D000848191E0980F94838887198666E3C80104
:1028E00032DD6BE3C8012FDD29E0AE014F5F5F4FA2
:1028F0006FE7C80119DE65E3C80125DD62E370E01A
:1029000080E090E00F940136FA9499F666E3C801EE
:102910001ADD809199168823F9F068EF7BE084E254
:1029200098E10F942D3A80919A1691E0980F909328
:102930009A160E94B12165EB72E084E298E10F944F
:10294000083A66E0CE010D960E945C2167E37AE0CA
:1029500084E298E10F94483A63960FB6F894DEBF8C
:102960000FBECDBFDF91CF911F910F91FF90EF90E0
:10297000DF90CF90BF90AF909F908F9008956ACFD7
:10298000AF92BF92CF92DF92EF92FF920F931F937D
:10299000CF93DF93EC015DDC1C829E012B563F4FF1
:1029A000FE013596CF0109961192E817F907E1F774
:1029B000E217F307B9F7108200E010E0E12CF12CE8
:1029C00088ECA82EA00EB12C6E01C00ED11EC7013E
:1029D0008A0D9B1D0F94AF42F601EE0DFF1D8583FE
:1029E0008FEFE81AF80A89E0E816F10481F7075F2B
:1029F0001F4F0039110511F7DF91CF911F910F91F2
:102A0000FF90EF90DF90CF90BF90AF90089529CCCA
:102A1000CF93DF93EC0126DCCE01F1DD8130C1F0F4
:102A2000CE014EDCCE014CDC61E0CE01AEDC4FEFDE
:102A30006EE3CE0189DC66E3CE0185DC66E3CE0180
:102A400082DC69E3CE017FDC66E3CE017CDC80E0E2
:102A5000DF91CF910895CF93DF93EC0166E373DCB0
:102A60006AE3CE0170DC64E3CE016DDC6AE070E005
:102A700080E090E00F94013640E06BEFCE0164DC23
:102A8000803188F040E06FEBCE015EDC8E3041F4A7
:102A90002EE042EA56E16FEFCE0146DD8EE004C043
:102AA0006AE3CE0150DC80E0DF91CF910895CF93AF
:102AB000DF93EC0166E347DC62E070E080E090E0E9
:102AC0000F94013666E3CE013EDC6AE3CE01DF916E
:102AD000CF9139CC20E030E040E050E0BC01620F03
:102AE000731FFB01E40FF51F15824F5F5F4F4A30E4
:102AF0005105B9F7275F3F4F2039310569F7FC01D0
:102B0000EB56FF4F10820895AF92BF92CF92DF92A3
:102B1000EF92FF920F931F93CF93DF93D62EC72E82
:102B20007C0125E9E20EF11CF7011081612F70E0B4
:102B3000FC0120E030E026173707E4F44581442308
:102B4000A9F0AD2DBC2D40E050E001E0BD904F5FFD
:102B50005F4FEF01C40FD51FCD81BC1200E048309C
:102B60005105A1F7002311F0822F54C02F5F3F4F72
:102B70003996E1CF103109F44CC029E0269FF001CD
:102B8000279FF00D1124E80FF91F21E02583F9E0BC
:102B90001F9F800D911D1124ED2DFC2D20E030E0B4
:102BA0002F5F3F4F4191DC01A20FB31F15964C934D
:102BB00028303105A9F71F5FF7011083C8EC0C2FEF
:102BC00010E0C8010F94AF428130F9F061E0C80114
:102BD0000F94B742E80121965801F9E0AF0EB11CFD
:102BE0000D2D1C2DCE010F94AF42F80161918F0184
:102BF000861719F0CE010F94B7422196CA15DB054E
:102C000089F7F7018081815005C0C75FC835B9F6E3
:102C1000F8CF8FEFDF91CF911F910F91FF90EF9041
:102C2000DF90CF90BF90AF9008951F93CF93DF9325
:102C3000EC0111DF182FCE013ADF1E3011F080E0D9
:102C4000B2C08091AA168131D1F78091A2168F3F30
:102C5000B1F38091A3168F3F91F38091A4168F3F1B
:102C600071F38091A5168F3F51F3809199168823B7
:102C700071F168EF7BE084E298E10F942D3A809146
:102C80009A1691E0980F90939A160E94B1216FE3E3
:102C900073E084E298E10F94083A68E373E084E219
:102CA00098E10F94083A8EE00E94B12167E37AE040
:102CB00084E298E10F942D3A6EE082EA96E10E9458
:102CC0005C2167E37AE084E298E10F94483A10913E
:102CD000AB168DEF810F853008F0B1CF62EA76E157
:102CE000CE0112DFC82F68EF7BE084E298E10F94F9
:102CF0002D3A80919A1691E0980F90939A160E941F
:102D0000B1216CE273E084E298E10F94083A64E048
:102D100082EA96E10E945C211F92CF9383E193E0C7
:102D20009F938F93C9E4D6E1DF93CF930F949340A1
:102D3000BE0184E298E10F942D3A8091AF169091F4
:102D4000AE1689271F928F938091AD161F928F9395
:102D500081E293E09F938F93DF93CF930F949340FF
:102D6000BE0184E298E10F942D3A67E273E084E2B9
:102D700098E10F94083A8DB79EB70E960FB6F89467
:102D80009EBF0FBE8DBF173019F462E273E002C020
:102D90006EE173E084E298E10F94083A84E298E1EE
:102DA0000F94353A81E0DF91CF911F9108957F9282
:102DB0008F929F92AF92BF92CF92DF92EF92FF924B
:102DC0000F931F93CF93DF93CDB7DEB72F970FB637
:102DD000F894DEBF0FBECDBF6C01142FF22EFC01A4
:102DE000EB56FF4F8081681708F06DC0F60189E04F
:102DF000689FE00DF11D11248581882309F463C0CB
:102E00005F0193E0792E2EE0822E31E1932E65EF63
:102E1000C6017EDA8F7190E00297CCF78982FE01BD
:102E2000329681E090E0D501A80FB91F15962C913C
:102E30002193019689309105B1F79A861B87F60197
:102E4000848191E0980F94838C87FD860E87EF86AE
:102E500066E3C60178DA6BE3C60175DA2FE0AE01EE
:102E60004F5F5F4F6FE7C6015FDB65E3C6016BDA5B
:102E70007A9469F680919916882329F1812F8B7FA6
:102E8000833011F01530F9F468EF7BE084E298E1CB
:102E90000F942D3A80919A1691E0980F90939A167C
:102EA0000E94B1216FE073E084E298E10F94083A48
:102EB0006EE0CE0102960E945C2167E37AE084E234
:102EC00098E10F94483A2F960FB6F894DEBF0FBEE4
:102ED000CDBFDF91CF911F910F91FF90EF90DF90C9
:102EE000CF90BF90AF909F908F907F900895EF927A
:102EF0000F935DDF0F91EF900895EF920F93E02E07
:102F0000022F242F45E053DF0F91EF900895EF92A9
:102F10000F93E12C00E020E047E049DF0F91EF90B4
:102F20000895FC0171836083168A0895FF920F93C0
:102F30001F93CF93DF931F921F92CDB7DEB78C0103
:102F4000DC0159968C91599791E0892759968C9379
:102F500059975696FC905697F11059C00D90BC9118
:102F6000A02DED91FC9111970088F189E02D882327
:102F700019F040E069E002C041E064E0CD0119953C
:102F8000882309F442C088E090E09A838983F8019D
:102F900080819181DC01ED91FC910288F389E02D23
:102FA000AE014F5F5F4FB8016A5F7F4F199597FD84
:102FB0002EC049815A814115510549F1F8012681F8
:102FC00030E02F5F3F4F4217530709F5418550E02E
:102FD000542F44278585482B662757FD6095762F0B
:102FE00082819381A481B581481759076A077B07BD
:102FF00031F48789908D0196908F878B06C042832C
:1030000053836483758381E0868BF801F6888F2D66
:103010000F900F90DF91CF911F910F91FF90089526
:10302000CF93DF93EC0188819981DC01ED91FC91D4
:103030000190F081E02D199597FD43C08881998119
:10304000DC01ED91FC910284F385E02D61E019959E
:1030500097FD37C088819981DC01ED91FC91028058
:10306000F381E02D63E0199597FD2BC0888199814C
:10307000DC01ED91FC910680F781E02D64E019956B
:1030800097FD1FC088819981DC01ED91FC9104803E
:10309000F581E02D4AEA55E56AE075E0199597FD5E
:1030A00010C088819981DC01ED91FC910084F1854B
:1030B000E02D68E0199597FD04C0CE0137DF80E070
:1030C00090E0DF91CF910895CF93DF93EC01CB0196
:1030D000FA012E89211105C0118210828FEF9FEF16
:1030E0001CC0208131812830310520F027E030E0FC
:1030F000318320832E8130E04081518124173507B0
:1031000010F431832083BE01695F7F4F408151817C
:103110000F941B401E8A8E8190E0DF91CF9108951D
:10312000DF92EF92FF920F931F93CF93DF93EC0107
:103130008F859E01225F3F4F790190E1D92E8A351C
:1031400009F445C003E313E088819981DC01ED9126
:10315000FC914E8550E04F5F5F4F0484F585E02D74
:10316000B701199588819981F80161918F01DC017E
:10317000ED91FC910684F785E02D40E01995B3E0D0
:1031800006331B0709F7DA94E9F624C08881998190
:10319000DC01ED91FC914E8550E04F5F5F4F048460
:1031A000F585E02DB701199588819981F801619124
:1031B0008F01DC01ED91FC910684F785E02D41E063
:1031C0001995B3E003331B0709F7DA9419F000E30C
:1031D00013E0DCCF80E090E0DF91CF911F910F9161
:1031E000FF90EF90DF9008950F931F93CF93DF939D
:1031F0008C01EA014830510558F40F960F941B409A
:10320000F801C687C8018CDF97FD04C0CE0102C05B
:103210008FEF9FEFDF91CF911F910F91089569304C
:1032200028F4FC01658380E090E008958FEF9FEF24
:103230000895FC0184E08287778366835187408705
:1032400080E090E008952CEF260F2F3038F460FDD9
:1032500005C0FC01638780E090E008958FEF9FEF49
:103260000895FC01648380E090E00895FC01680FFC
:10327000791F80E090E0E617F707A9F0419128E078
:1032800030E050E0DA01A827B92796958795A0FF8E
:1032900004C0A8E08A27A4E89A27559547952150AD
:1032A000310979F7E8CF08950F931F93CF93DF93F8
:1032B0008C01EA014132510510F0C0E2D0E0AE01CC
:1032C000C80147960F941B40F801C48B17AACE0182
:1032D000DF91CF911F910F910895EF92FF920F937D
:1032E0001F93CF93DF93EC01CB018A012C8930E04F
:1032F000FA01408151812417350710F4318320836E
:103300007E01F7E1EF0EF11CF80140815181B70118
:103310000F941B404C89F8018081481B4C8B44233F
:1033200051F050E060817181695E7F4F6C0F7D1FAD
:10333000C7010F9424408C8990E0DF91CF911F91B9
:103340000F91FF90EF900895CF93DF93EC018A8166
:103350009B810F9409358A819B810F94A934811137
:1033600021C061E070E08A819B810F94CA348A8118
:103370009B810F9465350197C1F460E070E08A810C
:103380009B810F94CA348A819B810F94653521E01B
:1033900030E0892B11F420E030E088279927821B48
:1033A000930B05C080E090E002C08FEF9FEFDF91AC
:1033B000CF910895FC018AE393E091838083738326
:1033C000628381E08583178216821186108684E0ED
:1033D0008287838788E084871586148A158A168AEF
:1033E00017AA08959F92AF92BF92CF92DF92EF9269
:1033F000FF920F931F93CF93DF93EC01ED80F12C9D
:1034000081E0E81AF1088A85E80EF11C86E0E816EA
:10341000F10434F0C701059735E0E32EF12C02C02A
:1034200080E090E00B8510E0095F1F4F23E01595C9
:1034300007952A95E1F7080F191F8C85080F111DB4
:103440008C81882311F00E5F1F4F0132110508F0A7
:1034500093C083E0E816F1040CF48EC08E8180FFE7
:1034600003C085E5982E02C01AEA912E6701A12CAF
:10347000B12C2D8130E021503109A216B30674F42D
:1034800081E0C81AD108892D0E94F2A0FE01EC0D3E
:10349000FD1D86878FEFA81AB80AEBCFC114D1049F
:1034A00019F4C12CD12C16C08E810E94F2A0960175
:1034B00021503109FE01E20FF31F8687232B89F388
:1034C00082E0C81AD1088F810E94F2A0FE01EC0DA3
:1034D000FD1D86878A858430B1F4C114D10499F02A
:1034E00088850E94F2A0960121503109FE01E20F69
:1034F000F31F8687232B39F089850E94F2A0FE01F5
:10350000EC0DFD1D84870D8B9E8AEB8A6E2D8A81C2
:103510009B810F94F7337E018EE0E80EF11CB7011A
:103520008A819B810F947333A70161E08A819B811B
:103530000F9408346D856E5F8A819B810F948B3266
:10354000602F8A819B810F94913260E08A819B81F8
:103550000F94AC3463E08A819B810F94B33460E0B4
:1035600070E08A819B810F94CA348A819B810F9479
:10357000743580E090E002C08FEF9FEFDF91CF9134
:103580001F910F91FF90EF90DF90CF90BF90AF9081
:103590009F900895FC01648725CF2F923F924F9210
:1035A0005F926F927F928F929F92AF92BF92CF92D3
:1035B000DF92EF92FF920F931F93CF93DF93CDB7DC
:1035C000DEB7A1970FB6F894DEBF0FBECDBF8C015A
:1035D000DC011D968C9168130DC0F80182819381E6
:1035E0000F949A32D80157968C9180FD1DC07AEACB
:1035F000572E1CC0F80165870190F081E02D0480F2
:10360000F581E02D411105C04BE855E26AE774E110
:1036100004C04AEA55E56AE075E0C8011995C80199
:10362000E1DE97FFDACF04C165E5562EAE014F5FAC
:103630005F4F6A01E12CF12C5A01F801858990E075
:10364000E816F9060CF04CC047015FEF851A950AA1
:10365000D80153966C91539770E0C401860F971F61
:1036600015962C91159730E0821793071CF4569607
:103670008C9144C0F8014285D901A40FB11DAD0160
:103680008A179B0724F5E21AF30ABFEFEB1AFB0A2D
:10369000E60EF71EE1E0EE16F10491F034F4EF28A7
:1036A00051F5D80116968C9129C042E0E416F10438
:1036B00051F053E0E516F104F1F4F80181851EC0E4
:1036C000F80187811BC0D80118968C9117C02385FB
:1036D000269526952695420F511D841795076CF067
:1036E000F8018481882389F0648970E0C8014796D5
:1036F000BDDD3C010AC080E001C0852D0E94F2A022
:10370000D6018D936D01740198CFF8018385877080
:10371000C82ED12C852C912C88E090E08C199D0925
:1037200002C0959487948A95E2F7412C512C20E0B1
:10373000D80154968C91549790E014963C91332381
:1037400019F042E050E002C040E050E0480F591F3D
:10375000441555050CF460C0481659068CF4F80160
:10376000E40DF51D878990E00C2C02C0880F991F8D
:103770000A94E2F7882A992AF8E0CF0ED11C03C0F8
:10378000311103C021E017013DC0AC014F5F5F4F15
:1037900044155505BCF3A201481B590BCA0153E05F
:1037A000880F991F5A95E1F7D30102C0B695A795E6
:1037B0008A95E2F7CD0199270C2C02C0880F991F3A
:1037C0000A94E2F7882A992AB8E0CB0ED11CDBCF05
:1037D00088E090E08C159D05DCF4E0E22E163104C3
:1037E00028F5882D29A30E94F2A0F501E20DF31D12
:1037F0008083892C9924F8E0CF1AD1084FEF241A3E
:10380000340A29A17101222319F380E090E0E2CF6C
:103810005FEF451A550A8CCF4E2DB501F801828114
:1038200093810F94103380E090E002C08FEF9FEF00
:10383000A1960FB6F894DEBF0FBECDBFDF91CF913A
:103840001F910F91FF90EF90DF90CF90BF90AF90BE
:103850009F908F907F906F905F904F903F902F90B0
:1038600008952F923F924F925F926F927F928F9224
:103870009F92AF92BF92CF92DF92EF92FF920F93FF
:103880001F93CF93DF93CDB7DEB7A0970FB6F89411
:10389000DEBF0FBECDBF8C01DC0155964C91559714
:1038A000BE016F5F7F4F12968D919C9113970F947D
:1038B0003133D801ED91FC910190F081E02DC801E8
:1038C0001995F8017384F72DF7707F2ECE010196BC
:1038D0002C01A12CB12CC12CD12CE12CF12CD80124
:1038E00055968C91559790E0A816B9060CF071C0CA
:1038F000D2018D912D010E94F2A04D2D5527282F28
:1039000030E0D22ECC24C42AD52AD5011196F80154
:103910002388312CAD01420D531D658170E046179F
:1039200057073CF49689891709F451C080E090E06C
:103930008AC0F8016284CB01860D911D4817590792
:1039400034F5A61AB70AFFEFAF1ABF0AA20CB31CD0
:1039500081E0A816B10451F092E0A916B10469F013
:10396000AB28A9F5F801868197810DC0F801878001
:10397000912C2815390559F1D9CFF4E06F1227C0E1
:10398000F801808591852817390709F1CFCFF80113
:10399000238530E0295F3F4FF3E035952795FA9571
:1039A000E1F7280F391F421753078CF0E1E0F0E0F0
:1039B000EC0FFD1FEE0DFF1DC601072C02C09695F2
:1039C00087950A94E2F78083C70101967C015D0127
:1039D00086CF670114968C91882329F1B2E0EB160B
:1039E000F1040CF4A3CFE2E0EE1AF108B701CE0126
:1039F00001963CDCAC015527E1E0F0E0EC0FFD1F47
:103A0000EE0DFF1D208130E04217530709F08ECFE5
:103A1000892F9927FE01EC0DFD1D208130E08217D2
:103A2000930709F083CFA701BE016F5F7F4FC801E5
:103A300047960F941B40D8015496EC92549781E01E
:103A4000D7968C93C701A0960FB6F894DEBF0FBE31
:103A5000CDBFDF91CF911F910F91FF90EF90DF903D
:103A6000CF90BF90AF909F908F907F906F905F901E
:103A70004F903F902F900895CF93DF93EC018D8569
:103A800068130DC08A819B810F9470348A819B8159
:103A90000F942E338823D9F0CE01E3DE18C06D8752
:103AA000E881F9810480F581E02D411105C04BE8E2
:103AB00055E26AE774E104C04AEA55E56AE075E058
:103AC000CE011995CE018EDC97FFDCCF08C08FA9FF
:103AD000882319F08C8990E002C080E090E0DF91AB
:103AE000CF910895CF92DF92EF92FF920F931F93A1
:103AF000CF93DF932091A4113091A511C9018D7F3F
:103B0000C09721F561E070E040E080E090E0DC01EA
:103B1000C1E00BC0E7EDE50FEE37D0F44C27880F7E
:103B2000991FAA1FBB1F842B6F5FE62FF0E02E1793
:103B30003F07E4F0EC55FE4E5185D9EBD50FDF3948
:103B400010F4565A51875185573120F780E095C0BF
:103B5000583250F4772309F459C0880F991FAA1FCF
:103B6000BB1F842B70E0E0CF573E80F36C017D01DA
:103B7000F694E794D794C79433E1B695A7959795B3
:103B800087953A95D1F78C010770112780919A1685
:103B900091E0980F90939A161F928F938EE493E082
:103BA0009F938F93C9E4D6E1DF93CF930F94934013
:103BB000BE0184E298E10F942D3A67E573E084E258
:103BC00098E10F942D3ADF92CF928FE593E09F9387
:103BD0008F93DF93CF930F949340BE0184E298E1DB
:103BE0000F942D3A6BEC70E184E298E10F94083A5F
:103BF0008DB79EB70C960FB6F8949EBF0FBE8DBFC3
:103C00000730110529F463EC70E107C071E08CCF37
:103C10000630110539F469EB70E184E298E10F9404
:103C2000083A20C00130110519F46FEA70E1F5CFB0
:103C300066EA70E184E298E10F94083A68E673E07E
:103C400084E298E10F942D3A20E130E0B701A6011B
:103C500084E298E10F94133B67E37AE084E298E111
:103C60000F942D3A84E298E10F94353A81E08093E5
:103C7000A6111092A5111092A411DF91CF911F915E
:103C80000F91FF90EF90DF90CF9008958F929F92C9
:103C9000AF92BF92CF92DF92EF92FF920F931F935A
:103CA000CF938091A4119091A511C29709F045C0BE
:103CB000E0EBF1E1C12CD12C760180818231E8F575
:103CC000DF0111978C91823748F08938B0F5CC0C20
:103CD000DD1CEE1CFF1C6894C0F807C08D538431B6
:103CE00060F5CC0CDD1CEE1CFF1C329621E1E03EA1
:103CF000F20719F790919B1180919A1198131FC0A8
:103D00008090A0119090A111A090A211B090A31149
:103D100038EE830E33E0931EA11CB11C0F94D235F4
:103D200086169706A806B90650F081E0CAC0332768
:103D30002F2D1E2D0D2D033328F180E0C2C0C1149C
:103D4000D104E104F104C9F3D701C601C2E0B6957C
:103D5000A79597958795CA95D1F75C012FE0B22278
:103D600039E5A31632E0B30608F49EC088E3A8162E
:103D70008FE0B806E0F280E090E99C012A193B0947
:103D8000590192C08C2D8A3018F064E60F948E3D54
:103D9000A82EB12C8AE0089FA00CB11C1124C701E9
:103DA000AA27BB27182F092FC1E080919A1691E00E
:103DB000980F90939A161F928F938EE493E09F939F
:103DC0008F9389E496E19F938F930F94934069E4D6
:103DD00076E184E298E10F942D3A0F900F900F90C6
:103DE0000F900F900F90C11103C065E879E002C0F9
:103DF0006AE779E084E298E10F94083A0F931F9301
:103E00008FE593E09F938F9309E416E11F930F933F
:103E10000F949340B80184E298E10F942D3ABF9239
:103E2000AF9281EB97E09F938F931F930F930F9423
:103E30009340B80184E298E10F942D3A2DB73EB734
:103E4000245F3F4F0FB6F8943EBF0FBE2DBFC11188
:103E50001FC0C1FE03C088E99AE002C08FE693E06C
:103E60009F938F9383E793E09F938F9389E496E1E9
:103E70009F938F930F94934069E476E184E298E1F5
:103E80000F942D3A0F900F900F900F900F900F906E
:103E900084E298E10F94353A81E08093A611109264
:103EA000A5111092A4110DC0D701C601FEE0B69570
:103EB000A79597958795FA95D1F7182F092FC0E008
:103EC00074CFCF911F910F91FF90EF90DF90CF9023
:103ED000BF90AF909F908F9008958F929F92AF92D6
:103EE000BF92CF92DF92EF92FF921F93CF93DF9317
:103EF0008091A4119091A5118E9709F046C0EFEA28
:103F0000F1E1C12CD12C760181E090E0DF01119725
:103F10002C912A3058F420812A3018F48C329105E3
:103F2000A4F1CC0CDD1CEE1CFF1C0EC0283168F582
:103F300020812B3018F08C3291053CF1CC0CDD1C2B
:103F4000EE1CFF1C6894C0F8029632968F329105E1
:103F5000E9F690919B1180919A11981311C080906D
:103F6000A0119090A111A090A211B090A3110F9454
:103F7000D23586169706A806B90610F081E0A6C0CD
:103F8000C114D104E104F10411F480E09FC01C2DA0
:103F90001F704601570184E0B694A79497948794C4
:103FA0008A95D1F780919A1691E0980F90939A167E
:103FB0001F928F938EE493E09F938F93C9E4D6E191
:103FC000DF93CF930F949340BE0184E298E10F9466
:103FD0002D3A68ED75E084E298E10F94083AD50136
:103FE000C401A770BB27BF93AF939F938F938BE7B9
:103FF00093E09F938F93DF93CF930F949340BE01F1
:1040000084E298E10F942D3A8C2D8B702DB73EB73A
:10401000225F3F4F0FB6F8943EBF0FBE2DBF8330D7
:1040200019F46DEC75E009C01A3011F01C3019F468
:1040300062EC75E002C067EB75E084E298E10F94F2
:10404000083A62EB75E084E298E10F94083A1B307D
:1040500019F46EEA75E004C01D3039F468EA75E0C1
:1040600084E298E10F94083A26C0173019F463EA05
:1040700075E0F6CF133019F46FE975E0F1CF183021
:1040800019F469E975E0ECCF1A3019F463E975E0C9
:10409000E7CF1C3019F46BE875E0E2CF40E150E067
:1040A000612F84E298E10F941F3B67E37AE084E29A
:1040B00098E10F942D3A84E298E10F94353A81E02B
:1040C0008093A6111092A5111092A411DF91CF91A7
:1040D0001F91FF90EF90DF90CF90BF90AF909F9097
:1040E0008F9008950D94AF420D94B742CF93DF9314
:1040F000C4E6D0E0CE01F6DF882319F060E0CE01FF
:10410000F3DF2196C43BD105A9F7DF91CF91089544
:10411000DC01ED91FC910190F081E02D199440E0DB
:1041200050E060E070E00D94D13ECF93DF93EC015E
:1041300069EC76E00F943540892B09F4ACC06EE849
:1041400073E0CE010F943540892B09F4A7C065E8D0
:1041500073E0CE010F943540892B09F4A2C06BE8BF
:1041600073E0CE010F943540892B09F49DC064E9BA
:1041700073E0CE010F943540892B09F498C062E9B1
:1041800073E0CE010F943540892B09F45DC069E9D5
:1041900073E0CE010F943540892B09F458C06DE9C6
:1041A00073E0CE010F943540892B09F453C064EAC3
:1041B00073E0CE010F943540892B09F44EC06AEAB2
:1041C00073E0CE010F943540892B09F449C061EBAF
:1041D00073E0CE010F943540892B09F444C068EB9D
:1041E00073E0CE010F943540892B09F43FC06BEB8F
:1041F00073E0CE010F943540892BD9F160EC73E068
:10420000CE010F943540892BB9F165EC73E0CE01F6
:104210000F943540892B99F16AEC73E0CE010F942D
:104220003540892B79F160ED73E0CE010F94354074
:10423000892B59F168ED73E0CE010F943540892B3D
:1042400039F582E590E035C08DE290E032C08CE433
:1042500090E02FC08DE490E02CC08CE390E029C06A
:104260008DE390E026C08EE390E023C08EE490E0E2
:1042700020C08FE490E01DC080E590E01AC088E483
:1042800090E017C089E490E014C081E590E011C08F
:1042900080E090E00EC08BE490E00BC08AE490E0F8
:1042A00008C08DE890E005C087E390E002C08CE292
:1042B00090E0DF91CF910895CF92DF92FF920F931C
:1042C0001F93CF93DF93CDB7DEB70DB71EB7262F61
:1042D00030E0220F331FA9014F5F5F4FEDB7FEB7EC
:1042E000E41BF50B0FB6F894FEBF0FBEEDBF4DB744
:1042F0005EB74F5F5F4FDA01F82E6C018C2D8F197E
:104300008617C8F4C601F601708172957F707063DC
:104310007A3308F0795D7C93FFEFCF1ADF0AFC0156
:1043200080818F7080638A3308F0895D11968C9349
:1043300011971296E3CFFA01E20FF31F1082BA0130
:1043400084E298E10F942D3A0FB6F8941EBF0FBE89
:104350000DBFDF91CF911F910F91FF90DF90CF9014
:104360000895CF93DF9300D0CDB7DEB7982F929505
:104370009F7090639A3308F0995F99838F70806380
:104380008A3308F0895F8A831B82BE016F5F7F4F8B
:1043900084E298E10F942D3A0F900F900F90DF91E7
:1043A000CF910895CF92DF92EF92FF920F931F93D8
:1043B000CF93DF93CDB7DEB729970FB6F894DEBF62
:1043C0000FBECDBF8091A4119091A51187319105A9
:1043D00034F41092A5111092A4110C94762B823211
:1043E00091055CF4EFEAF1E12191233410F00C9493
:1043F000762B21E1E63BF207B9F7209196162223AE
:1044000009F4BBC0E0EBF1E1A6E1EA2EF12C26E1D4
:1044100030E043E050E0019110E0021713072CF068
:10442000E016F1060CF4780189014F5F5F4F4817E1
:10443000590711F09801EFCFEEEAF1E1D12C50E0ED
:1044400021E030E061912F5F3F4F4081AD2DB0E022
:10445000461750F461E070E06C0F7D1FA60FB71F88
:104460004C91440F416008C061E070E06C0F7D1F0B
:10447000A60FB71F4C91440F4C935F5F583029F43F
:10448000D39478E07D1520F050E028173907D1F655
:1044900064EC77E184E298E10F94083A80919A16EF
:1044A00091E0980F90939A165CDF6CEB77E184E2D1
:1044B00098E10F94083A6091A4117091A5114AE017
:1044C00050E084E298E10F94F63A67E37AE084E200
:1044D00098E10F942D3A4AE050E0B80184E298E167
:1044E0000F94F63A67E37AE084E298E10F942D3A6C
:1044F0004AE050E0B70184E298E10F94F63A67E3AE
:104500007AE084E298E10F942D3A4AE050E060911D
:10451000AE1184E298E10F941F3B67E37AE084E2F6
:1045200098E10F942D3AE091A411F091A511EC556A
:10453000FE4E4AE050E0618584E298E10F941F3B13
:1045400067E37AE084E298E10F942D3A4AE050E084
:1045500060E084E298E10F941F3B67E37AE084E235
:1045600098E10F942D3A6D2DCE010196A5DE67E3FB
:104570007AE084E298E10F94483A80919916882372
:1045800009F453C068EB77E184E298E10F94083AAC
:1045900080919A1691E0980F90939A16E2DE69EA5C
:1045A00077E184E298E10F94083A6091A411709148
:1045B000A5114AE050E084E298E10F94F63A6AE9E6
:1045C00077E184E298E10F94083A7EEAE72E71E100
:1045D000F72E01E010E08091A4119091A5118017B1
:1045E0009107ECF0D7016D917D018091A811689F32
:1045F000B00111244AE050E084E298E10F94F63AC9
:104600008091A4119091A511081719072CF46CE260
:1046100070E084E298E17CDD0F5F1F4FDCCF67E341
:104620007AE084E298E10F94483A2091A411309105
:10463000A5112937310544F42037310511F00C94C8
:10464000C82B89E40C94C62B283C310579F02A3F0D
:10465000310561F02E35B1E03B0741F02039E1E052
:104660003E0721F02F3FF1E03F0781F58091DF11F8
:10467000893760F180911112893740F1809143129E
:10468000893720F18091AF11813178F48091B01198
:10469000813168F48091B111813148F48091B21177
:1046A000813128F482E390E0D6C0853178F480919E
:1046B000B011853158F48091B111853138F4809171
:1046C000B211853118F482E390E0EDC0C90162E3D4
:1046D00070E00F94AE3DA901481B590B483C5105B1
:1046E000D1F04A3F5105B9F04C3261E0560799F0DC
:1046F0004E3571E0570779F04039A1E05A0759F07B
:10470000423CB1E05B0739F0443FE1E05E0719F05D
:104710004F3F514089F5FC01EC55FE4E81858D38A7
:1047200058F183AD8D3840F1DF01A359BF4F8C9113
:104730008D3810F1D2968C918D38F0F083858531CB
:10474000D8F484858531C0F485858531A8F48685C3
:10475000853190F44EEA51E180E090E001969F01AE
:10476000280F391FD90119962C91DA012D93AD012B
:104770008233910599F797C0283C3105C1F02A3F53
:104780003105A9F02C32B1E03B0789F02E35E1E08C
:104790003E0769F02039F1E03F0749F0223C41E053
:1047A000340729F02F3F61E0360709F091C00FEA86
:1047B00011E1E4EBF1E143EB51E162EBC62E61E183
:1047C000D62E82E090E0D8016D918D016D3808F40D
:1047D00074C0BC016C557E4EDB01DB96FC90BCE8DE
:1047E000BF1508F06AC07F01AFE5EA0EF11CD701E2
:1047F000FC90BCE8BF1508F060C07F01A1E9EA0E9B
:10480000F11CD701FC90BCE8BF1508F056C07F0131
:10481000A3E0EA1AF108D701FC90B0E1BF1528F136
:10482000D601FC90B0E1BF1518F1DA01FC90B0E1BF
:10483000BF15F0F0F080BF15D8F0EEEAF1E180E0AE
:1048400090E00196DB01A80FB91F19962C912193D6
:1048500082339105B1F79093A5118093A41183E061
:104860008093AD118093911193C7A4E1AF1528F106
:10487000D601FC90B4E1BF1500F1DA01FC90B4E17F
:10488000BF15D8F0F080BF15C0F0EEEAF1E180E08E
:1048900090E00196DB01A80FB91F19962C91219386
:1048A00082339105B1F79093A5118093A41183E011
:1048B0008093AD11109291116BC7019631964F5FA5
:1048C0005F4F6FEFC61AD60A8333910509F07BCF8D
:1048D000C9018A5D91090597E8F52A3D310531F056
:1048E0002C3D310531F080E090E005C088E290E099
:1048F00002C08AE290E0FC01EC55FE4E4285425235
:10490000403270F546A94252403250F5DF01AE59AF
:10491000BF4F4C914252403218F51816190644F018
:104920008CE290E09093A5118093A41186E42EC7A9
:104930004EEA51E180E090E001969F01280F391F77
:10494000D90119962C91DA012D93AD018C32910584
:1049500099F7E6CF243A310539F0263F310521F0A9
:104960002C3EB1E03B0719F58091AE118D38F8F07F
:104970008091AF118232D8F0809100128D38B8F05A
:1049800080910112823298F0243A310541F482E597
:1049900090E09093A5118093A4118AE1F7C68091CD
:1049A00052128D3820F080915312823280F7283CC9
:1049B000310521F02C32E1E03E0769F48091AE111F
:1049C000833448F080911112873828F080911212B8
:1049D000833408F0A9C32A3C310541F02039F1E0C5
:1049E0003F0721F0223C41E0340781F48091AF1170
:1049F000833460F08091E111833440F08091131290
:104A0000833420F08091AE11813168F12E3B310565
:104A100041F0C901897F803C910519F02C3C31059A
:104A200051F582E4820F90E0FC01EC55FE4E41A965
:104A3000433408F1DF01AD59BF4F4C914334D8F0F6
:104A4000D2964C914334B8F040A94131A0F4EEEA3B
:104A5000F1E1DF01A80FB91F96962C91219361E136
:104A6000E03EF607B1F782E390E09093A5118093C2
:104A7000A41183E18BC6C9018D7F883E9105B9F4ED
:104A80008091AF11833998F08091E911833978F0E2
:104A900080912312833958F0E0EBF1E1AEEAB1E105
:104AA00081918D9371E1EA3EF707D1F7C4C2C90144
:104AB000895791098F3E910530F5F901EC55FE4E6D
:104AC0008185893CD0F0DF01D1979C919738A8F07F
:104AD000EB56F109808187588F3178F4963A68F463
:104AE000EEEAF1E1DF01A20FB31FDA978C91819317
:104AF00081E1E83EF807B1F78EC12A3D3105D9F0D2
:104B00002C3D3105A1F02E3D310599F0283291E080
:104B1000390779F02237A1E03A0759F02C3BB1E090
:104B20003B0739F02F3FE1E03E07F1F502C0E8E432
:104B300003C0EAE401C0E6E4F0E0EC55FE4E8185F6
:104B40008556873288F5DF01AD5ABF4F8C91855667
:104B5000873250F5A65BBF4F8C91853628F1809146
:104B6000DF11843208F58091E1118432E8F48091FC
:104B7000E3118432C8F48091E5118432A8F4AEEADE
:104B8000B1E180E090E0AF0101969A01280F391F52
:104B9000F90121852D938A349105B1F79093A511E0
:104BA0008093A41183E7F2C5C9018E5691400E97F8
:104BB00098F52037F1E03F0711F040E001C042E0F6
:104BC00050E0BA0166587F4FFB01EC55FE4E8185DF
:104BD00080548D3008F5FA01EC55FE4EDF01A350EC
:104BE000BF4F8C9180548D30B8F480E090E08A0102
:104BF000085F1F4F4E5F5F4FDA01A80FB91F0A17FA
:104C00001B070CF475C5DF01A80FB91F1B96AC91EB
:104C1000AA500196AB3080F3C901855091404D9761
:104C200070F5EFEAF1E142E050E08191893C08F152
:104C3000DF01AF5BBF4F8C91893CD8F0AE5BBF4FBB
:104C40008C91893CB0F0AE5BBF4F8C91893C88F071
:104C5000EEEAF1E180E090E04C555E4E0196DA011B
:104C6000A80FB91F19962C91219382349105B1F7A1
:104C7000E4C34F5F5F4F45345105B9F634C022326B
:104C800041E0340729F02F3F61E0360709F03FC0CB
:104C90008091AE11833490F08091AF11833470F025
:104CA0008091B011833450F08091B111833430F091
:104CB0008091B211873810F08FE168C52F3F71E005
:104CC000370789F4EEEAF1E181E090E04191423466
:104CD000F0F0473818F08530D0F0EECF01968A31E9
:104CE0009105A1F714C0223281E0380781F4809148
:104CF0006D128D3860F0EEEAF1E18191893238F47D
:104D000091E1EB3BF907C9F780EC90E0F9C4C901E8
:104D100089519140879750F4EFEAF1E18191883110
:104D200058F4A1E1E33CFA07C9F7F0C4243931058E
:104D300051F12639310541F02A32B1E03B0719F132
:104D40002C32E1E03E07B9F58091AF11873CA0F02D
:104D50008091E111873C80F08091E011833160F413
:104D600080911312873C40F084E390E09093A5116A
:104D70008093A4118FE20AC52439310521F02A322B
:104D8000F1E03F07C1F48091DE118331A0F48091FE
:104D9000DF11873C80F080911012833160F48091A4
:104DA0001112873C40F080914212833120F48091AF
:104DB0004312873CC8F6203141E0340741F480912A
:104DC000AE118354813208F0E3C480E3DFC42332A0
:104DD00061E036070CF4DCC4C9018B5491408F9715
:104DE00010F5C9018C559E4EFC01E957F10940812F
:104DF000433480F1FA978081873860F1EEEAF1E17F
:104E0000DF01A20FB31FAC5BB1098C91819371E1FB
:104E1000E83EF707A9F78AE390E09093A511809305
:104E2000A4118CE0B3C42E3C81E0380721F02F3F61
:104E300091E0390779F48091EF11893C58F0809125
:104E40003112893C38F080917312893C18F082E469
:104E500090E0F3C22C34A1E03A0769F02E38B1E0BB
:104E60003B0749F0203DE1E03E0729F02F3FF1E00C
:104E70003F0709F08FC48091F111833D58F0809174
:104E80003312833D38F080917512833D18F084E42D
:104E900090E0D3C2223941E0340729F02F3F61E08E
:104EA000360709F085C08091F111833D40F0809173
:104EB0003512833D20F080917712833D40F72E3BE1
:104EC00071E03707D1F49091F7119C3708F416C1BF
:104ED000809141128C57863108F010C180918B125D
:104EE0008C57863108F00AC1923908F007C182E474
:104EF0008093AD118AE490E0A3C02F3F81E0380792
:104F000009F05BC0ADEFB1E1E0E5F0E08D918333F6
:104F100098F48451833028F03196E437F105B1F7E5
:104F20000BC0EC55FE4E82858451833028F4838576
:104F30008451833008F4F1C39091FF119232E8F06C
:104F40008091511282528031C0F48091A31282521A
:104F5000803198F4923388F48091FE11893068F49E
:104F6000E0EBF1E181918351863138F4B1E1E63B28
:104F7000FB07C1F782E590E004C48091AF118C5724
:104F8000863100F59091FB119C37E0F0809147123B
:104F90008C578631B8F4809193128C57863190F4F7
:104FA000923980F482E48093AD118CE490E048C0A3
:104FB0002E3BF1E03F0709F486CF2D3CE1E03E07B0
:104FC0000CF49CC08091AF11873898F09091E91152
:104FD000973878F090912312973858F0E0EBF1E190
:104FE000AEEAB1E181918D9321E1EA3EF207D1F77A
:104FF00022C09091E711973840F090912112973894
:1050000020F090915B129738B0F44091B11147387D
:10501000E0F09091EB119738C0F0909125129738FD
:10502000A0F0E2EBF1E1AEEAB1E181918D9341E1D3
:10503000EC3EF407D1F78CE08093AD118AE390E069
:105040009093A5118093A411A3C32F3F61E036076D
:1050500009F054C09091AE119D38A0F18334C0F096
:105060005091B0115532A0F0509104125D3880F08B
:1050700050910512533460F050910612553240F0B1
:1050800085E590E09093A5118093A41189E17EC3FA
:105090009A39C0F0909132129A39A8F19091B612D3
:1050A0009A3988F1813278F58091B011813258F5C2
:1050B000413248F584E890E09093A5118093A411C3
:1050C0008BE164C39431F8F4873AE8F080913112AF
:1050D000873AC8F08091B312873AA8F08091B01156
:1050E000813188F480913212813168F484E890E053
:1050F0009093A5118093A4118DE448C32C3271E0E4
:1051000037070CF486C26091AE11633440F0809191
:105110001112873820F080911212833428F4EEEABD
:10512000F1E181E090E00AC084E690E028C040818F
:10513000433440F401968836910539F1419147385E
:10514000C8F3F5CF9C012C553E4EF901E359FF4FB2
:105150008081873808F41CC331968081833408F439
:1051600017C3EEEAF1E180E090E0D901A80FB91F82
:1051700019964C914193019684369105B1F790931D
:10518000A5118093A4118BE001C32F3F81E0380764
:1051900009F093C18091AF118F3698F08091F91189
:1051A0008F3678F0809143128F3658F080918D12AF
:1051B0008F3638F08CE490E09093A5118093A41181
:1051C00031C0E7EFF1E180E090E041914F3660F1CE
:1051D000DF01A75BBF4F4C914F3630F1009761F074
:1051E000A459B1094C914F3638F0EEEAF1E120E0D4
:1051F00030E08C559E4E07C0DF01AD56BF4F4C913D
:105200004F3690F0F2CF2F5F3F4FDC01A20FB31F5C
:1052100019964C9141932A343105A9F73093A51181
:105220002093A41182E4B2C201968A34910569F6F2
:10523000EFEAF1E142E050E081918532B8F1DF011F
:10524000AF58BF4F8C91853288F1AE58BF4F8C91CB
:10525000853260F1AE58BF4F8C91853238F1A35E34
:10526000B1098C91843210F511968C918432F0F44E
:1052700011968C918432D0F411968C918432B0F4D2
:10528000EEEAF1E180E090E04C555E4E0196DA01E5
:10529000A80FB91F19962C91219382379105B1F768
:1052A0009093A5118093A41181E970C24F5F5F4F65
:1052B0004237510509F68091B9118D3810F440E05C
:1052C00005C0809179128D38D0F34CE08091BB11EC
:1052D0008D3828F080917B128D3808F04EE0809157
:1052E000BD118D3828F080917D128D3808F040E195
:1052F0008091BF118D3820F080917F128D3818F485
:10530000442341F001C042E1EEEAF1E181E090E0A6
:1053100050E009C0EFEDF1E182E390E018C0719137
:105320007932C0F7019684179507CCF3EEEAF1E1E4
:1053300080E090E04C555E4E0196DA01A80FB91F4F
:1053400019962C912193803C9105B1F7D9C14191D7
:1053500046534C3008F045C08C010C551E4ED80108
:10536000DD964C91463310F470E00FC0AF014959FF
:105370005F4FDA014C914633B8F3AF0145565F4FAA
:10538000DA014C91463380F372E0D801DB964C9100
:10539000463398F0AF014D595F4FDA014C914633D7
:1053A00060F0AF014B565F4FDA014C91463328F065
:1053B000EEEAF1E180E090E003C0772391F0F8CFCE
:1053C00001969801280F391FD90119962C91219324
:1053D00084339105A9F79093A5118093A41181E7D7
:1053E000D5C101968836910509F0B1CFEFEAF1E118
:1053F00042E050E08191893C30F1DF01AF5BBF4F6B
:105400008C91893C00F1AE5BBF4F8C91893CD8F008
:10541000AE5BBF4F8C91893CB0F0EEEAF1E180E0E9
:1054200090E04C555E4E0196DA01A80FB91F19960F
:105430002C91219382349105B1F79093A51180931B
:10544000A41187E0A3C14F5F5F4F4534510591F62A
:10545000EFEAF1E182E090E04191473A48F18C01B6
:105460000C551E4ED8019D964C91473A08F1AF015C
:10547000495B5F4FDA014C91473AD0F0849741F491
:1054800084E290E09093A5118093A4118CE87EC1F2
:10549000EEEAF1E180E090E001969801280F391FD3
:1054A000D90119962C91219384329105A9F7E8CF5F
:1054B00001968532910581F605C02139B1E03B079F
:1054C0000CF4A7C06F3600F18091AF118F36E0F079
:1054D0008091D4118F36C0F08091D5118F36A0F015
:1054E0008091FA118F3680F08091FB118F3660F039
:1054F0008091B011833540F486E290E09093A5113D
:105500008093A41183EA42C12F3FE1E03E0709F0F6
:1055100080C08091C7119CEA980F9A3140F4909115
:10552000E111943520F09091FB119435C0F5875A24
:10553000813240F48091E111873A20F08091FB1193
:10554000873A28F44FEA51E182E090E015C0E8EC98
:10555000F1E1AEEAB1E181918D9321E1EA3FF207F9
:10556000D1F71DC0FC01EC55FE4E23A1243550F4AB
:1055700001968C31910589F1DA012D91AD01243527
:10558000B8F3F0CF25AD243598F39D01235B3F4F51
:10559000D9012C91243560F38285893118F08AE194
:1055A00090E031C083858931D0F784858931B8F79F
:1055B00085858931A0F74EEA51E180E090E00196BF
:1055C0009F01280F391FD90119962C91DA012D93CB
:1055D000AD018A31910599F7E2CF8091D7118455B9
:1055E0008A3150F48091011284558A3128F48091D7
:1055F0002B1284558A3128F0EEEAF1E121E030E007
:1056000013C08AE290E09093A5118093A4118EE8D4
:10561000BDC02332314009F4BBC0EECF2F5F3F4FF6
:105620002233310509F45AC08191823108F056C005
:105630008A30A0F3522F81E090E02C553E4E07C0F7
:105640004A3060F401968233910509F447C0F901AC
:10565000E80FF91F4185423198F340C0452F480FAC
:1056600059EE580F5931D0F59927DC01A40FB11D1F
:10567000FD01E80FF91FEC55FE4E0185AC55BE4EFD
:1056800018961C911897708517966C9117975781EB
:1056900019964C914A50473008F546EF400F473075
:1056A000E8F41930D8F47930C8F46930B8F45930D6
:1056B000A8F4EEEAF1E140E050E04F5F5F4FD9011E
:1056C000A40FB51F19966C91619348175907ACF355
:1056D0009093A5118093A41182E258C082E291E0D8
:1056E0009093A5118093A41184E450C081E05DC023
:1056F0008BE48093AD117093A5116093A41148C001
:105700009093A5118093A41188E440C08091C311A7
:10571000883108F411CB81E339C08485845183300A
:1057200008F00ACC85858451833008F005CC868545
:105730008451833008F000CCDF01AD59BF4F8C910C
:105740008451833008F0F8CB11968C9184518330CA
:1057500008F0F2CB11968C918451833008F0ECCB99
:105760004EEA51E180E090E09F01280F391FD901F6
:1057700019962C91DA012D93AD0101968A35910588
:1057800099F79093A5118093A41180E58093AD11B2
:1057900080E00BC02239E1E03E0709F484CB2E3BC8
:1057A00041E0340709F009CC8ECB29960FB6F89466
:1057B000DEBF0FBECDBFDF91CF911F910F91FF9044
:1057C000EF90DF90CF9008956F927F928F929F928B
:1057D000AF92BF92CF92DF92EF92FF920F931F93FF
:1057E000CF93DF93CDB7DEB72C970FB6F894DEBF1B
:1057F0000FBECDBF4091A4115091A51161EA640F75
:105800004636510589F4E62FF0E0EC55FE4E8185D1
:105810008B3150F083858A3138F485858B3120F0C7
:1058200069E06624639401C0612C20E030E0712CB3
:1058300080E090E0DC01812C912C540170E08B0120
:105840000C551E4E7B01EFEFEE1AFE0AF901E60F32
:10585000F71FE417F507DCF5F801E20FF31FD28418
:105860000F2EFEEDCF2EF02DDC0C0F2EFDE0CF2EF7
:10587000F02DCD1440F46701C20ED31EC416D50618
:1058800014F480E044C2E185EB3168F0EFE0E71505
:1058900028F0880C991CAA1CBB1C0FC0880F991FEC
:1058A000AA1FBB1F11C0EFE0CE2EC71440F0880C1A
:1058B000991CAA1CBB1C689480F8739405C0880FBF
:1058C000991FAA1FBB1F81602E5F3F4FBFCF21E0F2
:1058D000621204C0880F991FAA1FBB1F8114910474
:1058E000A104B10471F2B501A4012CE0769567958D
:1058F000579547952A95D1F74F704983493019F04C
:10590000463009F0BECFFF24EB2CDA2CC92C2C2D0D
:105910002F702A83B501A40134E0769567955795D9
:1059200047953A95D1F74F704B83282D2F702C83D4
:10593000AC01BD01ECE17695679557954795EA95E1
:10594000D1F74D832B2F2F702E83AC01BD01F4E1D5
:105950007695679557954795FA95D1F74F704F8390
:105960002A2F2F702887AC01BD011CE07695679522
:10597000579547951A95D1F74F704987292F2F7062
:105980002A87AC01BD0104E0769567955795479548
:105990000A95D1F74F704B87FE0131969E01245F27
:1059A0003F4F40E05191450FE217F307D9F7242FFD
:1059B0002F70422F50E060E070E08F709927AA2787
:1059C000BB27481759076A077B0709F05ACF1C2DD8
:1059D0001370822F90E0982F8827810F911D6C0102
:1059E000EE24D7FCE094FE2C90919B1180919A11AB
:1059F00098131DC08090A0119090A111A090A211A9
:105A0000B090A3110F94D23586169706A806B90652
:105A100070F080919C1190919D11A0919E11B09178
:105A20009F118C159D05AE05BF0509F45DC0C092A0
:105A30009C11D0929D11E0929E11F0929F11111134
:105A40005CC02F8188853AE0839FC0011124E4E681
:105A50002E9F800D911D11242985820F911D298172
:105A6000293009F043C00CE211E00817190708F0CB
:105A700040C09C01201B310B890168EF7BE084E270
:105A800098E10F942D3A80919A1691E0980F909397
:105A90009A160E94B1216AE877E184E298E10F94B6
:105AA000083A62E0CE0103960E945C211F930F9397
:105AB00080EB97E09F938F9389E496E19F938F9378
:105AC0000F94934069E476E184E298E10F94483AB8
:105AD0000F900F900F900F900F900F901092A611B3
