:100000000C94930F0C94C40F0C94C40F0C94C40F55
:100010000C94C40F0C94C40F0C94C40F0C94C40F14
:100020000C94C40F0C94C40F0C94C40F0C94C40F04
:100030000C94C40F0C94C40F0C94C40F0C94C40FF4
:100040000C94C40F0C94C40F0C94C40F0C94C40FE4
:100050000C94C40F0C94C40F0C94C40F0D94B26C88
:100060000C94C40F0D943C700D9472700C94C40FDA
:100070000C94C40F0C94C40F0C94C40F0C94C40FB4
:100080000C94C40F0C94C40F0C94C40F0C94C40FA4
:100090000C94C40F0C94C40F0C94C40F0C94C40F94
:1000A0000C94C40F0C94C40F0C94C40F0C94C40F84
:1000B0000C94C40F0C94C40F0C94C40F0C94C40F74
:1000C0000C94C40F0C94C40F0C94C40F0C94C40F64
:1000D0000C94C40F0C94C40F0C94C40F0C94C40F54
:1000E0000C94C40F94000C01F400B4000A01E60063
:1000F000FC00DE00AE002601E800A800BA00AC005B
:10010000E6003201E0002E010D94FB490D94C15030
:100110000D9480170D946C4F0D94C6420D94B253FC
:100120000D94632C0D94A0540D94FA6D0D94D91375
:100130000D94D86E0D9432500D9418370D94BA3F2B
:100140000D94792A0D94C3220D94AD330D944E5520
:100150000D94196E0D946E260D94216E0D940B6EF8
:100160000D94F4700D94322B0D94F06D0D94421E8D
:100170000D94B4580D941D6E0D94961B0D94484526
:100180000D94033C0D94A0340D94FA6E0D94FD383B
:100190000D9453120D94E9240D94373B0D940B529A
:1001A0000D94C1350D94CB6E0D94A5270D94175A5F
:1001B0000D9476300D94653D0D94AC210D94056E33
:1001C0000D942B6E0D94A7590D94875A0D94346E8F
:1001D0000D94136E0D94214C0D94E3190D948A4ED9
:1001E0000D94DA520D944F3A0D94EC6D0D94CD6E42
:1001F0000D9493480D9422580D94016E0D94EF15B3
:100200000D94B8410D946C4B0D949B700D94035755
:100210000D948E280D94F66D0D94FD6D0D944E4643
:100220000D94E66E0D94692E0D94576F0D94CA438C
:100230000D94294D0D94FB550D94A4700D94874099
:100240000D94FD310D94953E0D94441F0D940F6E49
:100250000D94786F0D94772D0D940B0E0D942F6ED9
:100260000D94BB200D94276E0D94E25A0D9489478E
:100270003B003B003B43483D003B424C452044454E
:100280004255473B4C454E3D003B44454255473D5A
:10029000003B733D003B743D003B706C74797065AE
:1002A0003D003B4C656E3D003B003B4C55583D00CE
:1002B0004F4E3B004F46463B003B53574954434843
:1002C0003D313B434D443D003B003B48554D3D00D7
:1002D0003B4D7953656E736F72733B49443D003BF0
:1002E000003B003B733D003B743D003B706C7479F8
:1002F00070653D003B4D7953656E736F72733B4C77
:10030000656E3D003B4D7953656E736F72204445B9
:100310004255473B003B416E736C75746120444508
:100320004255473B004F4E3B005345545F4C4556AA
:10033000454C3D383B004F46463B00434D443D0055
:100340003B5357495443483D303B003B416E736C2F
:100350007574613B49443D0042797465733D003BCF
:10036000416E736C7574612044454255473B003BB8
:100370004C6976436F6C2044454255473B004F4ED5
:100380003B004F46463B00434D443D003B4C4956E5
:10039000434F4C3B49443D0042797465733D003BFB
:1003A0004C6976436F6C2044454255473B00451FDE
:1003B000145C2BC9E3116D5F8A2BAF031DF31AE2A6
:1003C000F0D104D87142AF04DD07611338644449A9
:1003D00053434F2D3B00444953434F2B3B00573B66
:1003E000004D4F444500434F4C4F523B0042524951
:1003F0004748543B004F46463B004F4E3B00414C64
:100400004C00434D443D003B4D694C696768747630
:10041000313B49443D0042797465733D003B4D6971
:100420004C696768742044454255473B00434D443E
:100430003D4F4E00434D443D4F46460053574954AF
:1004400043483D303B0049443D333B003B47504926
:100450004F7365743B00434D443D4F4E00434D4444
:100460003D4F4646005357495443483D303B0049B1
:10047000443D323B003B4750494F7365743B00435A
:100480004D443D4F4E00434D443D4F46460053576B
:10049000495443483D303B0049443D313B003B47D4
:1004A00050494F7365743B00434D443D4F4E0043EC
:1004B0004D443D4F4646005357495443483D303B19
:1004C0000049443D303B003B4750494F7365743B06
:1004D000003B50756C7365732875536563293D0047
:1004E0003B44454255473B50756C7365733D003244
:1004F000303B003B50756C736573287553656329F9
:100500003D003B44454255473B50756C7365733D18
:100510000032303B003B536C6176653B446562754D
:10052000673D0032303B003B536C6176653B0032E7
:10053000303B003B536C6176653B44656275673DBB
:100540000032303B003B536C6176653B0032303B00
:1005500000534D4F4B45414C4552543D4F4E3B008F
:100560004F46463B004F4E3B00434D443D005365D4
:1005700063753B0053656E736F723B003B59575F69
:100580000032303B004241543D4C4F573B0042410A
:10059000543D4F4B3B0032303B00534D4F4B454198
:1005A0004C4552543D4F4E3B005357495443483DF0
:1005B00030313B434D443D4F4E3B003B524D313774
:1005C0003452463B0032303B00534D4F4B45414C7B
:1005D0004552543D4F4E3B005357495443483D30DC
:1005E000313B434D443D4F4E3B003B416C65637492
:1005F0006F53413B0032303B00474F444F574E3B17
:1006000000474F55503B0053544F503B004F4E3B1B
:10061000004F46463B00444F574E3B0055503B0071
:10062000434D443D005357495443483D30333B000C
:100630005357495443483D30323B00535749544384
:10064000483D30313B003B4D657274696B3B003275
:10065000303B00474F444F574E3B00474F55503BB0
:100660000053544F503B004F4E3B004F46463B001B
:10067000444F574E3B0055503B00434D443D0053C3
:1006800057495443483D31333B005357495443483D
:100690003D31323B005357495443483D31313B00D3
:1006A0004D657274696B5F475636303B00534D4F52
:1006B0004B45414C4552543D4F4E3B0053574954D6
:1006C00043483D30313B434D443D4F4E3B003B465C
:1006D00041323052463B0032303B004348494D45A1
:1006E0003D30313B005357495443483D313B434D26
:1006F000443D4F4E3B003B446F6F7262656C6C3BF8
:100700000032303B004348494D453D30313B0053BA
:1007100057495443483D313B434D443D4F4E3B00C8
:100720003B46726965646C616E643B0032303B002D
:100730004348494D453D30313B00535749544348A8
:100740003D313B434D443D4F4E3B003B446F6F7248
:1007500062656C6C3B0032303B004348494D453D7F
:1007600030313B005357495443483D313B434D449E
:100770003D4F4E3B003B456C726F44423B00323074
:100780003B004348494D453D30313B0053574954A8
:1007900043483D313B434D443D4F4E3B003B446F4E
:1007A0006F7262656C6C3B0032303B004348494DD0
:1007B000453D30313B005357495443483D313B435D
:1007C0004D443D4F4E3B003B53696C7665726372FE
:1007D00065737444423B0032303B004348494D4509
:1007E0003D30313B005357495443483D313B434D25
:1007F000443D4F4E3B003B4279726F6E204D503B63
:100800000032303B004348494D453D30313B0053B9
:1008100057495443483D313B434D443D4F4E3B00C7
:100820003B44656C74726F6E69633B0032303B0011
:100830003B4279726F6E3B0032303B005357495454
:1008400043483D313B434D443D4F4E3B003B506C94
:1008500069656765723B0032303B004348494D454E
:100860003D30313B005357495443483D313B434DA4
:10087000443D4F4E3B003B446F6F7262656C6C3B76
:100880000032303B003B434D443D4F4E3B434849D3
:100890004D453D30313B005357495443483D003BA3
:1008A00053656C656374506C75733B0032303B006C
:1008B000434D443D4F46463B00434D443D4F4E3B28
:1008C000005357495443483D30313B003B46414C6F
:1008D0004D45433B0032303B004F4B3B004C4F57A4
:1008E0003B004F4B3B004241543D00434D443D4F84
:1008F00046463B00434D443D4F4E3B003B5357491A
:100900005443483D30313B003B4B6F6E6967536544
:10091000633B49443D0032303B00434D443D4F4E24
:100920003B00434D443D4F46463B005357495443DB
:10093000483D30313B003B44697465633B003230D5
:100940003B003B434D443D4F4E3B005357495443BE
:10095000483D003B46726965646C616E643B0032E1
:10096000303B004F46463B004F4E3B00434D443D1D
:10097000005357495443483D30313B003B4C6F6274
:1009800065636F3B0032303B00434D443D4F4E3B6F
:10099000005357495443483D30313B003B4D4331B0
:1009A00034353032363B0032303B004F4E004F4E34
:1009B000004F4E004F4E004F4E004F4646004F46F0
:1009C00046004F4E004F4646004F4E004F464600F1
:1009D0004F4E003B5357495443483D30313B434D04
:1009E000443D003B41746C616E7469633B49443D16
:1009F0000032303B004241543D4C4F573B00424196
:100A0000543D4F4B3B00434D443D4F4E3B00434D07
:100A1000443D4F46463B003B4B65656C6F713B491F
:100A2000443D0032303B00434D443D4F4E3B003B84
:100A30005831303B0032303B00434D443D4F4E3B3C
:100A400000434D443D4F46463B00535749544348AD
:100A50003D30323B003B436875616E676F3B00324F
:100A6000303B00434D443D4F4E3B003B45563135F6
:100A700032373B0032303B00434D443D4F4E3B004C
:100A80005357495443483D30313B003B4854313281
:100A9000453B0032303B004F46463B004F4E3B004B
:100AA000434D443D003B44726179746F6E3B0032AC
:100AB000303B00443D004F46463B004F4E3B004319
:100AC0004D443D003B48616765723B0032303B005E
:100AD0003B46616265723B0032303B00434D443D12
:100AE0004F4E3B00434D443D4F46463B003B466125
:100AF0006265723B0032303B00434D443D4F4E3BFC
:100B000000434D443D4F46463B00535749544348EC
:100B10003D30313B003B4C454752414E44434144FC
:100B20003B0032303B004F46463B004F4E3B004FB0
:100B30004E3B004F46463B00434D443D003B4E6913
:100B40006E67626F36343B0032303B004241543DA9
:100B50004F4B3B004241543D4C4F573B00434D44AB
:100B60003D4F4E3B00534D4F4B45414C4552543D3C
:100B70004F46463B00434D443D4F46463B00534D98
:100B80004F4B45414C4552543D4F4E3B00434D4425
:100B90003D4F4E3B004558543D436F6E7461637446
:100BA0003B00434D443D4F46463B00434D443D4F83
:100BB0004E3B004558543D5049523B00434D443D47
:100BC0004F46463B00434D443D4F4E3B0045585435
:100BD0003D4152656D6F74653B00434D443D4F464A
:100BE000463B00434D443D4F4E3B004558543D5419
:100BF000595849413B00434D443D4F46463B004315
:100C00004D443D4F4E3B004558543D5459444F4D83
:100C10003B00434D443D4F4E3B004558543D5479B5
:100C2000626F783331303B00434D443D4F4E3B00C3
:100C3000434D443D4F46463B004558543D54796230
:100C40006F783B00434D443D4F46463B00434D4487
:100C50003D4F4E3B003B4265757265723B00323042
:100C60003B003B56696B696E673B0032303B003B93
:100C70004654303034543B0032303B003B534C310F
:100C800030393B0032303B0046697273746C696ED8
:100C9000653B0044696769746563683B0042415481
:100CA0003D4C4F573B004241543D4F4B3B003B4274
:100CB0004C3939393B0032303B003B524654656376
:100CC000683B0032303B004241543D4C4F573B00A3
:100CD0004241543D4F4B3B003B42616C64723B00D0
:100CE0003B4C6163726F73736556343B0032303B2B
:100CF000003B4163757269746556333B0032303B8B
:100D0000003B496E6F56616C6C65795F534D3230B4
:100D1000303B003B52656E6B666F72636520455FCA
:100D200054413B0032303B003B416C6563746F5F64
:100D3000313330305F536F696C3B0032303B003BE6
:100D4000416C6563746F5F313330305F4169723B72
:100D50000032303B003B5748333B0032303B0042CF
:100D600041543D4C4F573B004241543D4F4B3B009B
:100D70003B4163757269746556323B0032303B000B
:100D80004241543D4C4F573B004241543D4F4B3B39
:100D9000003B416375726974653B0032303B003B38
:100DA00046696E654F6666736574323B0032303B50
:100DB000004241543D4C4F573B004241543D4F4B44
:100DC0003B003B5748353032393B0032303B00491D
:100DD000443D3030003B436F6E7261643B003B50DA
:100DE00068696C6970733B0032303B003B42696C50
:100DF00074656D613B49443D3030003B524658318B
:100E0000304D455445523B0032303B003B4F7265FC
:100E1000676F6E205747523830303B444542554744
:100E20003D003B4F574C5F496E74756974696F6E36
:100E30003B49443D3032003B4F574C5F496E74751F
:100E40006974696F6E3B49443D3031003B4F574CEC
:100E50005F496E74756974696F6E3B49443D30300B
:100E6000003B4F574C5F496E74756974696F6E3BF8
:100E700049443D3033003B4F574C5F434D31383090
:100E80003B49443D3030003B4F574C5F434D31317F
:100E9000393B49443D3030003B4F574C5F434D3167
:100EA00036303B49443D3030003B4F574C5F434D5B
:100EB0003133303B49443D3030003B4F574C5F436A
:100EC0004D3131333B49443D004241543D4F4B3B52
:100ED000004241543D4C4F573B003B4F7265676F9A
:100EE0006E2055564E3830303B49443D0042415407
:100EF0003D4F4B3B004241543D4C4F573B003B4F15
:100F00007265676F6E2055564E3178383B49443DC7
:100F1000004241543D4F4B3B004241543D4C4F57E2
:100F20003B003B4F7265676F6E2057696E64323BC2
:100F300049443D004241543D4F4B3B004241543DEA
:100F40004C4F573B003B4F7265676F6E2057696E81
:100F5000643B49443D004241543D4C4F573B0042A5
:100F600041543D4F4B3B003B4F7265676F6E2052C3
:100F700061696E323B49443D004241543D4F4B3B19
:100F8000004241543D4C4F573B003B4F7265676FE9
:100F90006E205261696E3B49443D004241543D4CD4
:100FA0004F573B004241543D4F4B3B003B4F726516
:100FB000676F6E204254483B49443D004241543DD6
:100FC0004C4F573B004241543D4F4B3B003B4F720F
:100FD00065676F6E2054656D70487967726F3B4925
:100FE000443D004241543D4C4F573B004241543D2B
:100FF0004F4B3B003B4F7265676F6E2054656D70C1
:101000003B49443D004241543D4F4B3B004241541B
:101010003D4C4F573B003B4F7265676F6E56313BFF
:1010200049443D3030003B42696F77696E3B003286
:10103000303B004241543D4F4B3B004241543D4CFC
:101040004F573B003B54756E65783B49443D003B30
:101050005869726F6E3B49443D003B417572696F40
:101060006C2056323B49443D004241543D4F4B3B7E
:10107000004241543D4C4F573B003B417572696FF4
:101080006C3B49443D3030003B417572696F6C20C8
:1010900056333B49443D003B4C6143726F7373656B
:1010A0003B49443D0032303B003B4C6143726F731F
:1010B00073653B49443D0032303B004241543D4F53
:1010C0004B3B004241543D4C4F573B003B55504D2C
:1010D0005F457369633B49443D003B4C6143726F1C
:1010E00073736556333B49443D0032303B003B4C03
:1010F0006143726F73736556333B49443D00323030
:101100003B003B4C6143726F73736556333B4944FC
:101110003D0032303B003B4C6143726F7373655648
:10112000333B49443D0032303B003B4C6143726FDE
:1011300073736556333B49443D0032303B003B4CB2
:101140006143726F73736556333B49443D003230DF
:101150003B003B4D656275733B0032303B004241C2
:10116000543D4F4B3B004241543D4C4F573B003B9D
:10117000496E6F56616C6C65793B0032303B003BC9
:101180004B726970706C3B0032303B003B50726FA9
:101190006C6F6775653B0032303B003B4575726F85
:1011A0006368726F6E3B0032303B003B5754303106
:1011B00032323B0032303B003B003B43726573747C
:1011C000613B44454255473B49443D004241543D03
:1011D0004C4F573B004241543D4F4B3B003B437209
:1011E000657374613B49443D004241543D4C4F5747
:1011F0003B004241543D4F4B3B003B43726573748F
:10120000613B49443D004241543D4C4F573B0042F5
:1012100041543D4F4B3B003B4372657374613B4906
:10122000443D004241543D4C4F573B004241543DE8
:101230004F4B3B003B4372657374613B49443D0037
:101240004241543D4C4F573B004241543D4F4B3B74
:10125000003B4372657374613B49443D003B416C04
:101260006563746F2056353B0032303B0042415479
:101270003D4C4F573B004241543D4F4B3B003B5090
:101280006F6C6C696E3B003B476C6F62616C5472B3
:101290006F6E6963733B003B416C6563746F2056EE
:1012A000343B0032303B003B416C6563746F563316
:1012B0003B003B58543230303B003B46696E654F33
:1012C00066667365743B003B496D6167696E747255
:1012D0006F6E69783B0032303B00416C6563746F20
:1012E0002056313B00416C6563746F2056313B00E2
:1012F000416C6563746F2056313B004241543D4C54
:101300004F573B004241543D4F4B3B003B416C65C6
:1013100063746F2056313B0032303B004241543DF4
:101320004C4F573B004241543D4F4B3B003B4630F6
:1013300030375F783B003B463030375F545F504674
:101340003B003B463030375F54483B0032303B0077
:1013500053544F503B00444F574E3B0055503B00B9
:10136000434D443D003B4C6977696E3B0032303B56
:10137000004241543D4C4F573B004241543D4F4B7E
:101380003B003B41637572697465336E313B0032DB
:10139000303B004F4E3B004F46463B00414C4C001B
:1013A000434D443D003B5374656666656E3B0032B9
:1013B000303B004F46463B004F4E3B00414C4C00FB
:1013C000434D443D003B4E696E67626F3B003230D7
:1013D0003B003B004F46463B004F4E3B004F4E3BD1
:1013E00000444F574E3B0055503B00434D443D0099
:1013F0005357495443483D323B005357495443489F
:101400003D313B005357495443483D303B003B423C
:101410006F7363683B0032303B00434D443D4F46A1
:10142000463B00434D443D53544F503B00434D44D5
:101430003D444F574E3B00434D443D55503B0043C8
:101440004D443D4F4E3B005357495443483D003BAC
:101450004854365032303B0032303B004F46463B1A
:10146000004F4E3B00434D443D003B545230303919
:101470003B0032303B0053544F503B00444F574EDB
:101480003B0055503B00434D443D003B4761706F6E
:1014900073613B0032303B003B4741504F53413B6F
:1014A00044454255473D0032303B003B5265766F24
:1014B0006C743B0032303B004F46463B004F4E3B86
:1014C00000434D443D003B48616C656D6569657244
:1014D0003B003B4D65726361746F723B0032303B81
:1014E0000032303B004F4E3B004F46463B00434DE1
:1014F000443D003B4E6F76617479733B0032303B64
:101500000053544F503B00444F574E3B0055503B07
:1015100000434D443D003B444959413B0032303B80
:101520000032303B444959413B44454255473D0018
:101530004F46463B0053544F503B004F4E3B0041FB
:101540004C4C00434D443D003B466F726573743B09
:1015500049443D0032303B004F4E3B00434D443D3B
:10156000003B4C69766F6C6F3B0032303B0053544C
:101570004F503B00504149523B0053544F503B00A9
:1015800055503B00444F574E3B00434D443D003BBC
:101590004B696E6770696E3B0032303B004F4646C8
:1015A0003B004F4E3B00414C4C00434D443D003B03
:1015B0004B6F63683B0032303B0053544F503B004D
:1015C0004F4E3B0053544F503B00444F574E3B004F
:1015D00055503B0053544F503B00444F574E3B0037
:1015E00055503B0053544F503B00444F574E3B0027
:1015F00055503B0053544F503B00444F574E3B0017
:1016000055503B00434D443D005357495443483DDA
:1016100030313B003B5254533B0032303B003230C0
:101620003B0053544F503B004F4E3B0053544F50E0
:101630003B00444F574E3B0055503B0053544F50D6
:101640003B00444F574E3B0055503B0053544F50C6
:101650003B00444F574E3B0055503B0053544F50B6
:101660003B00444F574E3B0055503B00434D443DDB
:10167000005357495443483D30313B003B5254538B
:101680003B0032303B0032303B0053544F503B0064
:101690004F4E3B0053544F503B00444F574E3B007E
:1016A00055503B0055503B00444F574E3B00535460
:1016B0004F503B00444F574E3B0055503B00535456
:1016C0004F503B00444F574E3B0055503B00535446
:1016D0004F503B00444F574E3B0055503B00434D4D
:1016E000443D005357495443483D30313B003B5241
:1016F00054533B0032303B0032303B0053544F5088
:101700003B0053544F503B00444F574E3B00555005
:101710003B00434D443D003B4852434D6F746F7254
:101720003B0032303B004C4F573B004F4B3B00429D
:1017300041543D004F4E3B004F46463B00414C4C10
:1017400000434D443D003B46756E6B6275733B0034
:1017500032303B00434D443D4F4E3B003B56656CA1
:101760006C656D616E3B0032303B0053544F503B13
:1017700000444F574E3B0055503B00434D443D0005
:101780003B446F6F79615F76343B003B446F6F7908
:10179000615F76333B003B446F6F79615F76323B2C
:1017A000003B446F6F79613B0032303B0053544F34
:1017B000503B004F4E3B004C4F434B3B0053544F6C
:1017C000503B00444F574E3B0055503B00434D4467
:1017D0003D003B4272656C4D6F746F723B0032305E
:1017E0003B00504149523B004C494D49543B00435A
:1017F0004F4E4649524D3B0053544F503B00444FCF
:10180000574E3B0055503B0055503B00434D443D27
:10181000003B426F66754D6F746F723B0032303B18
:10182000004F46463B004F4E3B00414C4C00434D61
:10183000443D003B53696C76657243726573743B3B
:101840000032303B005357495443483D30303B0051
:1018500032303B004F46463B004F4E3B00434D4429
:101860003D003B523534363B0032303B004F46465C
:101870003B00414C4C4F46463B004F46463B004FD9
:101880004E3B0053544F503B004F4E3B004F46469B
:101890003B00414C4C4F46463B004F4E3B004F46B1
:1018A000463B00434D443D003B4C6967687477619B
:1018B00076653B0032303B004F46463B004F4E3B87
:1018C00000414C4C00434D443D003B556E697465EE
:1018D000633B0032303B004F46463B004F4E3B00DF
:1018E000414C4C00434D443D003B4575726F706563
:1018F0003B0032303B004F4E3B004F46463B004FD3
:101900004E3B004F46463B00434D443D0053574934
:101910005443483D30323B005357495443483D30CF
:10192000313B003B41737465723B0032303B004FEA
:101930004E3B004F46463B00414C4C00434D443D1E
:10194000003B4D61636C65616E3B0032303B004F84
:101950004E3B004F46463B00414C4C00434D443DFE
:101960000032303B004F4E3B004F46463B00434D5C
:10197000443D003B496B6561204B6F70706C613B6F
:101980000032303B00414C4C4F4E3B00414C4C4FE1
:1019900046463B0044494D3B004252494748543B70
:1019A000004F4E3B004F46463B00434D443D003BFD
:1019B000506F7765726669783B0032303B004F4E5E
:1019C0003B004F46463B00434D443D003B464135BE
:1019D00030303B0032303B003B486F6D65436F6EEB
:1019E000666F72743B0032303B004F4E3B004F46F7
:1019F000463B00414C4C00434D443D003B486F6D1D
:101A000065436F6E666F72743B0032303B00444931
:101A100053434F2D3B00444953434F2B3B0042520D
:101A2000494748543B0044494D3B004F46463B0024
:101A3000434D443D003B54524330325247423B00F9
:101A400032303B003B58313053656E736F723B0050
:101A50004F4E3B004F46463B00434D443D003B58F4
:101A600031305365637572653B00414C4C4F4E3BC2
:101A700000414C4C4F46463B0044494D3B004252CE
:101A8000494748543B004F4E3B004F46463B0043BE
:101A90004D443D003B5831303B0032303B004F4E0F
:101AA0003B004F46463B00434D443D003B4B616D80
:101AB00062726F6F6B3B0032303B004F46463B001B
:101AC0004F4E3B00414C4C00434D443D003B436F67
:101AD0006E7261643B0032303B00414C4C4F4646D5
:101AE0003B00414C4C4F4E3B004F46463B004F4E57
:101AF0003B00434D443D003B426C7973735F544857
:101B00003B003B41737472656C6C3B003B417669F2
:101B10006473656E3B003B426C7973733B003230FB
:101B20003B00434D443D4F4E3B003B563250686FA7
:101B3000656E69783B0032303B004F4E3B004F46AC
:101B4000463B004F46463B004F4E3B004F4E3B004E
:101B50004F46463B00414C4C00434D443D003B4505
:101B600075726F646F6D6573743B0032303B00417A
:101B70004C4C4F4E3B00414C4C4F46463B004F4E69
:101B80003B004F46463B00434D443D003B4E65778E
:101B90004B616B753B0032303B004F46463B004F7C
:101BA0004E3B004F4E3B004F46463B00414C4C00E5
:101BB000434D443D003B54726953746174653B006E
:101BC0003B5054323236323B003B5068696C69708E
:101BD000733B003B496D70756C733B003B53617206
:101BE00074616E6F3B003B496D70756C733B003BDD
:101BF0004142343030443B003B4B616B753B00321B
:101C0000303B004F46463B004F4E3B003B434D446C
:101C10003D003B5246437573746F6D3B49443D35FF
:101C200032343634333B5357495443483D00323005
:101C30003B003B003B003B003B524646696E643B29
:101C4000783B0032303B003B4C6143726F737365ED
:101C500056323B49443D003B4C6143726F737365A0
:101C600056323B49443D003B4C6143726F73736590
:101C700056323B49443D003B4C6143726F73736580
:101C800056323B49443D003B50756C736573287573
:101C9000536563293D003B44454255473B50756CB5
:101CA0007365733D0032303B00536C6176653B4495
:101CB000656275673D00536C6176653B0032303B71
:101CC00030303B4E6F646F20526164696F467265BD
:101CD0007175656E63794C696E6B202D2052464C90
:101CE000696E6B20476174657761792056312E31BA
:101CF000202D20001112131415160A0B0C0D0E0FB7
:101D000000010203040500000A0B02090C0D0E0875
:101D100007030401000000000000000000000000B4
:101D200000000000000000000000000000000000B3
:101D30000000121110000000000000000000000070
:101D40000000000000000000000000000102102060
:101D500020080810204010204080020102010804E1
:101D60000201010204081020408080402010080475
:101D700002018004020180402010080402010804CE
:101D80000201010204081020408001020408102012
:101D9000408005050505070508080808020202023B
:101DA0000A0A0808040404040101010101010101F7
:101DB0000303030303030303040707070C0C0C0CC2
:101DC0000C0C0C0C020202020606060606060606AB
:101DD0000B0B0B0B0B0B0B0B000020002300260042
:101DE00029002C002F003200000100000301060131
:101DF000090100002200250028002B002E003100E0
:101E0000340002010000050108010B01000021005F
:101E1000240027002A002D003000330001010000BB
:101E2000040107010A0100407A10F35A00A0724E23
:101E300018090010A5D4E80000E87648170000E46F
:101E40000B54020000CA9A3B000000E1F5050000B7
:101E500080969800000040420F000000A08601001C
:101E60000000102700000000E803000000006400EC
:101E7000000000000A000000000001000000000057
:101E80002C76D888DC674F0823DFC1DFAE59E1B17B
:101E9000B796E5E3E453C63AE651997696E8E6C28A
:101EA0008426EB898C9B62ED407C6FFCEFBC9C9F91
:101EB00040F2BAA56FA5F490055A2AF75C936B6CB3
:101EC000F9676DC11BFCE0E40D47FEF520E6B500A7
:101ED000D0ED902E0300943577050080841E080015
:101EE00000204E0A000000C80C333333330F986EC5
:101EF00012831141EF8D2114893BE65516CFFEE682
:101F0000DB18D1844B381BF77C1D901DA4BBE42447
:101F1000203284725E228100C9F124ECA1E53D27C4
:101F2000E4001C01340111241FBECFEFD1E2DEBF5B
:101F3000CDBF00E00CBF12E1A0E0B2E0E6EEF9EFA9
:101F400002E00BBF02C007900D92AE3DB107D9F77A
:101F50002BE1AEEDB2E101C01D92A73EB207E1F761
:101F60001FE1C4E2DFE100E006C022970109FE01A3
:101F70000BBF0F949275C032D10780E00807A9F714
:101F80000F94E8700D94E27C0C940000FC01615009
:101F9000A8F09081892F881F8827881F96FD82606E
:101FA00095FD846094FD886093FD806192FD806260
:101FB00091FD806490FD80688193E9CF0895FC01D4
:101FC000E459FF4F71836083329610820895EF9237
:101FD000FF920F931F93CF93DF938C01F62EEC01AA
:101FE000C459DF4F888199810F942C6C8881998125
:101FF0000F94CC6B61E070E0888199810F94ED6B58
:10200000888199810F948F6C019719F08FEF9FEF62
:1020100077C060E070E0888199810F94ED6B8881D2
:1020200099810F948F6C892B89F764E0888199815D
:102030000F94146B88819981F11024C060E070E0E6
:102040000F94ED6BF801E259FF4FE081F0E0E15FA2
:10205000FC4F6081888199810F94A86921E7E22E65
:1020600031E9F32E0DE71BE620E030E040E050E0E0
:1020700060E0888199810F94A76A01E711E92DE753
:102080003BE61CC062E070E00F94ED6B6CE488816D
:1020900099810F94A8698CEFE82E91EEF92E08EA49
:1020A00018EA20E030E040E050E060E0888199816B
:1020B0000F94A76A0CEF11EE28EA38EA40E050E0EE
:1020C00060E070E0888199810F94586A60E08881AF
:1020D00099810F94CF6B888199810F949E6C40E019
:1020E00060E0888199810F94AA6C63E0888199816E
:1020F0000F94D66B888199810F94E46980E090E019
:10210000DF91CF911F910F91FF90EF900895FC0107
:10211000E259FF4F20812F5F233010F4208301C04C
:102120001082E081F0E0E15FFC4FDC01A459BF4F79
:1021300060818D919C910D94A869EF92FF920F930D
:102140001F93CF93DF938C017B01EC01C459DF4FC8
:10215000888199810F94936BB701882777FD8095CB
:10216000982F0F942B6D888199810F944B6AF82ECC
:102170008823B9F0005D1F4F888199810F944B6AC5
:10218000882379F0888199810F94B46948E2B80175
:10219000888199810F944E6A888199810F948D6905
:1021A000EBCF8F2DDF91CF911F910F91FF90EF908B
:1021B0000895CF92DF92EF92FF920F931F93CF93E8
:1021C000DF9300D01F92CDB7DEB78C0164E670E0DC
:1021D000B4DF882309F495C18091AF198823F9F001
:1021E00061E77EE088E49BE10F9457718091B1191B
:1021F00091E0980F9093B1190E94E72964E073E091
:1022000088E49BE10F94327160E2C801C0960E949D
:102210001A276BE37CE088E49BE10F94727180E005
:1022200090E0F801E80FF91F22A9220F22AB33A991
:1022300037FF02C02F5F22AB01968730910589F7E7
:10224000F801F5A8F694F694F694D6A8D294D6940C
:1022500047E0D422E7A8C0AC20E030E02F1570F4AE
:10226000F801E20FF31F91AD990F91AF82AD87FF97
:1022700002C09F5F91AF2F5F3F4FF0CF8091B019A9
:10228000882309F444C061E77EE088E49BE10F9471
:1022900057718091B11991E0980F9093B1190E94F4
:1022A000E72964EF72E088E49BE10F9432718F2D8F
:1022B0000E94E7296BEE72E088E49BE10F94327193
:1022C0008D2D0E94E72967EE72E088E49BE10F9470
:1022D00032718E2D0E94E72963EE72E088E49BE163
:1022E0000F9432718C2D0E94E72961EE72E088E430
:1022F0009BE10F94327169E06F0DC801C0960E9496
:102300001A276FED72E088E49BE10F94627161E738
:102310007EE088E49BE10F9457718091B11991E0C0
:10232000980F9093B1190E94E72960ED72E088E45C
:102330009BE10F943271F80182A90E94E729E11014
:1023400044C0F80181AD898382AD8A8383AD8B83DC
:1023500084AD8C8369817A818B819C810DEE12E141
:1023600021E042E00F94D0758091F0128093EF123B
:102370001092F012C8010F9405779F938F9384E613
:1023800099E09F938F9380E699E19F938F930F94A9
:10239000B27760E679E188E49BE10F9457710F9082
:1023A0000F900F900F900F900F9088E49BE10F908B
:1023B0000F900F900F90DF91CF911F910F91FF9091
:1023C000EF90DF90CF900D945F71F1E0EF1221C09C
:1023D0006AEC72E088E49BE10F943271F80181AD00
:1023E000898382AD8A8383AD8B8384AD8C8369813D
:1023F0007A818B819C810EED12E120E042E00F9406
:10240000D075B80188E49BE10F94577168EC72E0D5
:102410000FC0F6E1EF121FC069EB72E088E49BE1A8
:102420000F943271F80181AD811112C064EB72E03A
:1024300088E49BE10F900F900F900F90DF91CF9168
:102440001F910F91FF90EF90DF90CF900D946271EC
:1024500060EB72E0EDCFF1E1EF1211C06AEA72E0D9
:1024600088E49BE10F943271F80182AD0E94E72964
:10247000F80181AD0E94E72968EA72E0D9CF62EAEB
:1024800072E088E49BE10F9432718F2D0E94E7295E
:1024900069E972E088E49BE10F9432718D2D0E940E
:1024A000E72965E972E088E49BE10F9432718E2D93
:1024B0000E94E72961E972E088E49BE10F943271A0
:1024C0008C2D0E94E72969E872E088E49BE10F9473
:1024D000327169E06F0DC801C0960E941A276BE344
:1024E0007CE088E49BE10F900F900F900F90DF91BC
:1024F000CF911F910F91FF90EF90DF90CF900D94AF
:1025000072710F900F900F900F90DF91CF911F91EC
:102510000F91FF90EF90DF90CF900895FC01E2596A
:10252000FF4FA081B0E0AE5EBC4F4C914064FC0117
:1025300058E8615088F028E030E091E080E040FF0A
:1025400002C04527892B4695990F21503109B9F7CB
:10255000908198279193EDCF08950F931F93CF9378
:10256000DF93FA012AEA208321832283DAED10E641
:10257000615040F1DC01CD91CD0170814181A8E035
:10258000B0E0072F0170272F30E035952795722F87
:1025900040FD706850E055954795228120FD4068C8
:1025A00030E0359527955C2F5170051302C02283CA
:1025B00003C02D2722834127C695119711F77083F9
:1025C0004183D6CFDF91CF911F910F910895CF9284
:1025D000DF92EF92FF920F931F93CF93DF9300D080
:1025E000CDB7DEB78C016B017C018CE6E80EF11CE7
:1025F000F701808191810F94936BB601882777FD55
:102600008095982F0F942B6DF701808191810F9405
:102610004B6AD82E882369F1F701808191810F944C
:102620004B6A882301F1F701808191810F94B4698D
:1026300040E3B801F701808191810F944E6AF70160
:10264000808191810F948D6960E3C8019FDC60E314
:10265000C80164DFF80161816E5FAE014F5F5F4FBB
:10266000C8017BDFD9CFF801E259FF4F8081809309
:1026700015148D2D0F900F900F90DF91CF911F911A
:102680000F91FF90EF90DF90CF900895CF93DF935D
:10269000EC0164E670E09BDF882309F446C0898181
:1026A000813208F042C061E77EE088E49BE10F944C
:1026B00057718091B11991E0980F9093B1190E94D0
:1026C000E72969E772E088E49BE10F943271898120
:1026D0000E94E72964E772E088E49BE10F9432717D
:1026E0004AE050E06091151488E49BE10F94497230
:1026F00062E772E088E49BE10F94327166E0CE01FC
:1027000002960E941A2760E772E088E49BE10F942A
:10271000327169816650CE0108960E941A276BE3D8
:102720007CE088E49BE10F947271CE01DF91CF9140
:10273000EECC0F93FC0160834183228303830F91CE
:1027400008950895CF93DF93EC0161E08A810F949F
:10275000356E60E08B810F94356E61E089810F9456
:10276000356E61E088810F94356E61E088810F9449
:102770006E6E0F941E6880913D1B882399F09FB761
:10278000F89480913D1B813059F48DB380933B1BAD
:102790002DB380913C1B809582238DBB9FBF02C0CF
:1027A00090933B1B80E58CBD1DBC8CBD8DB58EB55B
:1027B000DF91CF910895CF93DF931F92CDB7DEB70E
:1027C000698389818EBD0DB407FEFDCF8EB50F9054
:1027D000DF91CF910895CF93DF93EC0160E0888182
:1027E0000F946E6E81E090E00F94506D61E08881EF
:1027F0000F946E6E89E290E00F94506D60E08881D6
:102800000F946E6E8B810F94A36E0197D9F360E3E2
:10281000CE01D1DF60E3CE01CEDF61E08881DF91C0
:10282000CF910D946E6E1F93CF93DF93EC01162F13
:1028300060E088810F946E6E8B810F94A36E019778
:10284000D9F3612FCE01B7DF182F61E088810F9493
:102850006E6E812FDF91CF911F910895E4CF0F937A
:102860001F93CF93DF93EC01062F142F60E0888134
:102870000F946E6E8B810F94A36E0197D9F3602F26
:10288000CE0199DF612FCE0196DF182F61E088819C
:102890000F946E6E812FDF91CF911F910F9108954C
:1028A000CF93DF93EC01613011F546E060E0D7DFB4
:1028B00041E062E0CE01D3DF4DE063E0CE01CFDF47
:1028C00045E468E0CE01CBDF40E069E0CE01C7DF40
:1028D00043E06AE0CE01C3DF42E263E1CE01BFDF45
:1028E00040E065E1CE01BBDF45E468E03CC062301A
:1028F00009F03BC049E260E0B2DF46E062E0CE01B1
:10290000AEDF45E068E0CE01AADF41E069E0CE013C
:10291000A6DF40E16AE0CE01A2DF42EA63E1CE0138
:102920009EDF41E065E1CE019ADF47E066E1CE013E
:1029300096DF40E367E1CE0192DF47E86EE1CE012A
:102940008EDF4BE66FE1CE018ADF48EF60E2CE0119
:1029500086DF41E467E2CE0182DF40E068E2CE013B
:102960007EDF49E569E2CE017ADF4FEF66E0CE0116
:1029700076DF44E067E0CE0172DF49E06BE0CE0134
:102980006EDF40E06CE0CE016ADF4DE56DE0CE0128
:1029900066DF43E96EE0CE0162DF41EB6FE0CE011E
:1029A0005EDF4DE260E1CE015ADF4BE361E1CE0133
:1029B00056DF43E762E1CE0152DF48EF64E1CE012A
:1029C0004EDF48E168E1CE014ADF4DE169E1CE0129
:1029D00046DF4CE16AE1CE0142DF47EC6BE1CE011C
:1029E0003EDF40E06CE1CE013ADF42EB6DE1CE012B
:1029F00036DF46EB61E2CE0132DF40E162E2CE013A
:102A00002EDF4AEE63E2CE012ADF4AE064E2CE0125
:102A100026DF40E065E2CE0122DF41E166E2CE0141
:102A20001EDF48E86CE2CE011ADF41E36DE2CE0121
:102A300016DF4BE06EE2CE0112DF4FEF6EE7CE0104
:102A4000DF91CF910CCFBF92CF92DF92EF92FF92A6
:102A50000F931F93CF93DF93EC01162F7A01C22EB1
:102A600060E088810F946E6E8B810F94A36E019746
:102A7000D9F3612FCE019FDEB82E8701D12C9801AA
:102A80002E193F092C153D054CF4F8016081CE014B
:102A900092DEB82EF80181938F01F1CF61E0888139
:102AA0000F946E6E8B2DDF91CF911F910F91FF9040
:102AB000EF90DF90CF90BF900895FF920F931F93F8
:102AC000CF93DF93EC01862F8068F82E60E0888139
:102AD0000F946E6E00E010E28B810F94A36E01974D
:102AE00029F401501109C1F71FEF11C06F2DCE015C
:102AF00062DE6AE070E080E090E00F942B6D60E0B1
:102B0000CE0159DE182F61E088810F946E6E812FFF
:102B1000DF91CF911F910F91FF9008951F93CF9355
:102B2000DF93EC0160E3C9DF182F64E670E080E01A
:102B300090E00F942B6D61E3CE01BFDFC82F64E6F8
:102B400070E080E090E00F942B6D111104C0CC2355
:102B500059F080E00AC01E3019F4CE30D1F704C01D
:102B60001F3FB9F7CF3FA9F781E0DF91CF911F91C8
:102B700008950F93CF93DF93EC01DBDD1C82DF918F
:102B8000CF910F910895DDCDCF93DF93EC01DADD86
:102B9000CE01C4DF8130C1F0CE011DDECE011BDECF
:102BA00062E0CE017DDE4FEF6EE3CE0158DE66E3DC
:102BB000CE0154DE66E3CE0151DE69E3CE014EDE86
:102BC00066E3CE014BDE80E0DF91CF910895CF9395
:102BD000DF93EC0166E342DE6AE3CE013FDE64E3AD
:102BE000CE013CDE6AE070E080E090E00F942B6D57
:102BF00040E06BEFCE0133DE8930C9F440E06FEB8B
:102C0000CE012DDE863081F426E049EB59E16FEFED
:102C1000CE0119DF40E06FEBCE0121DE40E06FEB2B
:102C2000CE011DDE86E004C06AE3CE0117DE80E03F
:102C3000DF91CF910895CF93DF93EC0166E30EDE31
:102C400062E070E080E090E00F942B6D66E3CE01CF
:102C500005DE6AE3CE01DF91CF9100CE1F93CF93C3
:102C6000DF93EC01B4DF182FCE01E5DF163011F051
:102C7000C0E07AC08091B019882371F161E77EE0ED
:102C800088E49BE10F9457718091B11991E0980FFE
:102C90009093B1190E94E7296FE573E088E49BE106
:102CA0000F94327168E573E088E49BE10F94327110
:102CB00086E00E94E7296BE37CE088E49BE10F94C7
:102CC000577166E089EB99E10E941A276BE37CE07B
:102CD00088E49BE10F947271D091BD198091B9196C
:102CE000853531F6C091BA19C13011F68091BE19FF
:102CF0008A3A09F0BDCF61E77EE088E49BE10F945A
:102D000057718091B11991E0980F9093B1190E9479
:102D1000E7296BE473E088E49BE10F94327162E091
:102D20008BEB99E10E941A2760E473E088E49BE151
:102D30000F9432716BE373E088E49BE10F9432717E
:102D4000D13019F466E373E007C0D23019F469E2B8
:102D500073E002C065E273E088E49BE10F94327196
:102D600088E49BE10F945F718C2FDF91CF911F91CD
:102D700008958F929F92AF92BF92CF92DF92EF927F
:102D8000FF920F931F93CF93DF93CDB7DEB7639777
:102D90000FB6F894DEBF0FBECDBF8C01E62ED42E49
:102DA000C52E8091B019882349F085E58D8781E093
:102DB0008E875F87488B698B8AEA8A8B84E1F82E3D
:102DC00096E0892E25E5922EAA24A3943AEAB32E02
:102DD00065EFC80128DD8F7190E00297CCF78982FA
:102DE0009A82AB82CC82DD82EE82BF82F80184813E
:102DF00091E0980F94838887198666E3C8012EDDD9
:102E00006BE3C8012BDD29E0AE014F5F5F4F6FE739
:102E1000C80119DE65E3C80121DD62E370E080E0EE
:102E200090E00F942B6DFA9499F666E3C80116DDD5
:102E30008091B0198823F9F061E77EE088E49BE196
:102E40000F9457718091B11991E0980F9093B11937
:102E50000E94E72965E173E088E49BE10F943271F9
:102E600066E0CE010D960E941A276BE37CE088E4B1
:102E70009BE10F94727163960FB6F894DEBF0FBE9C
:102E8000CDBFDF91CF911F910F91FF90EF90DF9019
:102E9000CF90BF90AF909F908F9008956ACFAF92E0
:102EA000BF92CF92DF92EF92FF920F931F93CF9337
:102EB000DF93EC013EDC1C829E012B563F4FFE014E
:102EC0003596CF0109961192E817F907E1F7E21755
:102ED000F307B9F7108200E010E0E12CF12C88EC48
:102EE000A82EA00EB12C6E01C00ED11EC7018A0DF6
:102EF0009B1D0F94CE79F601EE0DFF1D85838FEF9C
:102F0000E81AF80A89E0E816F10481F7075F1F4F15
:102F10000039110511F7DF91CF911F910F91FF90AB
:102F2000EF90DF90CF90BF90AF9008950ACCCF93F1
:102F3000DF93EC0107DCCE01F1DD8130C1F0CE0181
:102F40004ADCCE0148DC61E0CE01AADC4FEF6EE343
:102F5000CE0185DC66E3CE0181DC66E3CE017EDC5A
:102F600069E3CE017BDC66E3CE0178DC80E0DF91B3
:102F7000CF910895CF93DF93EC0166E36FDC6AE3B2
:102F8000CE016CDC64E3CE0169DC6AE070E080E0D5
:102F900090E00F942B6D40E06BEFCE0160DC803150
:102FA00088F040E06FEBCE015ADC8E3041F42EE029
:102FB00049EB59E16FEFCE0146DD8EE004C06AE3D4
:102FC000CE014CDC80E0DF91CF910895CF93DF9369
:102FD000EC0166E343DC62E070E080E090E00F9497
:102FE0002B6D66E3CE013ADC6AE3CE01DF91CF912F
:102FF00035CC20E030E040E050E0BC01620F731FB0
:10300000FB01E40FF51F15824F5F5F4F4A305105FA
:10301000B9F7275F3F4F2039310569F7FC01EB56BF
:10302000FF4F10820895AF92BF92CF92DF92EF923E
:10303000FF920F931F93CF93DF93D62EC72E7C0161
:1030400025E9E20EF11CF7011081612F70E0FC010F
:1030500020E030E026173707E4F445814423A9F047
:10306000AD2DBC2D40E050E001E0BD904F5F5F4FC3
:10307000EF01C40FD51FCD81BC1200E048305105CF
:10308000A1F7002311F0822F54C02F5F3F4F3996D4
:10309000E1CF103109F44CC029E0269FF001279FB1
:1030A000F00D1124E80FF91F21E02583F9E01F9F9F
:1030B000800D911D1124ED2DFC2D20E030E02F5FBF
:1030C0003F4F4191DC01A20FB31F15964C9328305E
:1030D0003105A9F71F5FF7011083C8EC0C2F10E032
:1030E000C8010F94CE798130F9F061E0C8010F94E6
:1030F000D679E80121965801F9E0AF0EB11C0D2DEB
:103100001C2DCE010F94CE79F80161918F018617A5
:1031100019F0CE010F94D6792196CA15DB0589F7EF
:10312000F7018081815005C0C75FC835B9F6F8CF77
:103130008FEFDF91CF911F910F91FF90EF90DF9074
:10314000CF90BF90AF9008951F93CF93DF93EC0182
:1031500011DF182FCE013ADF1E3011F080E0B2C02F
:103160008091C1198131D1F78091B9198F3FB1F3A5
:103170008091BA198F3F91F38091BB198F3F71F302
:103180008091BC198F3F51F38091B019882371F160
:1031900061E77EE088E49BE10F9457718091B1195B
:1031A00091E0980F9093B1190E94E7296FE973E0BD
:1031B00088E49BE10F94327168E973E088E49BE155
:1031C0000F9432718EE00E94E7296BE37CE088E483
:1031D0009BE10F9457716EE089EB99E10E941A27E9
:1031E0006BE37CE088E49BE10F9472711091C2194B
:1031F0008DEF810F853008F0B1CF69EB79E1CE0119
:1032000012DFC82F61E77EE088E49BE10F945771DD
:103210008091B11991E0980F9093B1190E94E7291C
:103220006CE873E088E49BE10F94327164E089EB11
:1032300099E10E941A271F92CF9385E193E09F9313
:103240008F93C0E6D9E1DF93CF930F94B277BE019D
:1032500088E49BE10F9457718091C6199091C5192C
:1032600089271F928F938091C4191F928F9383E2B5
:1032700093E09F938F93DF93CF930F94B277BE0128
:1032800088E49BE10F94577167E873E088E49BE161
:103290000F9432718DB79EB70E960FB6F8949EBFFD
:1032A0000FBE8DBF173019F462E873E002C06EE7FD
:1032B00073E088E49BE10F94327188E49BE10F9402
:1032C0005F7181E0DF91CF911F9108957F928F927E
:1032D0009F92AF92BF92CF92DF92EF92FF920F93A5
:1032E0001F93CF93DF93CDB7DEB72F970FB6F89428
:1032F000DEBF0FBECDBF6C01142FF22EFC01EB56CA
:10330000FF4F8081681708F06DC0F60189E0689F63
:10331000E00DF11D11248581882309F463C05F014C
:1033200093E0792E2EE0822E31E1932E65EFC601D7
:103330007ADA8F7190E00297CCF78982FE0132969B
:1033400081E090E0D501A80FB91F15962C9121932B
:10335000019689309105B1F79A861B87F601848121
:1033600091E0980F94838C87FD860E87EF8666E345
:10337000C60174DA6BE3C60171DA2FE0AE014F5F6C
:103380005F4F6FE7C6015FDB65E3C60167DA7A94DA
:1033900069F68091B019882329F1812F8B7F8330C2
:1033A00011F01530F9F461E77EE088E49BE10F94B9
:1033B00057718091B11991E0980F9093B1190E94C3
:1033C000E7296FE673E088E49BE10F9432716EE0C9
:1033D000CE0102960E941A276BE37CE088E49BE111
:1033E0000F9472712F960FB6F894DEBF0FBECDBF4B
:1033F000DF91CF911F910F91FF90EF90DF90CF90D1
:10340000BF90AF909F908F907F900895EF920F9311
:103410005DDF0F91EF900895EF920F93E02E022F52
:10342000242F45E053DF0F91EF900895EF920F9313
:10343000E12C00E020E047E049DF0F91EF90089594
:10344000FC0171836083108E0895CF93DF93EC01AC
:10345000CB01FA01288D211105C0118210828FEF56
:103460009FEF1CC0208131812A30310520F029E0F6
:1034700030E0318320832C8130E04081518124175A
:10348000350710F431832083BE016B5F7F4F40818D
:1034900051810F943A77188E8C8190E0DF91CF9113
:1034A0000895DF92EF92FF920F931F93CF93DF93D4
:1034B000EC019E858091B0198E01025F1F4F9930FB
:1034C00009F051C0882331F062E373E088E49BE1A6
:1034D0000F94727170E1D72E66E6E62E63E0F62E49
:1034E00088819981DC01ED91FC910084F185E02DCA
:1034F0006AE0199588819981DC01ED91FC91048045
:10350000F581E02D49E058E166E372E7199588817D
:103510009981F70161917F01DC01ED91FC910488B3
:10352000F589E02D199588819981DC01ED91FC9157
:103530004E8550E04F5F5F4F0484F585E02DB80164
:10354000199588819981DC01ED91FC910684F785BC
:10355000E02D1995B9E6EB16B3E0FB0609F6DA940F
:1035600009F0BACFF9C09F85943A09F051C0882379
:1035700031F06DE373E088E49BE10F94727150E1E8
:10358000D52E43E6E42E43E0F42E88819981DC01B8
:10359000ED91FC910084F185E02D68E0199588811A
:1035A0009981DC01ED91FC910480F581E02D4DECD9
:1035B0005CEB6BEA7AE9199588819981F701619151
:1035C0007F01DC01ED91FC910488F589E02D1995CE
:1035D00088819981DC01ED91FC914E8550E04F5F2F
:1035E0005F4F0484F585E02DB80119958881998194
:1035F000DC01ED91FC910684F785E02D1995B6E686
:10360000EB16B3E0FB0609F6DA9409F0BACFA4C0D2
:103610009A3509F051C0882331F064E473E088E4FE
:103620009BE10F94727130E1D32E29E6E22E23E064
:10363000F22E88819981DC01ED91FC910084F18565
:10364000E02D68E0199588819981DC01ED91FC916C
:103650000480F581E02D4AEA55E56AE075E01995A8
:1036600088819981F70161917F01DC01ED91FC91E5
:103670000488F589E02D199588819981DC01ED9107
:10368000FC914E8550E04F5F5F4F0484F585E02D3F
:10369000B801199588819981DC01ED91FC9106842E
:1036A000F785E02D1995BCE6EB16B3E0FB0609F6AD
:1036B000DA9409F0BACF50C0882331F06BE473E09C
:1036C00088E49BE10F94727190E1D92E8CE6E82E8C
:1036D00083E0F82E88819981DC01ED91FC910084D2
:1036E000F185E02D68E0199588819981DC01ED91E3
:1036F000FC910480F581E02D4BE855E26AE774E126
:10370000199588819981F70161917F01DC01ED9123
:10371000FC910488F589E02D199588819981DC0157
:10372000ED91FC914E8550E04F5F5F4F0484F5852D
:10373000E02DB801199588819981DC01ED91FC910A
:103740000684F785E02D1995BFE6EB16B3E0FB067E
:1037500009F6DA9409F0BACF80E090E0DF91CF91DA
:103760001F910F91FF90EF90DF900895982F9F7019
:1037700082958F70282F30E0692F70E041E050E093
:103780006430710514F440E050E0240F351F2A5FC7
:103790003F4F277033272C5F3F4F81E02827E4E01D
:1037A000220F331FEA95E1F784E0890F92E0892721
:1037B0008F70822B08950F931F93CF93DF938C010B
:1037C000EC018991D3DF20E030E0F8019081492FAE
:1037D0004370F901EE0FFF1FEE0FFF1FE40FF11D05
:1037E000E255FC4FE4919455913810F440E801C043
:1037F00040E098819E1B941B982799932F5F3F4F21
:103800002830310511F7DF91CF911F910F91089565
:10381000EF92FF920F931F93CF93DF931F921F920C
:10382000CDB7DEB78C01DC015896FC905897F110AB
:10383000F5C05B968C915B978F5F843018F45B9634
:103840008C9302C0F801138ED8015B962C915B9784
:103850008D919C91213009F449C038F1223009F44E
:1038600066C0233009F084C0DC01ED91FC91008436
:10387000F185E02D6AE01995F80180819181DC01E4
:10388000ED91FC910480F581E02D4DEC5CEB6BEA51
:103890007AE91995F80180819181DC01ED91FC9123
:1038A0000488F589E02D63E062C0DC01ED91FC91B4
:1038B0000084F185E02D6AE01995F80180819181FD
:1038C000DC01ED91FC910480F581E02D4BE855E29F
:1038D0006AE774E11995F80180819181DC01ED912D
:1038E000FC910488F589E02D69E041C0DC01ED918F
:1038F000FC910084F185E02D6AE01995F801808142
:103900009181DC01ED91FC910480F581E02D4AEA82
:1039100055E56AE075E01995F80180819181DC0137
:10392000ED91FC910488F589E02D64E020C0DC0174
:10393000ED91FC910084F185E02D6AE01995F80184
:1039400080819181DC01ED91FC910480F581E02D75
:1039500049E058E166E372E71995F80180819181A9
:10396000DC01ED91FC910488F589E02D68E0199562
:10397000F80180819181DC01ED91FC910088F18951
:10398000E02D1995882309F447C08AE090E09A83D6
:103990008983F80180819181DC01ED91FC9102889D
:1039A000F389E02DAE014F5F5F4FB8016C5F7F4F31
:1039B000199597FD33C089819A81009779F1F801B3
:1039C000E4802E2D30E02F5F3F4F8217930731F5B3
:1039D000278130E0322F22278385282BC901AA278F
:1039E00097FDA095BA2F4281538160E070E0841763
:1039F0009507A607B70731F4818D928D0196928FB6
:103A0000818F04C03383228381E0808FB9E0EB1281
:103A100003C0C8010596CFDEF801F08C8F2D0F9002
:103A20000F90DF91CF911F910F91FF90EF9008952C
:103A3000CF93DF93EC0188819981DC01ED91FC91BA
:103A40000190F081E02D199597FD43C088819981FF
:103A5000DC01ED91FC910284F385E02D61E0199584
:103A600097FD37C088819981DC01ED91FC9102803E
:103A7000F381E02D63E0199597FD2BC08881998132
:103A8000DC01ED91FC910680F781E02D64E0199551
:103A900097FD1FC088819981DC01ED91FC91048024
:103AA000F581E02D49E058E166E372E7199597FD4D
:103AB00010C088819981DC01ED91FC910084F18531
:103AC000E02D6AE0199597FD04C0CE01A1DE80E0EB
:103AD00090E0DF91CF9108950F931F93CF93DF93E1
:103AE0008C01EC01899142DE982F20E030E0488182
:103AF000940FD8015C91652F6370F901EE0FFF1FE1
:103B0000EE0FFF1FE60FF11DE255FC4FE4915455F7
:103B1000513810F450E801C050E048274E0F450FCF
:103B200049932F5F3F4F2730310509F7D801EC91BA
:103B3000E370F0E0E653FC4FE4919E5F98279E0F00
:103B4000F8019087DF91CF911F910F910895EF9227
:103B5000FF920F931F93CF93DF938C017B01EA01B8
:103B60004A30510538F549305105B1F4CB01B4DF85
:103B70008091B019882381F063E573E088E49BE1CC
:103B80000F94577169E0C7010E941A276BE37CE02C
:103B900088E49BE10F947271AE01B701C8010F96E2
:103BA0000F943A77F801C687C8017BDC97FD04C003
:103BB000CE0102C08FEF9FEFDF91CF911F910F9148
:103BC000FF90EF900895693028F4FC01658380E050
:103BD00090E008958FEF9FEF08952CEF260F2F3080
:103BE00038F460FD05C0FC01658780E090E0089531
:103BF0008FEF9FEF0895FC01648380E090E00895CB
:103C0000FC01668780E090E00895FC01680F791F51
:103C100080E090E0E617F707A9F0419128E030E056
:103C200050E0DA01A827B92796958795A0FF04C030
:103C3000A8E08A27A4E89A2755954795215031098D
:103C400079F7E8CF0895982F28E030E080E0492FF9
:103C50004170880F842B969521503109C1F7089542
:103C60000F931F93CF93DF938C01EA0141325105EB
:103C700010F0C0E2D0E0AE01C80149960F943A7747
:103C8000F801C68B11AECE01DF91CF911F910F913C
:103C90000895EF92FF920F931F93CF93DF93EC0160
:103CA000CB018A012E8930E0FA014081518124172D
:103CB000350710F4318320837E01F9E1EF0EF11C0A
:103CC000F80140815181B7010F943A774E89F8018C
:103CD0008081481B4E8B442351F050E060817181FC
:103CE000675E7F4F6C0F7D1FC7010F9443778E89EE
:103CF00090E0DF91CF911F910F91FF90EF90089589
:103D00002F923F924F925F926F927F928F929F92EB
:103D1000AF92BF92CF92DF92EF92FF920F931F93D9
:103D2000CF93DF93CDB7DEB7AA970FB6F894DEBF77
:103D30000FBECDBF8C01DC0112968D919C91139723
:103D40000F94B769F801818D80FF03C085E5582E77
:103D500002C0BAEA5B2ED8015796AC90B12CFE0196
:103D600031967F01812C912C3F018A149B040CF029
:103D70004CC06401FFEFCF1ADF0AD80155966C9151
:103D8000559770E0C601860F971F15962C911597D1
:103D900030E0821793071CF458968C9149C0F801C3
:103DA0004485D901A40FB11DAD018A179B0724F5E5
:103DB000821A930ABFEF8B1A9B0A860E971EE1E0C8
:103DC0008E16910491F034F4892879F5D80116966D
:103DD0008C912EC082E08816910451F093E08916F0
:103DE000910419F5F801818523C0F801878120C06D
:103DF000D80118968C911CC0258526952695269568
:103E0000420F511D8417950794F0F801F481F9A32E
:103E1000D80156962C90FF2389F0622D70E0C801DE
:103E20004996F3DE9BA38AA309C080E001C0852DDB
:103E30000ADFF70181937F01460197CFD8011D96D4
:103E40008C918770E82EF12CC52CD12C88E090E065
:103E50008E199F0902C0D594C7948A95E2F7312C38
:103E6000B9A1BB2319F062E070E002C060E070E02D
:103E7000620D731DA1014F5F5F4F8FEF9FE1289E81
:103E80009001299E300D389E300D1124A12CB12CAB
:103E900090E0A214B3048CF4F801EA0DFB1DE18D4F
:103EA000F0E00E2C02C0EE0FFF1F0A94E2F7CE2ABC
:103EB000DF2AE8E0EE0EF11C04C0F9A1F11103C005
:103EC00091E0240145C04A155B05D4F3F501E20FEA
:103ED000F31FA3E0EE0FFF1FAA95E1F7AAA1BBA174
:103EE00002C0B695A795EA95E2F7FD01FF270E2CD3
:103EF00002C0EE0FFF1F0A94E2F7CE2ADF2AB8E0D5
:103F0000EB0EF11CDECFE8E0F0E0EE15FF0534F536
:103F1000E0E24E165104B0F58C2D29A73AA74FA325
:103F200058A76DA37EA39CA38EDEF301E40DF51DBF
:103F30008083CD2CDD24F8E0EF1AF1088FEF481ACA
:103F4000580A9CA17EA16DA158A54FA13AA529A50B
:103F500042019923C1F2E0E0F0E0D7CFAFEFAA1A17
:103F6000BA0A6A157B050CF094CF8E858F608E8718
:103F7000442DB301F801828193810F942D6A80E072
:103F800090E002C08FEF9FEFAA960FB6F894DEBFC5
:103F90000FBECDBFDF91CF911F910F91FF90EF909A
:103FA000DF90CF90BF90AF909F908F907F906F9059
:103FB0005F904F903F902F900895CF93DF93EC0147
:103FC0008A819B810F942C6C8A819B810F94CC6B8E
:103FD000811121C061E070E08A819B810F94ED6BBB
:103FE0008A819B810F948F6C0197C1F460E070E02F
:103FF0008A819B810F94ED6B8A819B810F948F6CDA
:1040000021E030E0892B11F420E030E08827992767
:10401000821B930B05C080E090E002C08FEF9FEF02
:10402000DF91CF910895FC018DE993E09183808326
:104030007383628381E085831782168211861086DE
:104040001386128684E08487858788E086871786B2
:10405000168A178A108E11AE08954F925F926F9252
:104060007F928F929F92AF92BF92CF92DF92EF9208
:10407000FF920F931F93CF93DF93EC01AD80B12C90
:1040800081E0A81AB1086C846501C60CD11C86E0D9
:10409000C816D10434F0C601059745E0C42ED12CD2
:1040A00002C080E090E00D8510E0095F1F4F33E013
:1040B000159507953A95E1F7080F191F8E85080F9A
:1040C000111D8C81882311F00E5F1F4F01321105E5
:1040D00008F089C083E0C816D1040CF484C04E8077
:1040E0005F8040FE03C025E5722E02C09AEA792E59
:1040F0007601812C912C8A149B046CF481E0E81ADF
:10410000F108872DA0DDFE01EE0DFF1D808B8FEFE6
:10411000881A980AF0CFE114F10461F1842D93DD3F
:10412000970121503109FE01E20FF31F808B232BF1
:1041300009F1570182E0A81AB108852D84DDFE013E
:10414000EA0DFB1D808B84E0681214C0AB2891F04F
:10415000B984888578DD970123503109FE01E20F8B
:10416000F31F808B232B31F08B2D6DDDFE01EE0DC7
:10417000FF1D84870F8B788ECD8A6C2D8A819B8161
:104180000F94146B7E0180E1E80EF11CB7018A8167
:104190009B810F94906AA70161E08A819B810F94B3
:1041A0002B6B6F856E5F8A819B810F94A869602F4E
:1041B0008A819B810F94AE6960E08A819B810F9414
:1041C000CF6B63E08A819B810F94D66B60E070E0D7
:1041D0008A819B810F94ED6B8A819B810F949E6CE9
:1041E00080E090E002C08FEF9FEFDF91CF911F91B1
:1041F0000F91FF90EF90DF90CF90BF90AF909F9086
:104200008F907F906F905F904F900895CF93DF9342
:10421000EC018A819B810F942C6CCE01DF91CF91B0
:104220001CCFFC0127856213678717DF9927089544
:10423000FC0184E0848777836683808591859387FA
:10424000828751874087CF0108CF2F923F924F92AC
:104250005F926F927F928F929F92AF92BF92CF9216
:10426000DF92EF92FF920F931F93CF93DF93CDB71F
:10427000DEB7A4970FB6F894DEBF0FBECDBF8C019A
:10428000FC0147899E012F5F3F4F7901B90182816F
:1042900093810F944E6AC801B9DFF8013584F32D7C
:1042A000F7703F2E8091B019882391F16FE673E08B
:1042B00088E49BE10F9457714AE050E0F801678968
:1042C00088E49BE10F9449726CE773E088E49BE11A
:1042D0000F9457716701F801878990E096012E19B4
:1042E0003F092817390784F4F60161916F0140E115
:1042F00050E088E49BE10F94497266E179E088E43C
:104300009BE10F945771E7CF88E49BE10F945F71B5
:10431000F8018789282F30E03AA329A32701A12C8F
:10432000B12CC12CD12C812C912C49A15AA1A416BD
:10433000B5060CF070C0F20181912F0184DC4D2D87
:104340005527282F30E0D22ECC24C42AD52AD501D7
:104350001196F8019589492F50E05CA34BA34A0FB1
:104360005B1F658170E0461757072CF4908D891705
:1043700009F44FC0D9C0F8012484CB01820D911DEE
:104380004817590744F5A61AB70AFFEFAF1ABF0A34
:104390004BA15CA1A40EB51E51E0A516B10451F0CD
:1043A00082E0A816B10469F0AB2899F5F80186817E
:1043B00097810DC0F8016780712C2615370549F1EA
:1043C000B3C0F4E02F1225C0F8018085918528172D
:1043D0003907F9F0A9C0F801258530E0295F3F4F82
:1043E00073E0359527957A95E1F7280F391F421725
:1043F00053077CF0F701E80DF91DC601032C02C03C
:10440000969587950A94E2F7808394012F5F3F4F3A
:1044100049015D018ACFA980B12C650153E0C50E29
:10442000D11C80E2C816D1040CF07EC08091B01976
:10443000882301F16FE773E088E49BE10F945771E3
:104440004701F40161914F0140E150E088E49BE1B4
:104450000F94497266E179E088E49BE10F9457710B
:10446000C4018E199F098C159D055CF388E49BE1BE
:104470000F945F71F8018481882309F449C06501B4
:10448000FFEFCF1ADF0AB601C701BFDB4C01F7010E
:10449000EC0DFD1D60809927712C8615970569F438
:1044A000292D3327E3E0F0E0EC0FFD1FEA0DFB1DA3
:1044B000808190E02817390759F1E3E0F0E0EC0F34
:1044C000FD1FEA0DFB1DB0808091B019882301F11A
:1044D00068E873E088E49BE10F94577140E150E095
:1044E000B40188E49BE10F94647264E973E088E4AA
:1044F0009BE10F945771762D66276B2940E150E0C0
:1045000088E49BE10F94647288E49BE10F945F71EF
:10451000A601B701C80149960F943A77F801C68AF7
:1045200081E081AFC60102C080E090E0A4960FB6A2
:10453000F894DEBF0FBECDBFDF91CF911F910F91D9
:10454000FF90EF90DF90CF90BF90AF909F908F90B3
:104550007F906F905F904F903F902F900895CF93F2
:10456000DF93EC018A819B810F94936B8A819B81FD
:104570000F944B6A882311F0CE0167DE89AD882342
:1045800021F019AE8E8990E002C080E090E0DF91CA
:10459000CF910895AF92BF92CF92DF92EF92FF92A8
:1045A0000F931F93CF93DF9320915A1430915B1494
:1045B000C9018D7FC09721F561E070E040E080E0A7
:1045C00090E0DC01C1E00BC0E7EDE50FEE37D0F481
:1045D0004C27880F991FAA1FBB1F842B6F5FE62FE4
:1045E000F0E02E173F07DCF0E65AFB4E5185D9EB81
:1045F000D50FDF3910F4565A51875185573120F7BE
:1046000080E0B4C0583248F4772399F0880F991F9E
:10461000AA1FBB1F842B70E0E1CF573E88F36C01CB
:104620007D01F694E794D794C794C114D10441F363
:1046300002C071E0D3CFAC01BD0123E1769567954F
:10464000579547952A95D1F75A0127E0A222BB2416
:1046500036E1B695A795979587953A95D1F78C0150
:104660000770112787E008278091B11991E0980F12
:104670009093B1191F928F9383EB93E09F938F9345
:10468000C0E6D9E1DF93CF930F94B277BE0188E4FF
:104690009BE10F9457716CEB73E088E49BE10F94FE
:1046A0005771DF92CF9284EC93E09F938F93DF93C7
:1046B000CF930F94B277BE0188E49BE10F945771BA
:1046C0000F5F1F4F1F930F9386E193E09F938F938C
:1046D000DF93CF930F94B277BE0188E49BE10F94F0
:1046E00057718DB79EB742960FB6F8949EBF0FBE16
:1046F0008DBF97E0A916B10419F467E374E106C011
:1047000026E0A216B10439F46DE274E188E49BE17D
:104710000F94327120C0AA94AB2819F463E274E1BB
:10472000F5CF6AE174E188E49BE10F9432716DEC9E
:1047300073E088E49BE10F94577120E130E0B7010A
:10474000A60188E49BE10F943D726BE37CE088E472
:104750009BE10F94577188E49BE10F945F7181E0B6
:1047600080935C1410925B1410925A14DF91CF91D5
:104770001F910F91FF90EF90DF90CF90BF90AF907F
:1047800008958F929F92AF92BF92CF92DF92EF9255
:10479000FF920F931F93CF9380915A1490915B14C3
:1047A000C29709F045C0E6E6F4E1C12CD12C7601B0
:1047B00080818231E8F5DF0111978C91823748F0D2
:1047C0008938B0F5CC0CDD1CEE1CFF1C6894C0F8D9
:1047D00007C08D53843160F5CC0CDD1CEE1CFF1C32
:1047E000329624E1E639F20719F79091511480913D
:1047F000501498131FC08090561490905714A09096
:104800005814B090591438EE830E33E0931EA11C57
:10481000B11C0F94FC6C86169706A806B90650F0DA
:1048200081E0CAC033272F2D1E2D0D2D033328F113
:1048300080E0C2C0C114D104E104F104C9F3D7017E
:10484000C601C2E0B695A79597958795CA95D1F709
:104850005C012FE0B22239E5A31632E0B30608F47A
:104860009EC088E3A8168FE0B806E0F280E090E9E9
:104870009C012A193B09590192C08C2D8A3018F0ED
:1048800064E60F94AD74A82EB12C8AE0089FA00CAA
:10489000B11C1124C701AA27BB27182F092FC1E07B
:1048A0008091B11991E0980F9093B1191F928F9355
:1048B00083EB93E09F938F9380E699E19F938F938F
:1048C0000F94B27760E679E188E49BE10F94577129
:1048D0000F900F900F900F900F900F90C11103C089
:1048E00063E97CE002C068E87CE088E49BE10F9427
:1048F00032710F931F9384EC93E09F938F9300E6A4
:1049000019E11F930F930F94B277B80188E49BE1EC
:104910000F945771BF92AF9285E699E09F938F9362
:104920001F930F930F94B277B80188E49BE10F9423
:1049300057712DB73EB7245F3F4F0FB6F8943EBF77
:104940000FBE2DBFC1111FC0C1FE03C089EA9CE08C
:1049500002C084ED93E09F938F9388ED93E09F9343
:104960008F9380E699E19F938F930F94B27760E6DF
:1049700079E188E49BE10F9457710F900F900F90AD
:104980000F900F900F9088E49BE10F945F7181E08E
:1049900080935C1410925B1410925A140DC0D701CE
:1049A000C601FEE0B695A79597958795FA95D1F73C
:1049B000182F092FC0E074CFCF911F910F91FF9056
:1049C000EF90DF90CF90BF90AF909F908F90089521
:1049D0008F929F92AF92BF92CF92DF92EF92FF920F
:1049E0000F931F93CF93DF9380915A1490915B1490
:1049F0008E9709F05FC0E5E6F4E1C12CD12C760179
:104A000081E090E0DF0111972C912A3060F4208141
:104A10002A3020F48C3291050CF44CC0CC0CDD1CF7
:104A2000EE1CFF1C0FC0283108F044C020812B3041
:104A300018F08C329105F4F1CC0CDD1CEE1CFF1C3F
:104A40006894C0F8029632968F329105D9F690910B
:104A5000511480915014981311C080905614909066
:104A60005714A0905814B09059140F94FC6C8616EB
:104A70009706A806B90610F081E09FC0C114D104C2
:104A8000E104F104B9F00C2D1C2D1F7084E0F694A4
:104A9000E794D794C7948A95D1F787E0E822FF245A
:104AA000133051F089EF810F823030F086EF810FA3
:104AB000843010F080E081C08091B11991E0980FAE
:104AC0009093B1191F928F9383EB93E09F938F93F1
:104AD000C0E6D9E1DF93CF930F94B277BE0188E4AB
:104AE0009BE10F94577160EA76E088E49BE10F94B4
:104AF0003271FF92EF92DF92CF9280EE93E09F931C
:104B00008F93DF93CF930F94B277BE0188E49BE13C
:104B10000F9457710B708DB79EB70E960FB6F89421
:104B20009EBF0FBE8DBF033019F465E976E009C062
:104B30001A3011F01C3019F46AE876E002C06FE711
:104B400076E088E49BE10F9432716AE776E088E4CE
:104B50009BE10F9432711B3019F466E776E01EC0BA
:104B60001D3019F460E776E019C0173019F46BE6D0
:104B700076E014C0133019F467E676E00FC0183001
:104B800019F461E676E00AC01A3019F46BE576E0B4
:104B900005C01C3009F08ECF63E576E088E49BE128
:104BA0000F94327188E49BE10F945F7181E08093F0
:104BB0005C1410925B1410925A14DF91CF911F91E4
:104BC0000F91FF90EF90DF90CF90BF90AF909F90AC
:104BD0008F9008950D94CE790D94D679CF93DF936D
:104BE000C4E6D0E0CE01F6DF882319F060E0CE0104
:104BF000F3DF2196C43BD105A9F7DF91CF9108954A
:104C0000EF92FF920F931F93CF93DF93EC017B0101
:104C10008A0180910502882349F060E08EE00F94BC
:104C20006E6ECE010F94506D61E008C061E08EE0C1
:104C30000F946E6ECE010F94506D60E08EE00F9475
:104C40006E6ECE010F94506DF80180818F5F80836E
:104C50008530A9F480910502882311F060E001C03D
:104C600061E08EE00F946E6EC7010F94506D8091DD
:104C7000050291E0892780930502F8011082DF91F7
:104C8000CF911F910F91FF90EF900895DC01ED916E
:104C9000FC910190F081E02D199440E050E060E03B
:104CA00070E00D94F075CF93DF93EC0163EB78E047
:104CB0000F945477892B09F4ACC069EB78E0CE01EE
:104CC0000F945477892B09F4A7C06AEE73E0CE01E4
:104CD0000F945477892B09F4A2C060EF73E0CE01E2
:104CE0000F945477892B09F49DC069EF73E0CE01CE
:104CF0000F945477892B09F498C067EF73E0CE01C5
:104D00000F945477892B09F45DC06EEF73E0CE01E8
:104D10000F945477892B09F458C062E074E0CE01F7
:104D20000F945477892B09F453C069E074E0CE01E5
:104D30000F945477892B09F44EC06FE074E0CE01D4
:104D40000F945477892B09F449C066E174E0CE01D1
:104D50000F945477892B09F444C06DE174E0CE01BF
:104D60000F945477892B09F43FC060E274E0CE01C0
:104D70000F945477892BD9F165E274E0CE010F943A
:104D80005477892BB9F16AE274E0CE010F9454771D
:104D9000892B99F16FE274E0CE010F945477892B3F
:104DA00079F165E374E0CE010F945477892B59F1C2
:104DB0006DE374E0CE010F945477892B39F582E5C9
:104DC00090E035C08DE290E032C08CE490E02FC0DE
:104DD0008DE490E02CC08CE390E029C08DE390E05E
:104DE00026C08EE390E023C08EE490E020C08FE4E4
:104DF00090E01DC080E590E01AC088E490E017C004
:104E000089E490E014C081E590E011C080E090E07A
:104E10000EC08BE490E00BC08AE490E008C08DE8FF
:104E200090E005C087E390E002C08CE290E0DF9163
:104E3000CF910895CF92DF92FF920F931F93CF935C
:104E4000DF93CDB7DEB70DB71EB7262F30E0220FA8
:104E5000331FA9014F5F5F4FEDB7FEB7E41BF50BA2
:104E60000FB6F894FEBF0FBEEDBF4DB75EB74F5FF4
:104E70005F4FDA01F82E6C018C2D8F198617C8F45C
:104E8000C601F601708172957F7070637A3308F005
:104E9000795D7C93FFEFCF1ADF0AFC0180818F7070
:104EA00080638A3308F0895D11968C93119712966E
:104EB000E3CFFA01E20FF31F1082BA0188E49BE10D
:104EC0000F9457710FB6F8941EBF0FBE0DBFDF9140
:104ED000CF911F910F91FF90DF90CF900895BF92D7
:104EE000CF92DF92EF92FF920F931F93CF93DF93B6
:104EF000CDB7DEB760970FB6F894DEBF0FBECDBF5B
:104F000040915A1450915B14CA01845691098F3B09
:104F1000910510F080E04BC2E4E6F4E180E091916D
:104F2000953108F08F5F24E1E737F207C1F785304C
:104F300028F4E12C94E1D92E07E005C0EE24E39497
:104F40008CE3D82E0EE1E4E6F4E181E090E0B12CB0
:104F500020E0C12C61E010E070E0F12C111113C0D1
:104F60003081301750F4673008F058C031E0B31684
:104F700089F2BB24B39461E055C03D1588F1353604
:104F800008F450C0C7CF123061F43081301740F1BF
:104F90003D1508F0BFCF6C3008F444C060E011E06C
:104FA00041C0113009F0B6CF30813017D8F4CC2091
:104FB000A9F0A1E0B0E0AC0FBD1FAF0DB11D3C9159
:104FC000369530683C937F5F783029F4F3943FE066
:104FD0003F1590F170E02F5FC12C02C0CC24C39428
:104FE0006F5F20C03D1508F095CF283008F52530BB
:104FF000C1F0A1E0B0E0AC0FBD1FAF0DB11D2C9111
:1050000030E0359527952C937F5F783051F4F394F9
:105010002FE02F1588F020E070E004C061E012E07E
:1050200001C020E001963196481759070CF096CF41
:1050300034E03F1508F06ECF8091B019882361F1FC
:105040008091B11991E0980F9093B1191F928F93AD
:1050500083EB93E09F938F9380E699E19F938F93E7
:105060000F94B27760E679E188E49BE10F94577181
:1050700063E474E088E49BE10F9457716F2DCE01D7
:105080000196D8DE88E49BE10F945F710F900F903A
:105090000F900F900F900F90E0E080E090E04F2D88
:1050A00050E09A01235031096E2F70E062177307A8
:1050B0005CF4A1E0B0E0AC0FBD1FA60FB71F6C9170
:1050C000860F911DEF5FF0CF919581959109BC01FD
:1050D0007727FE013197E40FF51F408150E06417F8
:1050E000750709F017CF892F9927E1E0F0E0EC0F61
:1050F000FD1FE20FF31F208130E08217930709F0B4
:1051000009CFDD802B812F738091B11991E0980F29
:105110009093B1191F928F9383EB93E09F938F939A
:1051200000E619E11F930F93288B0F94B277B80113
:1051300088E49BE10F9457716DE474E088E49BE18F
:105140000F94577189811F928F938A811F928F9339
:105150008B8190E056E0959587955A95E1F79F935E
:105160008F931F92EF9282E594E09F938F931F930A
:105170000F930F94B277B80188E49BE10F945771B5
:105180001F9228892F9386E193E09F938F931F931B
:105190000F93288B0F94B277B80188E49BE10F94AA
:1051A00057710FB6F894DEBF0FBECDBF288921110D
:1051B00037C08F81803819F06DE47CE002C064E470
:1051C0007CE088E49BE10F9432718F811F928F9372
:1051D00089851F928F9388851F928F9387E694E02D
:1051E0009F938F9380E699E19F938F930F94B2776B
:1051F00060E679E188E49BE10F94577169E37CE014
:1052000088E49BE10F9432710FB6F894DEBF0FBEB5
:10521000CDBF8985813009F0B9C064E57BE0B8C0B5
:10522000213079F48885811103C060E37CE002C0FD
:1052300068E27CE088E49BE10F9432716AE17CE0F3
:105240007FC02D3049F462E17CE088E49BE10F945B
:10525000327167E07CE074C0223179F4898587FF80
:1052600003C06FEF7BE002C066EF7BE088E49BE168
:105270000F9432716BEE7BE063C08BEE820F823055
:1052800088F58C81882319F063EE7BE002C06AED1B
:105290007BE088E49BE10F9432718C811F928F93A5
:1052A00088851F928F938F811F928F9387E694E05A
:1052B0009F938F9380E699E19F938F930F94B2779A
:1052C00060E679E188E49BE10F9457716DEC7BE037
:1052D00088E49BE10F9432710FB6F894DEBF0FBEE5
:1052E000CDBF52C08D2D8074213271F4882319F006
:1052F00065EC7BE002C06CEB7BE088E49BE10F9403
:10530000327163EB7BE01CC0293271F4882319F001
:105310006BEA7BE002C062EA7BE088E49BE10F94E9
:10532000327165E97BE00CC02433C1F4882369F055
:105330006DE87BE088E49BE10F9432716EE77BE0DF
:1053400088E49BE10F9432711FC065E77BE088E43D
:105350009BE10F94327165E67BE0F2CF6DE57BE077
:1053600088E49BE10F9432716DEC73E088E49BE17B
:105370000F9457716F2DCE0101965CDD6BE37CE0DD
:1053800088E49BE10F945771D4FC47CF6CE47BE039
:1053900088E49BE10F94327188E49BE10F945F7184
:1053A00081E080935C1410925B1410925A14609602
:1053B0000FB6F894DEBF0FBECDBFDF91CF911F9126
:1053C0000F91FF90EF90DF90CF90BF900895CF9313
:1053D000DF9300D0CDB7DEB7982F92959F70906382
:1053E0009A3308F0995F99838F7080638A3308F04D
:1053F000895F8A831B82BE016F5F7F4F88E49BE1D8
:105400000F9457710F900F900F90DF91CF910895E7
:10541000EF92FF920F931F93CF93DF9380915A14D3
:1054200090915B148731910534F410925B141092C3
:105430005A140C94283582975CF4E5E6F4E18191E6
:10544000833410F00C94283524E1EC36F207B9F7D8
:105450008091B019882309F450C065EA7CE188E4A2
:105460009BE10F9432718091B11991E0980F909364
:10547000B119ADDF66E97CE188E49BE10F943271FC
:1054800060915A1470915B144AE050E088E49BE10B
:105490000F94207267E87CE188E49BE10F943271FD
:1054A00004E614E1C1E0D0E080915A1490915B14BD
:1054B0008C179D07E4F0D8016D918D0180915E14E9
:1054C000689FB00111244AE050E088E49BE10F940A
:1054D000207280915A1490915B14C817D9072CF44C
:1054E0006CE270E088E49BE1D1DB2196DDCF6BE3D9
:1054F0007CE088E49BE10F94727120915A14309102
:105500005B142937310544F42037310511F00C9430
:10551000263589E40C942435283C310579F02A3F5E
:10552000310561F02E35B1E03B0741F02039E1E073
:105530003E0721F02F3FF1E03F0781F58091951460
:10554000893760F18091C714893740F18091F9144F
:10555000893720F180916514813178F48091661447
:10556000813168F480916714813148F48091681426
:10557000813128F482E390E0D1C0853178F48091C4
:105580006614853158F480916714853138F4809120
:105590006814853118F482E390E0E9C0C90162E340
:1055A00070E00F94CD74A901481B590B483C51057C
:1055B000D1F04A3F5105B9F04C3261E0560799F0FD
:1055C0004E35A1E05A0779F04039B1E05B0759F058
:1055D000423CE1E05E0739F0443FF1E05F0719F03B
:1055E0004F3F514069F5FC01E65AFB4E81858D38ED
:1055F00038F183AD8D3820F1DF01A359BF4F8C9175
:105600008D38F0F0D2968C918D38D0F0838585312D
:10561000B8F484858531A0F48585853188F4868544
:10562000853170F4A4E6B4E180E090E00196EF01EA
:10563000C80FD91F29852D9382339105B9F797C0DB
:10564000283C310559F02A3F310541F02C3281E0E8
:10565000380721F02E35A1E03A0769F465E674E1D8
:10566000EAE6F4E1C9E6D4E148E6E42E44E1F42EAA
:1056700082E090E020C02039B1E03B0779F3223C82
:10568000E1E03E0759F32F3FF1E03F0709F07AC010
:10569000E5CFAC01465A5B4EDA01DB961C911D3812
:1056A00080F4019631962196BFEFEB1AFB0A833303
:1056B000910509F467C0DB014D91BD014D3888F3B8
:1056C000E8CF8F01015A1F4FD8011C911D3848F3B4
:1056D0008F010F561F4FD8011C911D3810F38F01F9
:1056E00003501109D8011C91113118F5D7011C91F3
:1056F000113110F518811131F8F410811131E0F4F5
:10570000E4E6F4E180E090E00196DA01A80FB91F29
:1057100019962C91219382339105B1F790935B14E4
:1057200080935A1483E080936314809347140C94FD
:105730002635153108F0B5CFD7011C91153108F089
:10574000B0CF1881153108F0ACCF1081153108F0B9
:10575000A8CFE4E6F4E180E090E00196DA01A80F3A
:10576000B91F19962C91219382339105B1F790932B
:105770005B1480935A1483E080936314109247144F
:105780000C942635C9018A5D91090597D0F52A3D0B
:10579000310531F02C3D310531F080E090E005C05D
:1057A00088E290E002C08AE290E0FC01E65AFB4EFB
:1057B00042854252403258F546A94252403238F5AD
:1057C000DF01AE59BF4F4C914252403200F51816DE
:1057D00019064CF08CE290E090935B1480935A147D
:1057E00086E40C942435A4E6B4E180E090E00196D0
:1057F000EF01C80FD91F29852D938C329105B9F778
:10580000E9CF243A310559F0263F310541F02A39D4
:10581000E1E03E0721F02C3EF1E03F07D9F4809112
:1058200064148D38B8F080916514823298F08091BC
:10583000B6148D3878F08091B714823258F0243A3B
:105840003105A1F1809108158D3820F0809109155E
:10585000823260F52F3F41E0340789F58091B3141F
:10586000893C08F45BC08091B4148D3808F456C0AC
:105870008091B514823208F451C080910515893C9D
:1058800008F44CC0809106158D3808F447C080910B
:105890000715823208F442C0E4EBF4E1A4E6B4E177
:1058A00081918D9365E1E630F607D1F782E590E0CE
:1058B00090935B1480935A148AE10C942435283C0D
:1058C000310521F02C3281E0380769F480916414AD
:1058D000833448F08091C714873828F08091C81429
:1058E000833408F0A0C52A3C3105C1F02E32A1E076
:1058F0003A07A1F02039B1E03B0781F0223BE1E01B
:105900003E0761F0223CF1E03F0741F0243F41E0D7
:10591000340721F02F3F61E0360789F48091651448
:105920008354803160F480919714833440F08091E7
:10593000C914833420F080916414813168F12E3BC6
:10594000310541F0C901897F803C910519F02C3C5B
:10595000310559F582E4820F90E0FC01E65AFB4ED6
:1059600041A9433410F1DF01AD59BF4F4C9143348D
:10597000E0F0D2964C914334C0F040A94131A8F4F4
:10598000E4E6F4E1DF01A80FB91F96962C9121936C
:10599000A4E1E639FA07B1F782E390E090935B1453
:1059A00080935A1483E10C942435C9018D7F883E7D
:1059B000910521F02639B1E03B07B9F480916514D7
:1059C000833998F080919F14833978F08091D914AD
:1059D000833958F0E6E6F4E1A4E6B4E181918D93D1
:1059E00024E1E03AF207D1F7DDC3C90189579109F3
:1059F0008F3E910530F5F901E65AFB4E8185893CD1
:105A0000D0F0DF01D1979C919738A8F0EB56F109BF
:105A1000808187588F3178F4963A68F4E4E6F4E1AF
:105A2000DF01A20FB31FDA978C91819344E1EE3925
:105A3000F407B1F759C22A3D3105D9F02C3D3105A3
:105A4000A1F02E3D310599F0283261E0360779F05A
:105A5000223781E0380759F02C3BA1E03A0739F0B2
:105A60002F3FB1E03B07E1F502C0E8E403C0EAE400
:105A700001C0E6E4F0E0E65AFB4E818585568732A8
:105A800078F5DF01AD5ABF4F8C918556873240F5CE
:105A9000A65BBF4F8C91853618F1809195148432A6
:105AA000F8F4809197148432D8F480919914843258
:105AB000B8F480919B14843298F4A4E6B4E180E0B9
:105AC00090E00196EF01C80FD91F29852D938A34E4
:105AD0009105B9F790935B1480935A1483E7B4C788
